{
	"04-Camps/08-UpChain_Camp_3_OpenSpace/0116_NFTMarketWithTokenReceived/contracts/NFTMarket.sol": {
		"NFTMarket": {
			"abi": [
				{
					"inputs": [
						{
							"internalType": "address",
							"name": "_tokenAddr",
							"type": "address"
						}
					],
					"stateMutability": "nonpayable",
					"type": "constructor"
				},
				{
					"inputs": [
						{
							"internalType": "uint256",
							"name": "bidAmount",
							"type": "uint256"
						},
						{
							"internalType": "uint256",
							"name": "priceAmount",
							"type": "uint256"
						}
					],
					"name": "BidLessThanPrice",
					"type": "error"
				},
				{
					"inputs": [],
					"name": "NotOnSale",
					"type": "error"
				},
				{
					"inputs": [],
					"name": "NotOwner",
					"type": "error"
				},
				{
					"inputs": [],
					"name": "ZeroPrice",
					"type": "error"
				},
				{
					"inputs": [
						{
							"internalType": "uint256",
							"name": "withdrawAmount",
							"type": "uint256"
						},
						{
							"internalType": "uint256",
							"name": "balanceAmount",
							"type": "uint256"
						}
					],
					"name": "withdrawalExceedBalance",
					"type": "error"
				},
				{
					"inputs": [
						{
							"internalType": "address",
							"name": "_nftAddr",
							"type": "address"
						},
						{
							"internalType": "uint256",
							"name": "_tokenId",
							"type": "uint256"
						},
						{
							"internalType": "uint256",
							"name": "_bid",
							"type": "uint256"
						}
					],
					"name": "buy",
					"outputs": [],
					"stateMutability": "nonpayable",
					"type": "function"
				},
				{
					"inputs": [
						{
							"internalType": "address",
							"name": "_nftAddr",
							"type": "address"
						},
						{
							"internalType": "uint256",
							"name": "_tokenId",
							"type": "uint256"
						}
					],
					"name": "delist",
					"outputs": [],
					"stateMutability": "nonpayable",
					"type": "function"
				},
				{
					"inputs": [],
					"name": "getBalance",
					"outputs": [
						{
							"internalType": "uint256",
							"name": "",
							"type": "uint256"
						}
					],
					"stateMutability": "view",
					"type": "function"
				},
				{
					"inputs": [
						{
							"internalType": "address",
							"name": "_nftAddr",
							"type": "address"
						},
						{
							"internalType": "uint256",
							"name": "_tokenId",
							"type": "uint256"
						}
					],
					"name": "getOwner",
					"outputs": [
						{
							"internalType": "address",
							"name": "",
							"type": "address"
						}
					],
					"stateMutability": "view",
					"type": "function"
				},
				{
					"inputs": [
						{
							"internalType": "address",
							"name": "_nftAddr",
							"type": "address"
						},
						{
							"internalType": "uint256",
							"name": "_tokenId",
							"type": "uint256"
						}
					],
					"name": "getPrice",
					"outputs": [
						{
							"internalType": "uint256",
							"name": "",
							"type": "uint256"
						}
					],
					"stateMutability": "view",
					"type": "function"
				},
				{
					"inputs": [
						{
							"internalType": "address",
							"name": "_nftAddr",
							"type": "address"
						},
						{
							"internalType": "uint256",
							"name": "_tokenId",
							"type": "uint256"
						},
						{
							"internalType": "uint256",
							"name": "_price",
							"type": "uint256"
						}
					],
					"name": "list",
					"outputs": [],
					"stateMutability": "nonpayable",
					"type": "function"
				},
				{
					"inputs": [
						{
							"internalType": "address",
							"name": "operator",
							"type": "address"
						},
						{
							"internalType": "address",
							"name": "from",
							"type": "address"
						},
						{
							"internalType": "uint256",
							"name": "tokenId",
							"type": "uint256"
						},
						{
							"internalType": "bytes",
							"name": "data",
							"type": "bytes"
						}
					],
					"name": "onERC721Received",
					"outputs": [
						{
							"internalType": "bytes4",
							"name": "",
							"type": "bytes4"
						}
					],
					"stateMutability": "nonpayable",
					"type": "function"
				},
				{
					"inputs": [
						{
							"internalType": "address",
							"name": "",
							"type": "address"
						},
						{
							"internalType": "uint256",
							"name": "",
							"type": "uint256"
						}
					],
					"name": "onSale",
					"outputs": [
						{
							"internalType": "bool",
							"name": "",
							"type": "bool"
						}
					],
					"stateMutability": "view",
					"type": "function"
				},
				{
					"inputs": [],
					"name": "tokenAddr",
					"outputs": [
						{
							"internalType": "address",
							"name": "",
							"type": "address"
						}
					],
					"stateMutability": "view",
					"type": "function"
				},
				{
					"inputs": [
						{
							"internalType": "address",
							"name": "_nftAddr",
							"type": "address"
						},
						{
							"internalType": "uint256",
							"name": "_tokenId",
							"type": "uint256"
						},
						{
							"internalType": "uint256",
							"name": "_bid",
							"type": "uint256"
						}
					],
					"name": "tokensReceived",
					"outputs": [],
					"stateMutability": "nonpayable",
					"type": "function"
				},
				{
					"inputs": [
						{
							"internalType": "uint256",
							"name": "_value",
							"type": "uint256"
						}
					],
					"name": "withdrawBalance",
					"outputs": [],
					"stateMutability": "nonpayable",
					"type": "function"
				}
			],
			"devdoc": {
				"kind": "dev",
				"methods": {
					"onERC721Received(address,address,uint256,bytes)": {
						"details": "Whenever an {IERC721} `tokenId` token is transferred to this contract via {IERC721-safeTransferFrom} by `operator` from `from`, this function is called. It must return its Solidity selector to confirm the token transfer. If any other value is returned or the interface is not implemented by the recipient, the transfer will be reverted. The selector can be obtained in Solidity with `IERC721Receiver.onERC721Received.selector`."
					}
				},
				"version": 1
			},
			"evm": {
				"assembly": "    /* \"04-Camps/08-UpChain_Camp_3_OpenSpace/0116_NFTMarketWithTokenReceived/contracts/NFTMarket.sol\":296:4563  contract NFTMarket is IERC721Receiver {... */\n  mstore(0x40, 0xa0)\n    /* \"04-Camps/08-UpChain_Camp_3_OpenSpace/0116_NFTMarketWithTokenReceived/contracts/NFTMarket.sol\":929:1000  constructor(address _tokenAddr) {... */\n  callvalue\n  dup1\n  iszero\n  tag_1\n  jumpi\n  0x00\n  dup1\n  revert\ntag_1:\n  pop\n  mload(0x40)\n  sub(codesize, bytecodeSize)\n  dup1\n  bytecodeSize\n  dup4\n  codecopy\n  dup2\n  dup2\n  add\n  0x40\n  mstore\n  dup2\n  add\n  swap1\n  tag_2\n  swap2\n  swap1\n  tag_3\n  jump\t// in\ntag_2:\n    /* \"04-Camps/08-UpChain_Camp_3_OpenSpace/0116_NFTMarketWithTokenReceived/contracts/NFTMarket.sol\":983:993  _tokenAddr */\n  dup1\n    /* \"04-Camps/08-UpChain_Camp_3_OpenSpace/0116_NFTMarketWithTokenReceived/contracts/NFTMarket.sol\":971:993  tokenAddr = _tokenAddr */\n  0xffffffffffffffffffffffffffffffffffffffff\n  and\n  0x80\n  dup2\n  0xffffffffffffffffffffffffffffffffffffffff\n  and\n  dup2\n  mstore\n  pop\n  pop\n    /* \"04-Camps/08-UpChain_Camp_3_OpenSpace/0116_NFTMarketWithTokenReceived/contracts/NFTMarket.sol\":929:1000  constructor(address _tokenAddr) {... */\n  pop\n    /* \"04-Camps/08-UpChain_Camp_3_OpenSpace/0116_NFTMarketWithTokenReceived/contracts/NFTMarket.sol\":296:4563  contract NFTMarket is IERC721Receiver {... */\n  jump(tag_6)\n    /* \"#utility.yul\":88:205   */\ntag_8:\n    /* \"#utility.yul\":197:198   */\n  0x00\n    /* \"#utility.yul\":194:195   */\n  dup1\n    /* \"#utility.yul\":187:199   */\n  revert\n    /* \"#utility.yul\":334:460   */\ntag_10:\n    /* \"#utility.yul\":371:378   */\n  0x00\n    /* \"#utility.yul\":411:453   */\n  0xffffffffffffffffffffffffffffffffffffffff\n    /* \"#utility.yul\":404:409   */\n  dup3\n    /* \"#utility.yul\":400:454   */\n  and\n    /* \"#utility.yul\":389:454   */\n  swap1\n  pop\n    /* \"#utility.yul\":334:460   */\n  swap2\n  swap1\n  pop\n  jump\t// out\n    /* \"#utility.yul\":466:562   */\ntag_11:\n    /* \"#utility.yul\":503:510   */\n  0x00\n    /* \"#utility.yul\":532:556   */\n  tag_20\n    /* \"#utility.yul\":550:555   */\n  dup3\n    /* \"#utility.yul\":532:556   */\n  tag_10\n  jump\t// in\ntag_20:\n    /* \"#utility.yul\":521:556   */\n  swap1\n  pop\n    /* \"#utility.yul\":466:562   */\n  swap2\n  swap1\n  pop\n  jump\t// out\n    /* \"#utility.yul\":568:690   */\ntag_12:\n    /* \"#utility.yul\":641:665   */\n  tag_22\n    /* \"#utility.yul\":659:664   */\n  dup2\n    /* \"#utility.yul\":641:665   */\n  tag_11\n  jump\t// in\ntag_22:\n    /* \"#utility.yul\":634:639   */\n  dup2\n    /* \"#utility.yul\":631:666   */\n  eq\n    /* \"#utility.yul\":621:684   */\n  tag_23\n  jumpi\n    /* \"#utility.yul\":680:681   */\n  0x00\n    /* \"#utility.yul\":677:678   */\n  dup1\n    /* \"#utility.yul\":670:682   */\n  revert\n    /* \"#utility.yul\":621:684   */\ntag_23:\n    /* \"#utility.yul\":568:690   */\n  pop\n  jump\t// out\n    /* \"#utility.yul\":696:839   */\ntag_13:\n    /* \"#utility.yul\":753:758   */\n  0x00\n    /* \"#utility.yul\":784:790   */\n  dup2\n    /* \"#utility.yul\":778:791   */\n  mload\n    /* \"#utility.yul\":769:791   */\n  swap1\n  pop\n    /* \"#utility.yul\":800:833   */\n  tag_25\n    /* \"#utility.yul\":827:832   */\n  dup2\n    /* \"#utility.yul\":800:833   */\n  tag_12\n  jump\t// in\ntag_25:\n    /* \"#utility.yul\":696:839   */\n  swap3\n  swap2\n  pop\n  pop\n  jump\t// out\n    /* \"#utility.yul\":845:1196   */\ntag_3:\n    /* \"#utility.yul\":915:921   */\n  0x00\n    /* \"#utility.yul\":964:966   */\n  0x20\n    /* \"#utility.yul\":952:961   */\n  dup3\n    /* \"#utility.yul\":943:950   */\n  dup5\n    /* \"#utility.yul\":939:962   */\n  sub\n    /* \"#utility.yul\":935:967   */\n  slt\n    /* \"#utility.yul\":932:1051   */\n  iszero\n  tag_27\n  jumpi\n    /* \"#utility.yul\":970:1049   */\n  tag_28\n  tag_8\n  jump\t// in\ntag_28:\n    /* \"#utility.yul\":932:1051   */\ntag_27:\n    /* \"#utility.yul\":1090:1091   */\n  0x00\n    /* \"#utility.yul\":1115:1179   */\n  tag_29\n    /* \"#utility.yul\":1171:1178   */\n  dup5\n    /* \"#utility.yul\":1162:1168   */\n  dup3\n    /* \"#utility.yul\":1151:1160   */\n  dup6\n    /* \"#utility.yul\":1147:1169   */\n  add\n    /* \"#utility.yul\":1115:1179   */\n  tag_13\n  jump\t// in\ntag_29:\n    /* \"#utility.yul\":1105:1179   */\n  swap2\n  pop\n    /* \"#utility.yul\":1061:1189   */\n  pop\n    /* \"#utility.yul\":845:1196   */\n  swap3\n  swap2\n  pop\n  pop\n  jump\t// out\n    /* \"04-Camps/08-UpChain_Camp_3_OpenSpace/0116_NFTMarketWithTokenReceived/contracts/NFTMarket.sol\":296:4563  contract NFTMarket is IERC721Receiver {... */\ntag_6:\n  mload(0x80)\n  codecopy(0x00, dataOffset(sub_0), dataSize(sub_0))\n  0x00\n  assignImmutable(\"0x939eb54753ed0cc7e2272bfb34cbe098308c93936ed54d79078f76ade0b2e789\")\n  return(0x00, dataSize(sub_0))\nstop\n\nsub_0: assembly {\n        /* \"04-Camps/08-UpChain_Camp_3_OpenSpace/0116_NFTMarketWithTokenReceived/contracts/NFTMarket.sol\":296:4563  contract NFTMarket is IERC721Receiver {... */\n      mstore(0x40, 0x80)\n      callvalue\n      dup1\n      iszero\n      tag_1\n      jumpi\n      0x00\n      dup1\n      revert\n    tag_1:\n      pop\n      jumpi(tag_2, lt(calldatasize, 0x04))\n      shr(0xe0, calldataload(0x00))\n      dup1\n      0x5fbe4d1d\n      gt\n      tag_14\n      jumpi\n      dup1\n      0x5fbe4d1d\n      eq\n      tag_8\n      jumpi\n      dup1\n      0xa59ac6dd\n      eq\n      tag_9\n      jumpi\n      dup1\n      0xd7dac040\n      eq\n      tag_10\n      jumpi\n      dup1\n      0xda76d5cd\n      eq\n      tag_11\n      jumpi\n      dup1\n      0xdda342bb\n      eq\n      tag_12\n      jumpi\n      dup1\n      0xf074258e\n      eq\n      tag_13\n      jumpi\n      jump(tag_2)\n    tag_14:\n      dup1\n      0x0f9cb829\n      eq\n      tag_3\n      jumpi\n      dup1\n      0x12065fe0\n      eq\n      tag_4\n      jumpi\n      dup1\n      0x150b7a02\n      eq\n      tag_5\n      jumpi\n      dup1\n      0x2f634a90\n      eq\n      tag_6\n      jumpi\n      dup1\n      0x449e815d\n      eq\n      tag_7\n      jumpi\n    tag_2:\n      0x00\n      dup1\n      revert\n        /* \"04-Camps/08-UpChain_Camp_3_OpenSpace/0116_NFTMarketWithTokenReceived/contracts/NFTMarket.sol\":487:542  mapping(address => mapping(uint => bool)) public onSale */\n    tag_3:\n      tag_15\n      0x04\n      dup1\n      calldatasize\n      sub\n      dup2\n      add\n      swap1\n      tag_16\n      swap2\n      swap1\n      tag_17\n      jump\t// in\n    tag_16:\n      tag_18\n      jump\t// in\n    tag_15:\n      mload(0x40)\n      tag_19\n      swap2\n      swap1\n      tag_20\n      jump\t// in\n    tag_19:\n      mload(0x40)\n      dup1\n      swap2\n      sub\n      swap1\n      return\n        /* \"04-Camps/08-UpChain_Camp_3_OpenSpace/0116_NFTMarketWithTokenReceived/contracts/NFTMarket.sol\":4297:4391  function getBalance() external view returns (uint) {... */\n    tag_4:\n      tag_21\n      tag_22\n      jump\t// in\n    tag_21:\n      mload(0x40)\n      tag_23\n      swap2\n      swap1\n      tag_24\n      jump\t// in\n    tag_23:\n      mload(0x40)\n      dup1\n      swap2\n      sub\n      swap1\n      return\n        /* \"04-Camps/08-UpChain_Camp_3_OpenSpace/0116_NFTMarketWithTokenReceived/contracts/NFTMarket.sol\":1006:1229  function onERC721Received(... */\n    tag_5:\n      tag_25\n      0x04\n      dup1\n      calldatasize\n      sub\n      dup2\n      add\n      swap1\n      tag_26\n      swap2\n      swap1\n      tag_27\n      jump\t// in\n    tag_26:\n      tag_28\n      jump\t// in\n    tag_25:\n      mload(0x40)\n      tag_29\n      swap2\n      swap1\n      tag_30\n      jump\t// in\n    tag_29:\n      mload(0x40)\n      dup1\n      swap2\n      sub\n      swap1\n      return\n        /* \"04-Camps/08-UpChain_Camp_3_OpenSpace/0116_NFTMarketWithTokenReceived/contracts/NFTMarket.sol\":4397:4561  function getOwner(... */\n    tag_6:\n      tag_31\n      0x04\n      dup1\n      calldatasize\n      sub\n      dup2\n      add\n      swap1\n      tag_32\n      swap2\n      swap1\n      tag_17\n      jump\t// in\n    tag_32:\n      tag_33\n      jump\t// in\n    tag_31:\n      mload(0x40)\n      tag_34\n      swap2\n      swap1\n      tag_35\n      jump\t// in\n    tag_34:\n      mload(0x40)\n      dup1\n      swap2\n      sub\n      swap1\n      return\n        /* \"04-Camps/08-UpChain_Camp_3_OpenSpace/0116_NFTMarketWithTokenReceived/contracts/NFTMarket.sol\":4140:4291  function getPrice(... */\n    tag_7:\n      tag_36\n      0x04\n      dup1\n      calldatasize\n      sub\n      dup2\n      add\n      swap1\n      tag_37\n      swap2\n      swap1\n      tag_17\n      jump\t// in\n    tag_37:\n      tag_38\n      jump\t// in\n    tag_36:\n      mload(0x40)\n      tag_39\n      swap2\n      swap1\n      tag_24\n      jump\t// in\n    tag_39:\n      mload(0x40)\n      dup1\n      swap2\n      sub\n      swap1\n      return\n        /* \"04-Camps/08-UpChain_Camp_3_OpenSpace/0116_NFTMarketWithTokenReceived/contracts/NFTMarket.sol\":447:481  address public immutable tokenAddr */\n    tag_8:\n      tag_40\n      tag_41\n      jump\t// in\n    tag_40:\n      mload(0x40)\n      tag_42\n      swap2\n      swap1\n      tag_35\n      jump\t// in\n    tag_42:\n      mload(0x40)\n      dup1\n      swap2\n      sub\n      swap1\n      return\n        /* \"04-Camps/08-UpChain_Camp_3_OpenSpace/0116_NFTMarketWithTokenReceived/contracts/NFTMarket.sol\":2855:2971  function buy(address _nftAddr, uint _tokenId, uint _bid) external {... */\n    tag_9:\n      tag_43\n      0x04\n      dup1\n      calldatasize\n      sub\n      dup2\n      add\n      swap1\n      tag_44\n      swap2\n      swap1\n      tag_45\n      jump\t// in\n    tag_44:\n      tag_46\n      jump\t// in\n    tag_43:\n      stop\n        /* \"04-Camps/08-UpChain_Camp_3_OpenSpace/0116_NFTMarketWithTokenReceived/contracts/NFTMarket.sol\":1235:1392  function tokensReceived(... */\n    tag_10:\n      tag_47\n      0x04\n      dup1\n      calldatasize\n      sub\n      dup2\n      add\n      swap1\n      tag_48\n      swap2\n      swap1\n      tag_45\n      jump\t// in\n    tag_48:\n      tag_49\n      jump\t// in\n    tag_47:\n      stop\n        /* \"04-Camps/08-UpChain_Camp_3_OpenSpace/0116_NFTMarketWithTokenReceived/contracts/NFTMarket.sol\":2977:3305  function withdrawBalance(uint _value) external {... */\n    tag_11:\n      tag_50\n      0x04\n      dup1\n      calldatasize\n      sub\n      dup2\n      add\n      swap1\n      tag_51\n      swap2\n      swap1\n      tag_52\n      jump\t// in\n    tag_51:\n      tag_53\n      jump\t// in\n    tag_50:\n      stop\n        /* \"04-Camps/08-UpChain_Camp_3_OpenSpace/0116_NFTMarketWithTokenReceived/contracts/NFTMarket.sol\":1510:2147  function list(address _nftAddr, uint _tokenId, uint _price) external {... */\n    tag_12:\n      tag_54\n      0x04\n      dup1\n      calldatasize\n      sub\n      dup2\n      add\n      swap1\n      tag_55\n      swap2\n      swap1\n      tag_45\n      jump\t// in\n    tag_55:\n      tag_56\n      jump\t// in\n    tag_54:\n      stop\n        /* \"04-Camps/08-UpChain_Camp_3_OpenSpace/0116_NFTMarketWithTokenReceived/contracts/NFTMarket.sol\":2153:2759  function delist(address _nftAddr, uint256 _tokenId) external {... */\n    tag_13:\n      tag_57\n      0x04\n      dup1\n      calldatasize\n      sub\n      dup2\n      add\n      swap1\n      tag_58\n      swap2\n      swap1\n      tag_17\n      jump\t// in\n    tag_58:\n      tag_59\n      jump\t// in\n    tag_57:\n      stop\n        /* \"04-Camps/08-UpChain_Camp_3_OpenSpace/0116_NFTMarketWithTokenReceived/contracts/NFTMarket.sol\":487:542  mapping(address => mapping(uint => bool)) public onSale */\n    tag_18:\n      mstore(0x20, 0x02)\n      dup2\n      0x00\n      mstore\n      mstore(0x20, keccak256(0x00, 0x40))\n      dup1\n      0x00\n      mstore\n      keccak256(0x00, 0x40)\n      0x00\n      swap2\n      pop\n      swap2\n      pop\n      swap1\n      sload\n      swap1\n      0x0100\n      exp\n      swap1\n      div\n      0xff\n      and\n      dup2\n      jump\t// out\n        /* \"04-Camps/08-UpChain_Camp_3_OpenSpace/0116_NFTMarketWithTokenReceived/contracts/NFTMarket.sol\":4297:4391  function getBalance() external view returns (uint) {... */\n    tag_22:\n        /* \"04-Camps/08-UpChain_Camp_3_OpenSpace/0116_NFTMarketWithTokenReceived/contracts/NFTMarket.sol\":4342:4346  uint */\n      0x00\n        /* \"04-Camps/08-UpChain_Camp_3_OpenSpace/0116_NFTMarketWithTokenReceived/contracts/NFTMarket.sol\":4365:4372  balance */\n      0x01\n        /* \"04-Camps/08-UpChain_Camp_3_OpenSpace/0116_NFTMarketWithTokenReceived/contracts/NFTMarket.sol\":4365:4384  balance[msg.sender] */\n      0x00\n        /* \"04-Camps/08-UpChain_Camp_3_OpenSpace/0116_NFTMarketWithTokenReceived/contracts/NFTMarket.sol\":4373:4383  msg.sender */\n      caller\n        /* \"04-Camps/08-UpChain_Camp_3_OpenSpace/0116_NFTMarketWithTokenReceived/contracts/NFTMarket.sol\":4365:4384  balance[msg.sender] */\n      0xffffffffffffffffffffffffffffffffffffffff\n      and\n      0xffffffffffffffffffffffffffffffffffffffff\n      and\n      dup2\n      mstore\n      0x20\n      add\n      swap1\n      dup2\n      mstore\n      0x20\n      add\n      0x00\n      keccak256\n      sload\n        /* \"04-Camps/08-UpChain_Camp_3_OpenSpace/0116_NFTMarketWithTokenReceived/contracts/NFTMarket.sol\":4358:4384  return balance[msg.sender] */\n      swap1\n      pop\n        /* \"04-Camps/08-UpChain_Camp_3_OpenSpace/0116_NFTMarketWithTokenReceived/contracts/NFTMarket.sol\":4297:4391  function getBalance() external view returns (uint) {... */\n      swap1\n      jump\t// out\n        /* \"04-Camps/08-UpChain_Camp_3_OpenSpace/0116_NFTMarketWithTokenReceived/contracts/NFTMarket.sol\":1006:1229  function onERC721Received(... */\n    tag_28:\n        /* \"04-Camps/08-UpChain_Camp_3_OpenSpace/0116_NFTMarketWithTokenReceived/contracts/NFTMarket.sol\":1167:1173  bytes4 */\n      0x00\n        /* \"04-Camps/08-UpChain_Camp_3_OpenSpace/0116_NFTMarketWithTokenReceived/contracts/NFTMarket.sol\":1192:1222  this.onERC721Received.selector */\n      shl(0xe0, 0x150b7a02)\n        /* \"04-Camps/08-UpChain_Camp_3_OpenSpace/0116_NFTMarketWithTokenReceived/contracts/NFTMarket.sol\":1185:1222  return this.onERC721Received.selector */\n      swap1\n      pop\n        /* \"04-Camps/08-UpChain_Camp_3_OpenSpace/0116_NFTMarketWithTokenReceived/contracts/NFTMarket.sol\":1006:1229  function onERC721Received(... */\n      swap6\n      swap5\n      pop\n      pop\n      pop\n      pop\n      pop\n      jump\t// out\n        /* \"04-Camps/08-UpChain_Camp_3_OpenSpace/0116_NFTMarketWithTokenReceived/contracts/NFTMarket.sol\":4397:4561  function getOwner(... */\n    tag_33:\n        /* \"04-Camps/08-UpChain_Camp_3_OpenSpace/0116_NFTMarketWithTokenReceived/contracts/NFTMarket.sol\":4493:4500  address */\n      0x00\n        /* \"04-Camps/08-UpChain_Camp_3_OpenSpace/0116_NFTMarketWithTokenReceived/contracts/NFTMarket.sol\":4527:4535  _nftAddr */\n      dup3\n        /* \"04-Camps/08-UpChain_Camp_3_OpenSpace/0116_NFTMarketWithTokenReceived/contracts/NFTMarket.sol\":4519:4544  IERC721(_nftAddr).ownerOf */\n      0xffffffffffffffffffffffffffffffffffffffff\n      and\n      0x6352211e\n        /* \"04-Camps/08-UpChain_Camp_3_OpenSpace/0116_NFTMarketWithTokenReceived/contracts/NFTMarket.sol\":4545:4553  _tokenId */\n      dup4\n        /* \"04-Camps/08-UpChain_Camp_3_OpenSpace/0116_NFTMarketWithTokenReceived/contracts/NFTMarket.sol\":4519:4554  IERC721(_nftAddr).ownerOf(_tokenId) */\n      mload(0x40)\n      dup3\n      0xffffffff\n      and\n      0xe0\n      shl\n      dup2\n      mstore\n      0x04\n      add\n      tag_63\n      swap2\n      swap1\n      tag_24\n      jump\t// in\n    tag_63:\n      0x20\n      mload(0x40)\n      dup1\n      dup4\n      sub\n      dup2\n      dup7\n      gas\n      staticcall\n      iszero\n      dup1\n      iszero\n      tag_65\n      jumpi\n      returndatasize\n      0x00\n      dup1\n      returndatacopy\n      revert(0x00, returndatasize)\n    tag_65:\n      pop\n      pop\n      pop\n      pop\n      mload(0x40)\n      returndatasize\n      not(0x1f)\n      0x1f\n      dup3\n      add\n      and\n      dup3\n      add\n      dup1\n      0x40\n      mstore\n      pop\n      dup2\n      add\n      swap1\n      tag_66\n      swap2\n      swap1\n      tag_67\n      jump\t// in\n    tag_66:\n        /* \"04-Camps/08-UpChain_Camp_3_OpenSpace/0116_NFTMarketWithTokenReceived/contracts/NFTMarket.sol\":4512:4554  return IERC721(_nftAddr).ownerOf(_tokenId) */\n      swap1\n      pop\n        /* \"04-Camps/08-UpChain_Camp_3_OpenSpace/0116_NFTMarketWithTokenReceived/contracts/NFTMarket.sol\":4397:4561  function getOwner(... */\n      swap3\n      swap2\n      pop\n      pop\n      jump\t// out\n        /* \"04-Camps/08-UpChain_Camp_3_OpenSpace/0116_NFTMarketWithTokenReceived/contracts/NFTMarket.sol\":4140:4291  function getPrice(... */\n    tag_38:\n        /* \"04-Camps/08-UpChain_Camp_3_OpenSpace/0116_NFTMarketWithTokenReceived/contracts/NFTMarket.sol\":4236:4240  uint */\n      0x00\n        /* \"04-Camps/08-UpChain_Camp_3_OpenSpace/0116_NFTMarketWithTokenReceived/contracts/NFTMarket.sol\":4259:4264  price */\n      dup1\n        /* \"04-Camps/08-UpChain_Camp_3_OpenSpace/0116_NFTMarketWithTokenReceived/contracts/NFTMarket.sol\":4259:4274  price[_nftAddr] */\n      0x00\n        /* \"04-Camps/08-UpChain_Camp_3_OpenSpace/0116_NFTMarketWithTokenReceived/contracts/NFTMarket.sol\":4265:4273  _nftAddr */\n      dup5\n        /* \"04-Camps/08-UpChain_Camp_3_OpenSpace/0116_NFTMarketWithTokenReceived/contracts/NFTMarket.sol\":4259:4274  price[_nftAddr] */\n      0xffffffffffffffffffffffffffffffffffffffff\n      and\n      0xffffffffffffffffffffffffffffffffffffffff\n      and\n      dup2\n      mstore\n      0x20\n      add\n      swap1\n      dup2\n      mstore\n      0x20\n      add\n      0x00\n      keccak256\n        /* \"04-Camps/08-UpChain_Camp_3_OpenSpace/0116_NFTMarketWithTokenReceived/contracts/NFTMarket.sol\":4259:4284  price[_nftAddr][_tokenId] */\n      0x00\n        /* \"04-Camps/08-UpChain_Camp_3_OpenSpace/0116_NFTMarketWithTokenReceived/contracts/NFTMarket.sol\":4275:4283  _tokenId */\n      dup4\n        /* \"04-Camps/08-UpChain_Camp_3_OpenSpace/0116_NFTMarketWithTokenReceived/contracts/NFTMarket.sol\":4259:4284  price[_nftAddr][_tokenId] */\n      dup2\n      mstore\n      0x20\n      add\n      swap1\n      dup2\n      mstore\n      0x20\n      add\n      0x00\n      keccak256\n      sload\n        /* \"04-Camps/08-UpChain_Camp_3_OpenSpace/0116_NFTMarketWithTokenReceived/contracts/NFTMarket.sol\":4252:4284  return price[_nftAddr][_tokenId] */\n      swap1\n      pop\n        /* \"04-Camps/08-UpChain_Camp_3_OpenSpace/0116_NFTMarketWithTokenReceived/contracts/NFTMarket.sol\":4140:4291  function getPrice(... */\n      swap3\n      swap2\n      pop\n      pop\n      jump\t// out\n        /* \"04-Camps/08-UpChain_Camp_3_OpenSpace/0116_NFTMarketWithTokenReceived/contracts/NFTMarket.sol\":447:481  address public immutable tokenAddr */\n    tag_41:\n      immutable(\"0x939eb54753ed0cc7e2272bfb34cbe098308c93936ed54d79078f76ade0b2e789\")\n      dup2\n      jump\t// out\n        /* \"04-Camps/08-UpChain_Camp_3_OpenSpace/0116_NFTMarketWithTokenReceived/contracts/NFTMarket.sol\":2855:2971  function buy(address _nftAddr, uint _tokenId, uint _bid) external {... */\n    tag_46:\n        /* \"04-Camps/08-UpChain_Camp_3_OpenSpace/0116_NFTMarketWithTokenReceived/contracts/NFTMarket.sol\":2931:2964  _buyNFT(_nftAddr, _tokenId, _bid) */\n      tag_70\n        /* \"04-Camps/08-UpChain_Camp_3_OpenSpace/0116_NFTMarketWithTokenReceived/contracts/NFTMarket.sol\":2939:2947  _nftAddr */\n      dup4\n        /* \"04-Camps/08-UpChain_Camp_3_OpenSpace/0116_NFTMarketWithTokenReceived/contracts/NFTMarket.sol\":2949:2957  _tokenId */\n      dup4\n        /* \"04-Camps/08-UpChain_Camp_3_OpenSpace/0116_NFTMarketWithTokenReceived/contracts/NFTMarket.sol\":2959:2963  _bid */\n      dup4\n        /* \"04-Camps/08-UpChain_Camp_3_OpenSpace/0116_NFTMarketWithTokenReceived/contracts/NFTMarket.sol\":2931:2938  _buyNFT */\n      tag_71\n        /* \"04-Camps/08-UpChain_Camp_3_OpenSpace/0116_NFTMarketWithTokenReceived/contracts/NFTMarket.sol\":2931:2964  _buyNFT(_nftAddr, _tokenId, _bid) */\n      jump\t// in\n    tag_70:\n        /* \"04-Camps/08-UpChain_Camp_3_OpenSpace/0116_NFTMarketWithTokenReceived/contracts/NFTMarket.sol\":2855:2971  function buy(address _nftAddr, uint _tokenId, uint _bid) external {... */\n      pop\n      pop\n      pop\n      jump\t// out\n        /* \"04-Camps/08-UpChain_Camp_3_OpenSpace/0116_NFTMarketWithTokenReceived/contracts/NFTMarket.sol\":1235:1392  function tokensReceived(... */\n    tag_49:\n        /* \"04-Camps/08-UpChain_Camp_3_OpenSpace/0116_NFTMarketWithTokenReceived/contracts/NFTMarket.sol\":1352:1385  _buyNFT(_nftAddr, _tokenId, _bid) */\n      tag_73\n        /* \"04-Camps/08-UpChain_Camp_3_OpenSpace/0116_NFTMarketWithTokenReceived/contracts/NFTMarket.sol\":1360:1368  _nftAddr */\n      dup4\n        /* \"04-Camps/08-UpChain_Camp_3_OpenSpace/0116_NFTMarketWithTokenReceived/contracts/NFTMarket.sol\":1370:1378  _tokenId */\n      dup4\n        /* \"04-Camps/08-UpChain_Camp_3_OpenSpace/0116_NFTMarketWithTokenReceived/contracts/NFTMarket.sol\":1380:1384  _bid */\n      dup4\n        /* \"04-Camps/08-UpChain_Camp_3_OpenSpace/0116_NFTMarketWithTokenReceived/contracts/NFTMarket.sol\":1352:1359  _buyNFT */\n      tag_71\n        /* \"04-Camps/08-UpChain_Camp_3_OpenSpace/0116_NFTMarketWithTokenReceived/contracts/NFTMarket.sol\":1352:1385  _buyNFT(_nftAddr, _tokenId, _bid) */\n      jump\t// in\n    tag_73:\n        /* \"04-Camps/08-UpChain_Camp_3_OpenSpace/0116_NFTMarketWithTokenReceived/contracts/NFTMarket.sol\":1235:1392  function tokensReceived(... */\n      pop\n      pop\n      pop\n      jump\t// out\n        /* \"04-Camps/08-UpChain_Camp_3_OpenSpace/0116_NFTMarketWithTokenReceived/contracts/NFTMarket.sol\":2977:3305  function withdrawBalance(uint _value) external {... */\n    tag_53:\n        /* \"04-Camps/08-UpChain_Camp_3_OpenSpace/0116_NFTMarketWithTokenReceived/contracts/NFTMarket.sol\":3047:3054  balance */\n      0x01\n        /* \"04-Camps/08-UpChain_Camp_3_OpenSpace/0116_NFTMarketWithTokenReceived/contracts/NFTMarket.sol\":3047:3066  balance[msg.sender] */\n      0x00\n        /* \"04-Camps/08-UpChain_Camp_3_OpenSpace/0116_NFTMarketWithTokenReceived/contracts/NFTMarket.sol\":3055:3065  msg.sender */\n      caller\n        /* \"04-Camps/08-UpChain_Camp_3_OpenSpace/0116_NFTMarketWithTokenReceived/contracts/NFTMarket.sol\":3047:3066  balance[msg.sender] */\n      0xffffffffffffffffffffffffffffffffffffffff\n      and\n      0xffffffffffffffffffffffffffffffffffffffff\n      and\n      dup2\n      mstore\n      0x20\n      add\n      swap1\n      dup2\n      mstore\n      0x20\n      add\n      0x00\n      keccak256\n      sload\n        /* \"04-Camps/08-UpChain_Camp_3_OpenSpace/0116_NFTMarketWithTokenReceived/contracts/NFTMarket.sol\":3038:3044  _value */\n      dup2\n        /* \"04-Camps/08-UpChain_Camp_3_OpenSpace/0116_NFTMarketWithTokenReceived/contracts/NFTMarket.sol\":3038:3066  _value > balance[msg.sender] */\n      gt\n        /* \"04-Camps/08-UpChain_Camp_3_OpenSpace/0116_NFTMarketWithTokenReceived/contracts/NFTMarket.sol\":3034:3139  if (_value > balance[msg.sender])... */\n      iszero\n      tag_75\n      jumpi\n        /* \"04-Camps/08-UpChain_Camp_3_OpenSpace/0116_NFTMarketWithTokenReceived/contracts/NFTMarket.sol\":3111:3117  _value */\n      dup1\n        /* \"04-Camps/08-UpChain_Camp_3_OpenSpace/0116_NFTMarketWithTokenReceived/contracts/NFTMarket.sol\":3119:3126  balance */\n      0x01\n        /* \"04-Camps/08-UpChain_Camp_3_OpenSpace/0116_NFTMarketWithTokenReceived/contracts/NFTMarket.sol\":3119:3138  balance[msg.sender] */\n      0x00\n        /* \"04-Camps/08-UpChain_Camp_3_OpenSpace/0116_NFTMarketWithTokenReceived/contracts/NFTMarket.sol\":3127:3137  msg.sender */\n      caller\n        /* \"04-Camps/08-UpChain_Camp_3_OpenSpace/0116_NFTMarketWithTokenReceived/contracts/NFTMarket.sol\":3119:3138  balance[msg.sender] */\n      0xffffffffffffffffffffffffffffffffffffffff\n      and\n      0xffffffffffffffffffffffffffffffffffffffff\n      and\n      dup2\n      mstore\n      0x20\n      add\n      swap1\n      dup2\n      mstore\n      0x20\n      add\n      0x00\n      keccak256\n      sload\n        /* \"04-Camps/08-UpChain_Camp_3_OpenSpace/0116_NFTMarketWithTokenReceived/contracts/NFTMarket.sol\":3087:3139  withdrawalExceedBalance(_value, balance[msg.sender]) */\n      mload(0x40)\n      0x1e6b7c1d00000000000000000000000000000000000000000000000000000000\n      dup2\n      mstore\n      0x04\n      add\n      tag_76\n      swap3\n      swap2\n      swap1\n      tag_77\n      jump\t// in\n    tag_76:\n      mload(0x40)\n      dup1\n      swap2\n      sub\n      swap1\n      revert\n        /* \"04-Camps/08-UpChain_Camp_3_OpenSpace/0116_NFTMarketWithTokenReceived/contracts/NFTMarket.sol\":3034:3139  if (_value > balance[msg.sender])... */\n    tag_75:\n        /* \"04-Camps/08-UpChain_Camp_3_OpenSpace/0116_NFTMarketWithTokenReceived/contracts/NFTMarket.sol\":3149:3162  bool _success */\n      0x00\n        /* \"04-Camps/08-UpChain_Camp_3_OpenSpace/0116_NFTMarketWithTokenReceived/contracts/NFTMarket.sol\":3172:3181  tokenAddr */\n      immutable(\"0x939eb54753ed0cc7e2272bfb34cbe098308c93936ed54d79078f76ade0b2e789\")\n        /* \"04-Camps/08-UpChain_Camp_3_OpenSpace/0116_NFTMarketWithTokenReceived/contracts/NFTMarket.sol\":3165:3191  IERC20(tokenAddr).transfer */\n      0xffffffffffffffffffffffffffffffffffffffff\n      and\n      0xa9059cbb\n        /* \"04-Camps/08-UpChain_Camp_3_OpenSpace/0116_NFTMarketWithTokenReceived/contracts/NFTMarket.sol\":3192:3202  msg.sender */\n      caller\n        /* \"04-Camps/08-UpChain_Camp_3_OpenSpace/0116_NFTMarketWithTokenReceived/contracts/NFTMarket.sol\":3204:3210  _value */\n      dup5\n        /* \"04-Camps/08-UpChain_Camp_3_OpenSpace/0116_NFTMarketWithTokenReceived/contracts/NFTMarket.sol\":3165:3211  IERC20(tokenAddr).transfer(msg.sender, _value) */\n      mload(0x40)\n      dup4\n      0xffffffff\n      and\n      0xe0\n      shl\n      dup2\n      mstore\n      0x04\n      add\n      tag_78\n      swap3\n      swap2\n      swap1\n      tag_79\n      jump\t// in\n    tag_78:\n      0x20\n      mload(0x40)\n      dup1\n      dup4\n      sub\n      dup2\n      0x00\n      dup8\n      gas\n      call\n      iszero\n      dup1\n      iszero\n      tag_81\n      jumpi\n      returndatasize\n      0x00\n      dup1\n      returndatacopy\n      revert(0x00, returndatasize)\n    tag_81:\n      pop\n      pop\n      pop\n      pop\n      mload(0x40)\n      returndatasize\n      not(0x1f)\n      0x1f\n      dup3\n      add\n      and\n      dup3\n      add\n      dup1\n      0x40\n      mstore\n      pop\n      dup2\n      add\n      swap1\n      tag_82\n      swap2\n      swap1\n      tag_83\n      jump\t// in\n    tag_82:\n        /* \"04-Camps/08-UpChain_Camp_3_OpenSpace/0116_NFTMarketWithTokenReceived/contracts/NFTMarket.sol\":3149:3211  bool _success = IERC20(tokenAddr).transfer(msg.sender, _value) */\n      swap1\n      pop\n        /* \"04-Camps/08-UpChain_Camp_3_OpenSpace/0116_NFTMarketWithTokenReceived/contracts/NFTMarket.sol\":3229:3237  _success */\n      dup1\n        /* \"04-Camps/08-UpChain_Camp_3_OpenSpace/0116_NFTMarketWithTokenReceived/contracts/NFTMarket.sol\":3221:3259  require(_success, \"withdrawal failed\") */\n      tag_84\n      jumpi\n      mload(0x40)\n      0x08c379a000000000000000000000000000000000000000000000000000000000\n      dup2\n      mstore\n      0x04\n      add\n      tag_85\n      swap1\n      tag_86\n      jump\t// in\n    tag_85:\n      mload(0x40)\n      dup1\n      swap2\n      sub\n      swap1\n      revert\n    tag_84:\n        /* \"04-Camps/08-UpChain_Camp_3_OpenSpace/0116_NFTMarketWithTokenReceived/contracts/NFTMarket.sol\":3292:3298  _value */\n      dup2\n        /* \"04-Camps/08-UpChain_Camp_3_OpenSpace/0116_NFTMarketWithTokenReceived/contracts/NFTMarket.sol\":3269:3276  balance */\n      0x01\n        /* \"04-Camps/08-UpChain_Camp_3_OpenSpace/0116_NFTMarketWithTokenReceived/contracts/NFTMarket.sol\":3269:3288  balance[msg.sender] */\n      0x00\n        /* \"04-Camps/08-UpChain_Camp_3_OpenSpace/0116_NFTMarketWithTokenReceived/contracts/NFTMarket.sol\":3277:3287  msg.sender */\n      caller\n        /* \"04-Camps/08-UpChain_Camp_3_OpenSpace/0116_NFTMarketWithTokenReceived/contracts/NFTMarket.sol\":3269:3288  balance[msg.sender] */\n      0xffffffffffffffffffffffffffffffffffffffff\n      and\n      0xffffffffffffffffffffffffffffffffffffffff\n      and\n      dup2\n      mstore\n      0x20\n      add\n      swap1\n      dup2\n      mstore\n      0x20\n      add\n      0x00\n      keccak256\n      0x00\n        /* \"04-Camps/08-UpChain_Camp_3_OpenSpace/0116_NFTMarketWithTokenReceived/contracts/NFTMarket.sol\":3269:3298  balance[msg.sender] -= _value */\n      dup3\n      dup3\n      sload\n      tag_87\n      swap2\n      swap1\n      tag_88\n      jump\t// in\n    tag_87:\n      swap3\n      pop\n      pop\n      dup2\n      swap1\n      sstore\n      pop\n        /* \"04-Camps/08-UpChain_Camp_3_OpenSpace/0116_NFTMarketWithTokenReceived/contracts/NFTMarket.sol\":3024:3305  {... */\n      pop\n        /* \"04-Camps/08-UpChain_Camp_3_OpenSpace/0116_NFTMarketWithTokenReceived/contracts/NFTMarket.sol\":2977:3305  function withdrawBalance(uint _value) external {... */\n      pop\n      jump\t// out\n        /* \"04-Camps/08-UpChain_Camp_3_OpenSpace/0116_NFTMarketWithTokenReceived/contracts/NFTMarket.sol\":1510:2147  function list(address _nftAddr, uint _tokenId, uint _price) external {... */\n    tag_56:\n        /* \"04-Camps/08-UpChain_Camp_3_OpenSpace/0116_NFTMarketWithTokenReceived/contracts/NFTMarket.sol\":1615:1623  _nftAddr */\n      dup3\n        /* \"04-Camps/08-UpChain_Camp_3_OpenSpace/0116_NFTMarketWithTokenReceived/contracts/NFTMarket.sol\":1607:1632  IERC721(_nftAddr).ownerOf */\n      0xffffffffffffffffffffffffffffffffffffffff\n      and\n      0x6352211e\n        /* \"04-Camps/08-UpChain_Camp_3_OpenSpace/0116_NFTMarketWithTokenReceived/contracts/NFTMarket.sol\":1633:1641  _tokenId */\n      dup4\n        /* \"04-Camps/08-UpChain_Camp_3_OpenSpace/0116_NFTMarketWithTokenReceived/contracts/NFTMarket.sol\":1607:1642  IERC721(_nftAddr).ownerOf(_tokenId) */\n      mload(0x40)\n      dup3\n      0xffffffff\n      and\n      0xe0\n      shl\n      dup2\n      mstore\n      0x04\n      add\n      tag_90\n      swap2\n      swap1\n      tag_24\n      jump\t// in\n    tag_90:\n      0x20\n      mload(0x40)\n      dup1\n      dup4\n      sub\n      dup2\n      dup7\n      gas\n      staticcall\n      iszero\n      dup1\n      iszero\n      tag_92\n      jumpi\n      returndatasize\n      0x00\n      dup1\n      returndatacopy\n      revert(0x00, returndatasize)\n    tag_92:\n      pop\n      pop\n      pop\n      pop\n      mload(0x40)\n      returndatasize\n      not(0x1f)\n      0x1f\n      dup3\n      add\n      and\n      dup3\n      add\n      dup1\n      0x40\n      mstore\n      pop\n      dup2\n      add\n      swap1\n      tag_93\n      swap2\n      swap1\n      tag_67\n      jump\t// in\n    tag_93:\n        /* \"04-Camps/08-UpChain_Camp_3_OpenSpace/0116_NFTMarketWithTokenReceived/contracts/NFTMarket.sol\":1593:1642  msg.sender != IERC721(_nftAddr).ownerOf(_tokenId) */\n      0xffffffffffffffffffffffffffffffffffffffff\n      and\n        /* \"04-Camps/08-UpChain_Camp_3_OpenSpace/0116_NFTMarketWithTokenReceived/contracts/NFTMarket.sol\":1593:1603  msg.sender */\n      caller\n        /* \"04-Camps/08-UpChain_Camp_3_OpenSpace/0116_NFTMarketWithTokenReceived/contracts/NFTMarket.sol\":1593:1642  msg.sender != IERC721(_nftAddr).ownerOf(_tokenId) */\n      0xffffffffffffffffffffffffffffffffffffffff\n      and\n      eq\n        /* \"04-Camps/08-UpChain_Camp_3_OpenSpace/0116_NFTMarketWithTokenReceived/contracts/NFTMarket.sol\":1589:1673  if (msg.sender != IERC721(_nftAddr).ownerOf(_tokenId))... */\n      tag_94\n      jumpi\n        /* \"04-Camps/08-UpChain_Camp_3_OpenSpace/0116_NFTMarketWithTokenReceived/contracts/NFTMarket.sol\":1663:1673  NotOwner() */\n      mload(0x40)\n      0x30cd747100000000000000000000000000000000000000000000000000000000\n      dup2\n      mstore\n      0x04\n      add\n      mload(0x40)\n      dup1\n      swap2\n      sub\n      swap1\n      revert\n        /* \"04-Camps/08-UpChain_Camp_3_OpenSpace/0116_NFTMarketWithTokenReceived/contracts/NFTMarket.sol\":1589:1673  if (msg.sender != IERC721(_nftAddr).ownerOf(_tokenId))... */\n    tag_94:\n        /* \"04-Camps/08-UpChain_Camp_3_OpenSpace/0116_NFTMarketWithTokenReceived/contracts/NFTMarket.sol\":1697:1698  0 */\n      0x00\n        /* \"04-Camps/08-UpChain_Camp_3_OpenSpace/0116_NFTMarketWithTokenReceived/contracts/NFTMarket.sol\":1687:1693  _price */\n      dup2\n        /* \"04-Camps/08-UpChain_Camp_3_OpenSpace/0116_NFTMarketWithTokenReceived/contracts/NFTMarket.sol\":1687:1698  _price == 0 */\n      sub\n        /* \"04-Camps/08-UpChain_Camp_3_OpenSpace/0116_NFTMarketWithTokenReceived/contracts/NFTMarket.sol\":1683:1718  if (_price == 0) revert ZeroPrice() */\n      tag_95\n      jumpi\n        /* \"04-Camps/08-UpChain_Camp_3_OpenSpace/0116_NFTMarketWithTokenReceived/contracts/NFTMarket.sol\":1707:1718  ZeroPrice() */\n      mload(0x40)\n      0x4dfba02300000000000000000000000000000000000000000000000000000000\n      dup2\n      mstore\n      0x04\n      add\n      mload(0x40)\n      dup1\n      swap2\n      sub\n      swap1\n      revert\n        /* \"04-Camps/08-UpChain_Camp_3_OpenSpace/0116_NFTMarketWithTokenReceived/contracts/NFTMarket.sol\":1683:1718  if (_price == 0) revert ZeroPrice() */\n    tag_95:\n        /* \"04-Camps/08-UpChain_Camp_3_OpenSpace/0116_NFTMarketWithTokenReceived/contracts/NFTMarket.sol\":1779:1784  false */\n      0x00\n        /* \"04-Camps/08-UpChain_Camp_3_OpenSpace/0116_NFTMarketWithTokenReceived/contracts/NFTMarket.sol\":1749:1784  onSale[_nftAddr][_tokenId] == false */\n      iszero\n      iszero\n        /* \"04-Camps/08-UpChain_Camp_3_OpenSpace/0116_NFTMarketWithTokenReceived/contracts/NFTMarket.sol\":1749:1755  onSale */\n      0x02\n        /* \"04-Camps/08-UpChain_Camp_3_OpenSpace/0116_NFTMarketWithTokenReceived/contracts/NFTMarket.sol\":1749:1765  onSale[_nftAddr] */\n      0x00\n        /* \"04-Camps/08-UpChain_Camp_3_OpenSpace/0116_NFTMarketWithTokenReceived/contracts/NFTMarket.sol\":1756:1764  _nftAddr */\n      dup6\n        /* \"04-Camps/08-UpChain_Camp_3_OpenSpace/0116_NFTMarketWithTokenReceived/contracts/NFTMarket.sol\":1749:1765  onSale[_nftAddr] */\n      0xffffffffffffffffffffffffffffffffffffffff\n      and\n      0xffffffffffffffffffffffffffffffffffffffff\n      and\n      dup2\n      mstore\n      0x20\n      add\n      swap1\n      dup2\n      mstore\n      0x20\n      add\n      0x00\n      keccak256\n        /* \"04-Camps/08-UpChain_Camp_3_OpenSpace/0116_NFTMarketWithTokenReceived/contracts/NFTMarket.sol\":1749:1775  onSale[_nftAddr][_tokenId] */\n      0x00\n        /* \"04-Camps/08-UpChain_Camp_3_OpenSpace/0116_NFTMarketWithTokenReceived/contracts/NFTMarket.sol\":1766:1774  _tokenId */\n      dup5\n        /* \"04-Camps/08-UpChain_Camp_3_OpenSpace/0116_NFTMarketWithTokenReceived/contracts/NFTMarket.sol\":1749:1775  onSale[_nftAddr][_tokenId] */\n      dup2\n      mstore\n      0x20\n      add\n      swap1\n      dup2\n      mstore\n      0x20\n      add\n      0x00\n      keccak256\n      0x00\n      swap1\n      sload\n      swap1\n      0x0100\n      exp\n      swap1\n      div\n      0xff\n      and\n        /* \"04-Camps/08-UpChain_Camp_3_OpenSpace/0116_NFTMarketWithTokenReceived/contracts/NFTMarket.sol\":1749:1784  onSale[_nftAddr][_tokenId] == false */\n      iszero\n      iszero\n      eq\n        /* \"04-Camps/08-UpChain_Camp_3_OpenSpace/0116_NFTMarketWithTokenReceived/contracts/NFTMarket.sol\":1728:1836  require(... */\n      tag_96\n      jumpi\n      mload(0x40)\n      0x08c379a000000000000000000000000000000000000000000000000000000000\n      dup2\n      mstore\n      0x04\n      add\n      tag_97\n      swap1\n      tag_98\n      jump\t// in\n    tag_97:\n      mload(0x40)\n      dup1\n      swap2\n      sub\n      swap1\n      revert\n    tag_96:\n        /* \"04-Camps/08-UpChain_Camp_3_OpenSpace/0116_NFTMarketWithTokenReceived/contracts/NFTMarket.sol\":1854:1862  _nftAddr */\n      dup3\n        /* \"04-Camps/08-UpChain_Camp_3_OpenSpace/0116_NFTMarketWithTokenReceived/contracts/NFTMarket.sol\":1846:1880  IERC721(_nftAddr).safeTransferFrom */\n      0xffffffffffffffffffffffffffffffffffffffff\n      and\n      0xb88d4fde\n        /* \"04-Camps/08-UpChain_Camp_3_OpenSpace/0116_NFTMarketWithTokenReceived/contracts/NFTMarket.sol\":1894:1904  msg.sender */\n      caller\n        /* \"04-Camps/08-UpChain_Camp_3_OpenSpace/0116_NFTMarketWithTokenReceived/contracts/NFTMarket.sol\":1926:1930  this */\n      address\n        /* \"04-Camps/08-UpChain_Camp_3_OpenSpace/0116_NFTMarketWithTokenReceived/contracts/NFTMarket.sol\":1945:1953  _tokenId */\n      dup6\n        /* \"04-Camps/08-UpChain_Camp_3_OpenSpace/0116_NFTMarketWithTokenReceived/contracts/NFTMarket.sol\":1846:1996  IERC721(_nftAddr).safeTransferFrom(... */\n      mload(0x40)\n      dup5\n      0xffffffff\n      and\n      0xe0\n      shl\n      dup2\n      mstore\n      0x04\n      add\n      tag_99\n      swap4\n      swap3\n      swap2\n      swap1\n      tag_100\n      jump\t// in\n    tag_99:\n      0x00\n      mload(0x40)\n      dup1\n      dup4\n      sub\n      dup2\n      0x00\n      dup8\n      dup1\n      extcodesize\n      iszero\n      dup1\n      iszero\n      tag_101\n      jumpi\n      0x00\n      dup1\n      revert\n    tag_101:\n      pop\n      gas\n      call\n      iszero\n      dup1\n      iszero\n      tag_103\n      jumpi\n      returndatasize\n      0x00\n      dup1\n      returndatacopy\n      revert(0x00, returndatasize)\n    tag_103:\n      pop\n      pop\n      pop\n      pop\n        /* \"04-Camps/08-UpChain_Camp_3_OpenSpace/0116_NFTMarketWithTokenReceived/contracts/NFTMarket.sol\":2014:2022  _nftAddr */\n      dup3\n        /* \"04-Camps/08-UpChain_Camp_3_OpenSpace/0116_NFTMarketWithTokenReceived/contracts/NFTMarket.sol\":2006:2031  IERC721(_nftAddr).approve */\n      0xffffffffffffffffffffffffffffffffffffffff\n      and\n      0x095ea7b3\n        /* \"04-Camps/08-UpChain_Camp_3_OpenSpace/0116_NFTMarketWithTokenReceived/contracts/NFTMarket.sol\":2032:2042  msg.sender */\n      caller\n        /* \"04-Camps/08-UpChain_Camp_3_OpenSpace/0116_NFTMarketWithTokenReceived/contracts/NFTMarket.sol\":2044:2052  _tokenId */\n      dup5\n        /* \"04-Camps/08-UpChain_Camp_3_OpenSpace/0116_NFTMarketWithTokenReceived/contracts/NFTMarket.sol\":2006:2053  IERC721(_nftAddr).approve(msg.sender, _tokenId) */\n      mload(0x40)\n      dup4\n      0xffffffff\n      and\n      0xe0\n      shl\n      dup2\n      mstore\n      0x04\n      add\n      tag_104\n      swap3\n      swap2\n      swap1\n      tag_79\n      jump\t// in\n    tag_104:\n      0x00\n      mload(0x40)\n      dup1\n      dup4\n      sub\n      dup2\n      0x00\n      dup8\n      dup1\n      extcodesize\n      iszero\n      dup1\n      iszero\n      tag_105\n      jumpi\n      0x00\n      dup1\n      revert\n    tag_105:\n      pop\n      gas\n      call\n      iszero\n      dup1\n      iszero\n      tag_107\n      jumpi\n      returndatasize\n      0x00\n      dup1\n      returndatacopy\n      revert(0x00, returndatasize)\n    tag_107:\n      pop\n      pop\n      pop\n      pop\n        /* \"04-Camps/08-UpChain_Camp_3_OpenSpace/0116_NFTMarketWithTokenReceived/contracts/NFTMarket.sol\":2091:2097  _price */\n      dup1\n        /* \"04-Camps/08-UpChain_Camp_3_OpenSpace/0116_NFTMarketWithTokenReceived/contracts/NFTMarket.sol\":2063:2068  price */\n      0x00\n        /* \"04-Camps/08-UpChain_Camp_3_OpenSpace/0116_NFTMarketWithTokenReceived/contracts/NFTMarket.sol\":2063:2078  price[_nftAddr] */\n      dup1\n        /* \"04-Camps/08-UpChain_Camp_3_OpenSpace/0116_NFTMarketWithTokenReceived/contracts/NFTMarket.sol\":2069:2077  _nftAddr */\n      dup6\n        /* \"04-Camps/08-UpChain_Camp_3_OpenSpace/0116_NFTMarketWithTokenReceived/contracts/NFTMarket.sol\":2063:2078  price[_nftAddr] */\n      0xffffffffffffffffffffffffffffffffffffffff\n      and\n      0xffffffffffffffffffffffffffffffffffffffff\n      and\n      dup2\n      mstore\n      0x20\n      add\n      swap1\n      dup2\n      mstore\n      0x20\n      add\n      0x00\n      keccak256\n        /* \"04-Camps/08-UpChain_Camp_3_OpenSpace/0116_NFTMarketWithTokenReceived/contracts/NFTMarket.sol\":2063:2088  price[_nftAddr][_tokenId] */\n      0x00\n        /* \"04-Camps/08-UpChain_Camp_3_OpenSpace/0116_NFTMarketWithTokenReceived/contracts/NFTMarket.sol\":2079:2087  _tokenId */\n      dup5\n        /* \"04-Camps/08-UpChain_Camp_3_OpenSpace/0116_NFTMarketWithTokenReceived/contracts/NFTMarket.sol\":2063:2088  price[_nftAddr][_tokenId] */\n      dup2\n      mstore\n      0x20\n      add\n      swap1\n      dup2\n      mstore\n      0x20\n      add\n      0x00\n      keccak256\n        /* \"04-Camps/08-UpChain_Camp_3_OpenSpace/0116_NFTMarketWithTokenReceived/contracts/NFTMarket.sol\":2063:2097  price[_nftAddr][_tokenId] = _price */\n      dup2\n      swap1\n      sstore\n      pop\n        /* \"04-Camps/08-UpChain_Camp_3_OpenSpace/0116_NFTMarketWithTokenReceived/contracts/NFTMarket.sol\":2136:2140  true */\n      0x01\n        /* \"04-Camps/08-UpChain_Camp_3_OpenSpace/0116_NFTMarketWithTokenReceived/contracts/NFTMarket.sol\":2107:2113  onSale */\n      0x02\n        /* \"04-Camps/08-UpChain_Camp_3_OpenSpace/0116_NFTMarketWithTokenReceived/contracts/NFTMarket.sol\":2107:2123  onSale[_nftAddr] */\n      0x00\n        /* \"04-Camps/08-UpChain_Camp_3_OpenSpace/0116_NFTMarketWithTokenReceived/contracts/NFTMarket.sol\":2114:2122  _nftAddr */\n      dup6\n        /* \"04-Camps/08-UpChain_Camp_3_OpenSpace/0116_NFTMarketWithTokenReceived/contracts/NFTMarket.sol\":2107:2123  onSale[_nftAddr] */\n      0xffffffffffffffffffffffffffffffffffffffff\n      and\n      0xffffffffffffffffffffffffffffffffffffffff\n      and\n      dup2\n      mstore\n      0x20\n      add\n      swap1\n      dup2\n      mstore\n      0x20\n      add\n      0x00\n      keccak256\n        /* \"04-Camps/08-UpChain_Camp_3_OpenSpace/0116_NFTMarketWithTokenReceived/contracts/NFTMarket.sol\":2107:2133  onSale[_nftAddr][_tokenId] */\n      0x00\n        /* \"04-Camps/08-UpChain_Camp_3_OpenSpace/0116_NFTMarketWithTokenReceived/contracts/NFTMarket.sol\":2124:2132  _tokenId */\n      dup5\n        /* \"04-Camps/08-UpChain_Camp_3_OpenSpace/0116_NFTMarketWithTokenReceived/contracts/NFTMarket.sol\":2107:2133  onSale[_nftAddr][_tokenId] */\n      dup2\n      mstore\n      0x20\n      add\n      swap1\n      dup2\n      mstore\n      0x20\n      add\n      0x00\n      keccak256\n      0x00\n        /* \"04-Camps/08-UpChain_Camp_3_OpenSpace/0116_NFTMarketWithTokenReceived/contracts/NFTMarket.sol\":2107:2140  onSale[_nftAddr][_tokenId] = true */\n      0x0100\n      exp\n      dup2\n      sload\n      dup2\n      0xff\n      mul\n      not\n      and\n      swap1\n      dup4\n      iszero\n      iszero\n      mul\n      or\n      swap1\n      sstore\n      pop\n        /* \"04-Camps/08-UpChain_Camp_3_OpenSpace/0116_NFTMarketWithTokenReceived/contracts/NFTMarket.sol\":1510:2147  function list(address _nftAddr, uint _tokenId, uint _price) external {... */\n      pop\n      pop\n      pop\n      jump\t// out\n        /* \"04-Camps/08-UpChain_Camp_3_OpenSpace/0116_NFTMarketWithTokenReceived/contracts/NFTMarket.sol\":2153:2759  function delist(address _nftAddr, uint256 _tokenId) external {... */\n    tag_59:\n        /* \"04-Camps/08-UpChain_Camp_3_OpenSpace/0116_NFTMarketWithTokenReceived/contracts/NFTMarket.sol\":2367:2377  msg.sender */\n      caller\n        /* \"04-Camps/08-UpChain_Camp_3_OpenSpace/0116_NFTMarketWithTokenReceived/contracts/NFTMarket.sol\":2324:2377  IERC721(_nftAddr).getApproved(_tokenId) == msg.sender */\n      0xffffffffffffffffffffffffffffffffffffffff\n      and\n        /* \"04-Camps/08-UpChain_Camp_3_OpenSpace/0116_NFTMarketWithTokenReceived/contracts/NFTMarket.sol\":2332:2340  _nftAddr */\n      dup3\n        /* \"04-Camps/08-UpChain_Camp_3_OpenSpace/0116_NFTMarketWithTokenReceived/contracts/NFTMarket.sol\":2324:2353  IERC721(_nftAddr).getApproved */\n      0xffffffffffffffffffffffffffffffffffffffff\n      and\n      0x081812fc\n        /* \"04-Camps/08-UpChain_Camp_3_OpenSpace/0116_NFTMarketWithTokenReceived/contracts/NFTMarket.sol\":2354:2362  _tokenId */\n      dup4\n        /* \"04-Camps/08-UpChain_Camp_3_OpenSpace/0116_NFTMarketWithTokenReceived/contracts/NFTMarket.sol\":2324:2363  IERC721(_nftAddr).getApproved(_tokenId) */\n      mload(0x40)\n      dup3\n      0xffffffff\n      and\n      0xe0\n      shl\n      dup2\n      mstore\n      0x04\n      add\n      tag_109\n      swap2\n      swap1\n      tag_24\n      jump\t// in\n    tag_109:\n      0x20\n      mload(0x40)\n      dup1\n      dup4\n      sub\n      dup2\n      dup7\n      gas\n      staticcall\n      iszero\n      dup1\n      iszero\n      tag_111\n      jumpi\n      returndatasize\n      0x00\n      dup1\n      returndatacopy\n      revert(0x00, returndatasize)\n    tag_111:\n      pop\n      pop\n      pop\n      pop\n      mload(0x40)\n      returndatasize\n      not(0x1f)\n      0x1f\n      dup3\n      add\n      and\n      dup3\n      add\n      dup1\n      0x40\n      mstore\n      pop\n      dup2\n      add\n      swap1\n      tag_112\n      swap2\n      swap1\n      tag_67\n      jump\t// in\n    tag_112:\n        /* \"04-Camps/08-UpChain_Camp_3_OpenSpace/0116_NFTMarketWithTokenReceived/contracts/NFTMarket.sol\":2324:2377  IERC721(_nftAddr).getApproved(_tokenId) == msg.sender */\n      0xffffffffffffffffffffffffffffffffffffffff\n      and\n      eq\n        /* \"04-Camps/08-UpChain_Camp_3_OpenSpace/0116_NFTMarketWithTokenReceived/contracts/NFTMarket.sol\":2303:2436  require(... */\n      tag_113\n      jumpi\n      mload(0x40)\n      0x08c379a000000000000000000000000000000000000000000000000000000000\n      dup2\n      mstore\n      0x04\n      add\n      tag_114\n      swap1\n      tag_115\n      jump\t// in\n    tag_114:\n      mload(0x40)\n      dup1\n      swap2\n      sub\n      swap1\n      revert\n    tag_113:\n        /* \"04-Camps/08-UpChain_Camp_3_OpenSpace/0116_NFTMarketWithTokenReceived/contracts/NFTMarket.sol\":2480:2484  true */\n      0x01\n        /* \"04-Camps/08-UpChain_Camp_3_OpenSpace/0116_NFTMarketWithTokenReceived/contracts/NFTMarket.sol\":2450:2484  onSale[_nftAddr][_tokenId] != true */\n      iszero\n      iszero\n        /* \"04-Camps/08-UpChain_Camp_3_OpenSpace/0116_NFTMarketWithTokenReceived/contracts/NFTMarket.sol\":2450:2456  onSale */\n      0x02\n        /* \"04-Camps/08-UpChain_Camp_3_OpenSpace/0116_NFTMarketWithTokenReceived/contracts/NFTMarket.sol\":2450:2466  onSale[_nftAddr] */\n      0x00\n        /* \"04-Camps/08-UpChain_Camp_3_OpenSpace/0116_NFTMarketWithTokenReceived/contracts/NFTMarket.sol\":2457:2465  _nftAddr */\n      dup5\n        /* \"04-Camps/08-UpChain_Camp_3_OpenSpace/0116_NFTMarketWithTokenReceived/contracts/NFTMarket.sol\":2450:2466  onSale[_nftAddr] */\n      0xffffffffffffffffffffffffffffffffffffffff\n      and\n      0xffffffffffffffffffffffffffffffffffffffff\n      and\n      dup2\n      mstore\n      0x20\n      add\n      swap1\n      dup2\n      mstore\n      0x20\n      add\n      0x00\n      keccak256\n        /* \"04-Camps/08-UpChain_Camp_3_OpenSpace/0116_NFTMarketWithTokenReceived/contracts/NFTMarket.sol\":2450:2476  onSale[_nftAddr][_tokenId] */\n      0x00\n        /* \"04-Camps/08-UpChain_Camp_3_OpenSpace/0116_NFTMarketWithTokenReceived/contracts/NFTMarket.sol\":2467:2475  _tokenId */\n      dup4\n        /* \"04-Camps/08-UpChain_Camp_3_OpenSpace/0116_NFTMarketWithTokenReceived/contracts/NFTMarket.sol\":2450:2476  onSale[_nftAddr][_tokenId] */\n      dup2\n      mstore\n      0x20\n      add\n      swap1\n      dup2\n      mstore\n      0x20\n      add\n      0x00\n      keccak256\n      0x00\n      swap1\n      sload\n      swap1\n      0x0100\n      exp\n      swap1\n      div\n      0xff\n      and\n        /* \"04-Camps/08-UpChain_Camp_3_OpenSpace/0116_NFTMarketWithTokenReceived/contracts/NFTMarket.sol\":2450:2484  onSale[_nftAddr][_tokenId] != true */\n      iszero\n      iszero\n      eq\n        /* \"04-Camps/08-UpChain_Camp_3_OpenSpace/0116_NFTMarketWithTokenReceived/contracts/NFTMarket.sol\":2446:2504  if (onSale[_nftAddr][_tokenId] != true) revert NotOnSale() */\n      tag_116\n      jumpi\n        /* \"04-Camps/08-UpChain_Camp_3_OpenSpace/0116_NFTMarketWithTokenReceived/contracts/NFTMarket.sol\":2493:2504  NotOnSale() */\n      mload(0x40)\n      0xc6b0e90b00000000000000000000000000000000000000000000000000000000\n      dup2\n      mstore\n      0x04\n      add\n      mload(0x40)\n      dup1\n      swap2\n      sub\n      swap1\n      revert\n        /* \"04-Camps/08-UpChain_Camp_3_OpenSpace/0116_NFTMarketWithTokenReceived/contracts/NFTMarket.sol\":2446:2504  if (onSale[_nftAddr][_tokenId] != true) revert NotOnSale() */\n    tag_116:\n        /* \"04-Camps/08-UpChain_Camp_3_OpenSpace/0116_NFTMarketWithTokenReceived/contracts/NFTMarket.sol\":2522:2530  _nftAddr */\n      dup2\n        /* \"04-Camps/08-UpChain_Camp_3_OpenSpace/0116_NFTMarketWithTokenReceived/contracts/NFTMarket.sol\":2514:2548  IERC721(_nftAddr).safeTransferFrom */\n      0xffffffffffffffffffffffffffffffffffffffff\n      and\n      0xb88d4fde\n        /* \"04-Camps/08-UpChain_Camp_3_OpenSpace/0116_NFTMarketWithTokenReceived/contracts/NFTMarket.sol\":2570:2574  this */\n      address\n        /* \"04-Camps/08-UpChain_Camp_3_OpenSpace/0116_NFTMarketWithTokenReceived/contracts/NFTMarket.sol\":2589:2599  msg.sender */\n      caller\n        /* \"04-Camps/08-UpChain_Camp_3_OpenSpace/0116_NFTMarketWithTokenReceived/contracts/NFTMarket.sol\":2613:2621  _tokenId */\n      dup5\n        /* \"04-Camps/08-UpChain_Camp_3_OpenSpace/0116_NFTMarketWithTokenReceived/contracts/NFTMarket.sol\":2514:2666  IERC721(_nftAddr).safeTransferFrom(... */\n      mload(0x40)\n      dup5\n      0xffffffff\n      and\n      0xe0\n      shl\n      dup2\n      mstore\n      0x04\n      add\n      tag_117\n      swap4\n      swap3\n      swap2\n      swap1\n      tag_118\n      jump\t// in\n    tag_117:\n      0x00\n      mload(0x40)\n      dup1\n      dup4\n      sub\n      dup2\n      0x00\n      dup8\n      dup1\n      extcodesize\n      iszero\n      dup1\n      iszero\n      tag_119\n      jumpi\n      0x00\n      dup1\n      revert\n    tag_119:\n      pop\n      gas\n      call\n      iszero\n      dup1\n      iszero\n      tag_121\n      jumpi\n      returndatasize\n      0x00\n      dup1\n      returndatacopy\n      revert(0x00, returndatasize)\n    tag_121:\n      pop\n      pop\n      pop\n      pop\n        /* \"04-Camps/08-UpChain_Camp_3_OpenSpace/0116_NFTMarketWithTokenReceived/contracts/NFTMarket.sol\":2683:2688  price */\n      0x00\n        /* \"04-Camps/08-UpChain_Camp_3_OpenSpace/0116_NFTMarketWithTokenReceived/contracts/NFTMarket.sol\":2683:2698  price[_nftAddr] */\n      dup1\n        /* \"04-Camps/08-UpChain_Camp_3_OpenSpace/0116_NFTMarketWithTokenReceived/contracts/NFTMarket.sol\":2689:2697  _nftAddr */\n      dup4\n        /* \"04-Camps/08-UpChain_Camp_3_OpenSpace/0116_NFTMarketWithTokenReceived/contracts/NFTMarket.sol\":2683:2698  price[_nftAddr] */\n      0xffffffffffffffffffffffffffffffffffffffff\n      and\n      0xffffffffffffffffffffffffffffffffffffffff\n      and\n      dup2\n      mstore\n      0x20\n      add\n      swap1\n      dup2\n      mstore\n      0x20\n      add\n      0x00\n      keccak256\n        /* \"04-Camps/08-UpChain_Camp_3_OpenSpace/0116_NFTMarketWithTokenReceived/contracts/NFTMarket.sol\":2683:2708  price[_nftAddr][_tokenId] */\n      0x00\n        /* \"04-Camps/08-UpChain_Camp_3_OpenSpace/0116_NFTMarketWithTokenReceived/contracts/NFTMarket.sol\":2699:2707  _tokenId */\n      dup3\n        /* \"04-Camps/08-UpChain_Camp_3_OpenSpace/0116_NFTMarketWithTokenReceived/contracts/NFTMarket.sol\":2683:2708  price[_nftAddr][_tokenId] */\n      dup2\n      mstore\n      0x20\n      add\n      swap1\n      dup2\n      mstore\n      0x20\n      add\n      0x00\n      keccak256\n        /* \"04-Camps/08-UpChain_Camp_3_OpenSpace/0116_NFTMarketWithTokenReceived/contracts/NFTMarket.sol\":2676:2708  delete price[_nftAddr][_tokenId] */\n      0x00\n      swap1\n      sstore\n        /* \"04-Camps/08-UpChain_Camp_3_OpenSpace/0116_NFTMarketWithTokenReceived/contracts/NFTMarket.sol\":2747:2752  false */\n      0x00\n        /* \"04-Camps/08-UpChain_Camp_3_OpenSpace/0116_NFTMarketWithTokenReceived/contracts/NFTMarket.sol\":2718:2724  onSale */\n      0x02\n        /* \"04-Camps/08-UpChain_Camp_3_OpenSpace/0116_NFTMarketWithTokenReceived/contracts/NFTMarket.sol\":2718:2734  onSale[_nftAddr] */\n      0x00\n        /* \"04-Camps/08-UpChain_Camp_3_OpenSpace/0116_NFTMarketWithTokenReceived/contracts/NFTMarket.sol\":2725:2733  _nftAddr */\n      dup5\n        /* \"04-Camps/08-UpChain_Camp_3_OpenSpace/0116_NFTMarketWithTokenReceived/contracts/NFTMarket.sol\":2718:2734  onSale[_nftAddr] */\n      0xffffffffffffffffffffffffffffffffffffffff\n      and\n      0xffffffffffffffffffffffffffffffffffffffff\n      and\n      dup2\n      mstore\n      0x20\n      add\n      swap1\n      dup2\n      mstore\n      0x20\n      add\n      0x00\n      keccak256\n        /* \"04-Camps/08-UpChain_Camp_3_OpenSpace/0116_NFTMarketWithTokenReceived/contracts/NFTMarket.sol\":2718:2744  onSale[_nftAddr][_tokenId] */\n      0x00\n        /* \"04-Camps/08-UpChain_Camp_3_OpenSpace/0116_NFTMarketWithTokenReceived/contracts/NFTMarket.sol\":2735:2743  _tokenId */\n      dup4\n        /* \"04-Camps/08-UpChain_Camp_3_OpenSpace/0116_NFTMarketWithTokenReceived/contracts/NFTMarket.sol\":2718:2744  onSale[_nftAddr][_tokenId] */\n      dup2\n      mstore\n      0x20\n      add\n      swap1\n      dup2\n      mstore\n      0x20\n      add\n      0x00\n      keccak256\n      0x00\n        /* \"04-Camps/08-UpChain_Camp_3_OpenSpace/0116_NFTMarketWithTokenReceived/contracts/NFTMarket.sol\":2718:2752  onSale[_nftAddr][_tokenId] = false */\n      0x0100\n      exp\n      dup2\n      sload\n      dup2\n      0xff\n      mul\n      not\n      and\n      swap1\n      dup4\n      iszero\n      iszero\n      mul\n      or\n      swap1\n      sstore\n      pop\n        /* \"04-Camps/08-UpChain_Camp_3_OpenSpace/0116_NFTMarketWithTokenReceived/contracts/NFTMarket.sol\":2153:2759  function delist(address _nftAddr, uint256 _tokenId) external {... */\n      pop\n      pop\n      jump\t// out\n        /* \"04-Camps/08-UpChain_Camp_3_OpenSpace/0116_NFTMarketWithTokenReceived/contracts/NFTMarket.sol\":3311:4134  function _buyNFT(address _nftAddr, uint _tokenId, uint _bid) internal {... */\n    tag_71:\n        /* \"04-Camps/08-UpChain_Camp_3_OpenSpace/0116_NFTMarketWithTokenReceived/contracts/NFTMarket.sol\":3425:3429  true */\n      0x01\n        /* \"04-Camps/08-UpChain_Camp_3_OpenSpace/0116_NFTMarketWithTokenReceived/contracts/NFTMarket.sol\":3395:3429  onSale[_nftAddr][_tokenId] != true */\n      iszero\n      iszero\n        /* \"04-Camps/08-UpChain_Camp_3_OpenSpace/0116_NFTMarketWithTokenReceived/contracts/NFTMarket.sol\":3395:3401  onSale */\n      0x02\n        /* \"04-Camps/08-UpChain_Camp_3_OpenSpace/0116_NFTMarketWithTokenReceived/contracts/NFTMarket.sol\":3395:3411  onSale[_nftAddr] */\n      0x00\n        /* \"04-Camps/08-UpChain_Camp_3_OpenSpace/0116_NFTMarketWithTokenReceived/contracts/NFTMarket.sol\":3402:3410  _nftAddr */\n      dup6\n        /* \"04-Camps/08-UpChain_Camp_3_OpenSpace/0116_NFTMarketWithTokenReceived/contracts/NFTMarket.sol\":3395:3411  onSale[_nftAddr] */\n      0xffffffffffffffffffffffffffffffffffffffff\n      and\n      0xffffffffffffffffffffffffffffffffffffffff\n      and\n      dup2\n      mstore\n      0x20\n      add\n      swap1\n      dup2\n      mstore\n      0x20\n      add\n      0x00\n      keccak256\n        /* \"04-Camps/08-UpChain_Camp_3_OpenSpace/0116_NFTMarketWithTokenReceived/contracts/NFTMarket.sol\":3395:3421  onSale[_nftAddr][_tokenId] */\n      0x00\n        /* \"04-Camps/08-UpChain_Camp_3_OpenSpace/0116_NFTMarketWithTokenReceived/contracts/NFTMarket.sol\":3412:3420  _tokenId */\n      dup5\n        /* \"04-Camps/08-UpChain_Camp_3_OpenSpace/0116_NFTMarketWithTokenReceived/contracts/NFTMarket.sol\":3395:3421  onSale[_nftAddr][_tokenId] */\n      dup2\n      mstore\n      0x20\n      add\n      swap1\n      dup2\n      mstore\n      0x20\n      add\n      0x00\n      keccak256\n      0x00\n      swap1\n      sload\n      swap1\n      0x0100\n      exp\n      swap1\n      div\n      0xff\n      and\n        /* \"04-Camps/08-UpChain_Camp_3_OpenSpace/0116_NFTMarketWithTokenReceived/contracts/NFTMarket.sol\":3395:3429  onSale[_nftAddr][_tokenId] != true */\n      iszero\n      iszero\n      eq\n        /* \"04-Camps/08-UpChain_Camp_3_OpenSpace/0116_NFTMarketWithTokenReceived/contracts/NFTMarket.sol\":3391:3449  if (onSale[_nftAddr][_tokenId] != true) revert NotOnSale() */\n      tag_123\n      jumpi\n        /* \"04-Camps/08-UpChain_Camp_3_OpenSpace/0116_NFTMarketWithTokenReceived/contracts/NFTMarket.sol\":3438:3449  NotOnSale() */\n      mload(0x40)\n      0xc6b0e90b00000000000000000000000000000000000000000000000000000000\n      dup2\n      mstore\n      0x04\n      add\n      mload(0x40)\n      dup1\n      swap2\n      sub\n      swap1\n      revert\n        /* \"04-Camps/08-UpChain_Camp_3_OpenSpace/0116_NFTMarketWithTokenReceived/contracts/NFTMarket.sol\":3391:3449  if (onSale[_nftAddr][_tokenId] != true) revert NotOnSale() */\n    tag_123:\n        /* \"04-Camps/08-UpChain_Camp_3_OpenSpace/0116_NFTMarketWithTokenReceived/contracts/NFTMarket.sol\":3470:3475  price */\n      0x00\n        /* \"04-Camps/08-UpChain_Camp_3_OpenSpace/0116_NFTMarketWithTokenReceived/contracts/NFTMarket.sol\":3470:3485  price[_nftAddr] */\n      dup1\n        /* \"04-Camps/08-UpChain_Camp_3_OpenSpace/0116_NFTMarketWithTokenReceived/contracts/NFTMarket.sol\":3476:3484  _nftAddr */\n      dup5\n        /* \"04-Camps/08-UpChain_Camp_3_OpenSpace/0116_NFTMarketWithTokenReceived/contracts/NFTMarket.sol\":3470:3485  price[_nftAddr] */\n      0xffffffffffffffffffffffffffffffffffffffff\n      and\n      0xffffffffffffffffffffffffffffffffffffffff\n      and\n      dup2\n      mstore\n      0x20\n      add\n      swap1\n      dup2\n      mstore\n      0x20\n      add\n      0x00\n      keccak256\n        /* \"04-Camps/08-UpChain_Camp_3_OpenSpace/0116_NFTMarketWithTokenReceived/contracts/NFTMarket.sol\":3470:3495  price[_nftAddr][_tokenId] */\n      0x00\n        /* \"04-Camps/08-UpChain_Camp_3_OpenSpace/0116_NFTMarketWithTokenReceived/contracts/NFTMarket.sol\":3486:3494  _tokenId */\n      dup4\n        /* \"04-Camps/08-UpChain_Camp_3_OpenSpace/0116_NFTMarketWithTokenReceived/contracts/NFTMarket.sol\":3470:3495  price[_nftAddr][_tokenId] */\n      dup2\n      mstore\n      0x20\n      add\n      swap1\n      dup2\n      mstore\n      0x20\n      add\n      0x00\n      keccak256\n      sload\n        /* \"04-Camps/08-UpChain_Camp_3_OpenSpace/0116_NFTMarketWithTokenReceived/contracts/NFTMarket.sol\":3463:3467  _bid */\n      dup2\n        /* \"04-Camps/08-UpChain_Camp_3_OpenSpace/0116_NFTMarketWithTokenReceived/contracts/NFTMarket.sol\":3463:3495  _bid < price[_nftAddr][_tokenId] */\n      lt\n        /* \"04-Camps/08-UpChain_Camp_3_OpenSpace/0116_NFTMarketWithTokenReceived/contracts/NFTMarket.sol\":3459:3565  if (_bid < price[_nftAddr][_tokenId])... */\n      iszero\n      tag_124\n      jumpi\n        /* \"04-Camps/08-UpChain_Camp_3_OpenSpace/0116_NFTMarketWithTokenReceived/contracts/NFTMarket.sol\":3533:3537  _bid */\n      dup1\n        /* \"04-Camps/08-UpChain_Camp_3_OpenSpace/0116_NFTMarketWithTokenReceived/contracts/NFTMarket.sol\":3539:3544  price */\n      0x00\n        /* \"04-Camps/08-UpChain_Camp_3_OpenSpace/0116_NFTMarketWithTokenReceived/contracts/NFTMarket.sol\":3539:3554  price[_nftAddr] */\n      dup1\n        /* \"04-Camps/08-UpChain_Camp_3_OpenSpace/0116_NFTMarketWithTokenReceived/contracts/NFTMarket.sol\":3545:3553  _nftAddr */\n      dup6\n        /* \"04-Camps/08-UpChain_Camp_3_OpenSpace/0116_NFTMarketWithTokenReceived/contracts/NFTMarket.sol\":3539:3554  price[_nftAddr] */\n      0xffffffffffffffffffffffffffffffffffffffff\n      and\n      0xffffffffffffffffffffffffffffffffffffffff\n      and\n      dup2\n      mstore\n      0x20\n      add\n      swap1\n      dup2\n      mstore\n      0x20\n      add\n      0x00\n      keccak256\n        /* \"04-Camps/08-UpChain_Camp_3_OpenSpace/0116_NFTMarketWithTokenReceived/contracts/NFTMarket.sol\":3539:3564  price[_nftAddr][_tokenId] */\n      0x00\n        /* \"04-Camps/08-UpChain_Camp_3_OpenSpace/0116_NFTMarketWithTokenReceived/contracts/NFTMarket.sol\":3555:3563  _tokenId */\n      dup5\n        /* \"04-Camps/08-UpChain_Camp_3_OpenSpace/0116_NFTMarketWithTokenReceived/contracts/NFTMarket.sol\":3539:3564  price[_nftAddr][_tokenId] */\n      dup2\n      mstore\n      0x20\n      add\n      swap1\n      dup2\n      mstore\n      0x20\n      add\n      0x00\n      keccak256\n      sload\n        /* \"04-Camps/08-UpChain_Camp_3_OpenSpace/0116_NFTMarketWithTokenReceived/contracts/NFTMarket.sol\":3516:3565  BidLessThanPrice(_bid, price[_nftAddr][_tokenId]) */\n      mload(0x40)\n      0x090bde1300000000000000000000000000000000000000000000000000000000\n      dup2\n      mstore\n      0x04\n      add\n      tag_125\n      swap3\n      swap2\n      swap1\n      tag_77\n      jump\t// in\n    tag_125:\n      mload(0x40)\n      dup1\n      swap2\n      sub\n      swap1\n      revert\n        /* \"04-Camps/08-UpChain_Camp_3_OpenSpace/0116_NFTMarketWithTokenReceived/contracts/NFTMarket.sol\":3459:3565  if (_bid < price[_nftAddr][_tokenId])... */\n    tag_124:\n        /* \"04-Camps/08-UpChain_Camp_3_OpenSpace/0116_NFTMarketWithTokenReceived/contracts/NFTMarket.sol\":3618:3626  _nftAddr */\n      dup3\n        /* \"04-Camps/08-UpChain_Camp_3_OpenSpace/0116_NFTMarketWithTokenReceived/contracts/NFTMarket.sol\":3610:3639  IERC721(_nftAddr).getApproved */\n      0xffffffffffffffffffffffffffffffffffffffff\n      and\n      0x081812fc\n        /* \"04-Camps/08-UpChain_Camp_3_OpenSpace/0116_NFTMarketWithTokenReceived/contracts/NFTMarket.sol\":3640:3648  _tokenId */\n      dup4\n        /* \"04-Camps/08-UpChain_Camp_3_OpenSpace/0116_NFTMarketWithTokenReceived/contracts/NFTMarket.sol\":3610:3649  IERC721(_nftAddr).getApproved(_tokenId) */\n      mload(0x40)\n      dup3\n      0xffffffff\n      and\n      0xe0\n      shl\n      dup2\n      mstore\n      0x04\n      add\n      tag_126\n      swap2\n      swap1\n      tag_24\n      jump\t// in\n    tag_126:\n      0x20\n      mload(0x40)\n      dup1\n      dup4\n      sub\n      dup2\n      dup7\n      gas\n      staticcall\n      iszero\n      dup1\n      iszero\n      tag_128\n      jumpi\n      returndatasize\n      0x00\n      dup1\n      returndatacopy\n      revert(0x00, returndatasize)\n    tag_128:\n      pop\n      pop\n      pop\n      pop\n      mload(0x40)\n      returndatasize\n      not(0x1f)\n      0x1f\n      dup3\n      add\n      and\n      dup3\n      add\n      dup1\n      0x40\n      mstore\n      pop\n      dup2\n      add\n      swap1\n      tag_129\n      swap2\n      swap1\n      tag_67\n      jump\t// in\n    tag_129:\n        /* \"04-Camps/08-UpChain_Camp_3_OpenSpace/0116_NFTMarketWithTokenReceived/contracts/NFTMarket.sol\":3596:3649  msg.sender != IERC721(_nftAddr).getApproved(_tokenId) */\n      0xffffffffffffffffffffffffffffffffffffffff\n      and\n        /* \"04-Camps/08-UpChain_Camp_3_OpenSpace/0116_NFTMarketWithTokenReceived/contracts/NFTMarket.sol\":3596:3606  msg.sender */\n      caller\n        /* \"04-Camps/08-UpChain_Camp_3_OpenSpace/0116_NFTMarketWithTokenReceived/contracts/NFTMarket.sol\":3596:3649  msg.sender != IERC721(_nftAddr).getApproved(_tokenId) */\n      0xffffffffffffffffffffffffffffffffffffffff\n      and\n      sub\n        /* \"04-Camps/08-UpChain_Camp_3_OpenSpace/0116_NFTMarketWithTokenReceived/contracts/NFTMarket.sol\":3575:3692  require(... */\n      tag_130\n      jumpi\n      mload(0x40)\n      0x08c379a000000000000000000000000000000000000000000000000000000000\n      dup2\n      mstore\n      0x04\n      add\n      tag_131\n      swap1\n      tag_132\n      jump\t// in\n    tag_131:\n      mload(0x40)\n      dup1\n      swap2\n      sub\n      swap1\n      revert\n    tag_130:\n        /* \"04-Camps/08-UpChain_Camp_3_OpenSpace/0116_NFTMarketWithTokenReceived/contracts/NFTMarket.sol\":3702:3715  bool _success */\n      0x00\n        /* \"04-Camps/08-UpChain_Camp_3_OpenSpace/0116_NFTMarketWithTokenReceived/contracts/NFTMarket.sol\":3725:3734  tokenAddr */\n      immutable(\"0x939eb54753ed0cc7e2272bfb34cbe098308c93936ed54d79078f76ade0b2e789\")\n        /* \"04-Camps/08-UpChain_Camp_3_OpenSpace/0116_NFTMarketWithTokenReceived/contracts/NFTMarket.sol\":3718:3748  IERC20(tokenAddr).transferFrom */\n      0xffffffffffffffffffffffffffffffffffffffff\n      and\n      0x23b872dd\n        /* \"04-Camps/08-UpChain_Camp_3_OpenSpace/0116_NFTMarketWithTokenReceived/contracts/NFTMarket.sol\":3762:3772  msg.sender */\n      caller\n        /* \"04-Camps/08-UpChain_Camp_3_OpenSpace/0116_NFTMarketWithTokenReceived/contracts/NFTMarket.sol\":3794:3798  this */\n      address\n        /* \"04-Camps/08-UpChain_Camp_3_OpenSpace/0116_NFTMarketWithTokenReceived/contracts/NFTMarket.sol\":3813:3817  _bid */\n      dup6\n        /* \"04-Camps/08-UpChain_Camp_3_OpenSpace/0116_NFTMarketWithTokenReceived/contracts/NFTMarket.sol\":3718:3827  IERC20(tokenAddr).transferFrom(... */\n      mload(0x40)\n      dup5\n      0xffffffff\n      and\n      0xe0\n      shl\n      dup2\n      mstore\n      0x04\n      add\n      tag_133\n      swap4\n      swap3\n      swap2\n      swap1\n      tag_134\n      jump\t// in\n    tag_133:\n      0x20\n      mload(0x40)\n      dup1\n      dup4\n      sub\n      dup2\n      0x00\n      dup8\n      gas\n      call\n      iszero\n      dup1\n      iszero\n      tag_136\n      jumpi\n      returndatasize\n      0x00\n      dup1\n      returndatacopy\n      revert(0x00, returndatasize)\n    tag_136:\n      pop\n      pop\n      pop\n      pop\n      mload(0x40)\n      returndatasize\n      not(0x1f)\n      0x1f\n      dup3\n      add\n      and\n      dup3\n      add\n      dup1\n      0x40\n      mstore\n      pop\n      dup2\n      add\n      swap1\n      tag_137\n      swap2\n      swap1\n      tag_83\n      jump\t// in\n    tag_137:\n        /* \"04-Camps/08-UpChain_Camp_3_OpenSpace/0116_NFTMarketWithTokenReceived/contracts/NFTMarket.sol\":3702:3827  bool _success = IERC20(tokenAddr).transferFrom(... */\n      swap1\n      pop\n        /* \"04-Camps/08-UpChain_Camp_3_OpenSpace/0116_NFTMarketWithTokenReceived/contracts/NFTMarket.sol\":3845:3853  _success */\n      dup1\n        /* \"04-Camps/08-UpChain_Camp_3_OpenSpace/0116_NFTMarketWithTokenReceived/contracts/NFTMarket.sol\":3837:3898  require(_success, \"Fail to buy or Allowance is insufficient\") */\n      tag_138\n      jumpi\n      mload(0x40)\n      0x08c379a000000000000000000000000000000000000000000000000000000000\n      dup2\n      mstore\n      0x04\n      add\n      tag_139\n      swap1\n      tag_140\n      jump\t// in\n    tag_139:\n      mload(0x40)\n      dup1\n      swap2\n      sub\n      swap1\n      revert\n    tag_138:\n        /* \"04-Camps/08-UpChain_Camp_3_OpenSpace/0116_NFTMarketWithTokenReceived/contracts/NFTMarket.sol\":3960:3964  _bid */\n      dup2\n        /* \"04-Camps/08-UpChain_Camp_3_OpenSpace/0116_NFTMarketWithTokenReceived/contracts/NFTMarket.sol\":3908:3915  balance */\n      0x01\n        /* \"04-Camps/08-UpChain_Camp_3_OpenSpace/0116_NFTMarketWithTokenReceived/contracts/NFTMarket.sol\":3908:3956  balance[IERC721(_nftAddr).getApproved(_tokenId)] */\n      0x00\n        /* \"04-Camps/08-UpChain_Camp_3_OpenSpace/0116_NFTMarketWithTokenReceived/contracts/NFTMarket.sol\":3924:3932  _nftAddr */\n      dup7\n        /* \"04-Camps/08-UpChain_Camp_3_OpenSpace/0116_NFTMarketWithTokenReceived/contracts/NFTMarket.sol\":3916:3945  IERC721(_nftAddr).getApproved */\n      0xffffffffffffffffffffffffffffffffffffffff\n      and\n      0x081812fc\n        /* \"04-Camps/08-UpChain_Camp_3_OpenSpace/0116_NFTMarketWithTokenReceived/contracts/NFTMarket.sol\":3946:3954  _tokenId */\n      dup8\n        /* \"04-Camps/08-UpChain_Camp_3_OpenSpace/0116_NFTMarketWithTokenReceived/contracts/NFTMarket.sol\":3916:3955  IERC721(_nftAddr).getApproved(_tokenId) */\n      mload(0x40)\n      dup3\n      0xffffffff\n      and\n      0xe0\n      shl\n      dup2\n      mstore\n      0x04\n      add\n      tag_141\n      swap2\n      swap1\n      tag_24\n      jump\t// in\n    tag_141:\n      0x20\n      mload(0x40)\n      dup1\n      dup4\n      sub\n      dup2\n      dup7\n      gas\n      staticcall\n      iszero\n      dup1\n      iszero\n      tag_143\n      jumpi\n      returndatasize\n      0x00\n      dup1\n      returndatacopy\n      revert(0x00, returndatasize)\n    tag_143:\n      pop\n      pop\n      pop\n      pop\n      mload(0x40)\n      returndatasize\n      not(0x1f)\n      0x1f\n      dup3\n      add\n      and\n      dup3\n      add\n      dup1\n      0x40\n      mstore\n      pop\n      dup2\n      add\n      swap1\n      tag_144\n      swap2\n      swap1\n      tag_67\n      jump\t// in\n    tag_144:\n        /* \"04-Camps/08-UpChain_Camp_3_OpenSpace/0116_NFTMarketWithTokenReceived/contracts/NFTMarket.sol\":3908:3956  balance[IERC721(_nftAddr).getApproved(_tokenId)] */\n      0xffffffffffffffffffffffffffffffffffffffff\n      and\n      0xffffffffffffffffffffffffffffffffffffffff\n      and\n      dup2\n      mstore\n      0x20\n      add\n      swap1\n      dup2\n      mstore\n      0x20\n      add\n      0x00\n      keccak256\n      0x00\n        /* \"04-Camps/08-UpChain_Camp_3_OpenSpace/0116_NFTMarketWithTokenReceived/contracts/NFTMarket.sol\":3908:3964  balance[IERC721(_nftAddr).getApproved(_tokenId)] += _bid */\n      dup3\n      dup3\n      sload\n      tag_145\n      swap2\n      swap1\n      tag_146\n      jump\t// in\n    tag_145:\n      swap3\n      pop\n      pop\n      dup2\n      swap1\n      sstore\n      pop\n        /* \"04-Camps/08-UpChain_Camp_3_OpenSpace/0116_NFTMarketWithTokenReceived/contracts/NFTMarket.sol\":3982:3990  _nftAddr */\n      dup4\n        /* \"04-Camps/08-UpChain_Camp_3_OpenSpace/0116_NFTMarketWithTokenReceived/contracts/NFTMarket.sol\":3974:4004  IERC721(_nftAddr).transferFrom */\n      0xffffffffffffffffffffffffffffffffffffffff\n      and\n      0x23b872dd\n        /* \"04-Camps/08-UpChain_Camp_3_OpenSpace/0116_NFTMarketWithTokenReceived/contracts/NFTMarket.sol\":4013:4017  this */\n      address\n        /* \"04-Camps/08-UpChain_Camp_3_OpenSpace/0116_NFTMarketWithTokenReceived/contracts/NFTMarket.sol\":4020:4030  msg.sender */\n      caller\n        /* \"04-Camps/08-UpChain_Camp_3_OpenSpace/0116_NFTMarketWithTokenReceived/contracts/NFTMarket.sol\":4032:4040  _tokenId */\n      dup7\n        /* \"04-Camps/08-UpChain_Camp_3_OpenSpace/0116_NFTMarketWithTokenReceived/contracts/NFTMarket.sol\":3974:4041  IERC721(_nftAddr).transferFrom(address(this), msg.sender, _tokenId) */\n      mload(0x40)\n      dup5\n      0xffffffff\n      and\n      0xe0\n      shl\n      dup2\n      mstore\n      0x04\n      add\n      tag_147\n      swap4\n      swap3\n      swap2\n      swap1\n      tag_134\n      jump\t// in\n    tag_147:\n      0x00\n      mload(0x40)\n      dup1\n      dup4\n      sub\n      dup2\n      0x00\n      dup8\n      dup1\n      extcodesize\n      iszero\n      dup1\n      iszero\n      tag_148\n      jumpi\n      0x00\n      dup1\n      revert\n    tag_148:\n      pop\n      gas\n      call\n      iszero\n      dup1\n      iszero\n      tag_150\n      jumpi\n      returndatasize\n      0x00\n      dup1\n      returndatacopy\n      revert(0x00, returndatasize)\n    tag_150:\n      pop\n      pop\n      pop\n      pop\n        /* \"04-Camps/08-UpChain_Camp_3_OpenSpace/0116_NFTMarketWithTokenReceived/contracts/NFTMarket.sol\":4058:4063  price */\n      0x00\n        /* \"04-Camps/08-UpChain_Camp_3_OpenSpace/0116_NFTMarketWithTokenReceived/contracts/NFTMarket.sol\":4058:4073  price[_nftAddr] */\n      dup1\n        /* \"04-Camps/08-UpChain_Camp_3_OpenSpace/0116_NFTMarketWithTokenReceived/contracts/NFTMarket.sol\":4064:4072  _nftAddr */\n      dup6\n        /* \"04-Camps/08-UpChain_Camp_3_OpenSpace/0116_NFTMarketWithTokenReceived/contracts/NFTMarket.sol\":4058:4073  price[_nftAddr] */\n      0xffffffffffffffffffffffffffffffffffffffff\n      and\n      0xffffffffffffffffffffffffffffffffffffffff\n      and\n      dup2\n      mstore\n      0x20\n      add\n      swap1\n      dup2\n      mstore\n      0x20\n      add\n      0x00\n      keccak256\n        /* \"04-Camps/08-UpChain_Camp_3_OpenSpace/0116_NFTMarketWithTokenReceived/contracts/NFTMarket.sol\":4058:4083  price[_nftAddr][_tokenId] */\n      0x00\n        /* \"04-Camps/08-UpChain_Camp_3_OpenSpace/0116_NFTMarketWithTokenReceived/contracts/NFTMarket.sol\":4074:4082  _tokenId */\n      dup5\n        /* \"04-Camps/08-UpChain_Camp_3_OpenSpace/0116_NFTMarketWithTokenReceived/contracts/NFTMarket.sol\":4058:4083  price[_nftAddr][_tokenId] */\n      dup2\n      mstore\n      0x20\n      add\n      swap1\n      dup2\n      mstore\n      0x20\n      add\n      0x00\n      keccak256\n        /* \"04-Camps/08-UpChain_Camp_3_OpenSpace/0116_NFTMarketWithTokenReceived/contracts/NFTMarket.sol\":4051:4083  delete price[_nftAddr][_tokenId] */\n      0x00\n      swap1\n      sstore\n        /* \"04-Camps/08-UpChain_Camp_3_OpenSpace/0116_NFTMarketWithTokenReceived/contracts/NFTMarket.sol\":4122:4127  false */\n      0x00\n        /* \"04-Camps/08-UpChain_Camp_3_OpenSpace/0116_NFTMarketWithTokenReceived/contracts/NFTMarket.sol\":4093:4099  onSale */\n      0x02\n        /* \"04-Camps/08-UpChain_Camp_3_OpenSpace/0116_NFTMarketWithTokenReceived/contracts/NFTMarket.sol\":4093:4109  onSale[_nftAddr] */\n      0x00\n        /* \"04-Camps/08-UpChain_Camp_3_OpenSpace/0116_NFTMarketWithTokenReceived/contracts/NFTMarket.sol\":4100:4108  _nftAddr */\n      dup7\n        /* \"04-Camps/08-UpChain_Camp_3_OpenSpace/0116_NFTMarketWithTokenReceived/contracts/NFTMarket.sol\":4093:4109  onSale[_nftAddr] */\n      0xffffffffffffffffffffffffffffffffffffffff\n      and\n      0xffffffffffffffffffffffffffffffffffffffff\n      and\n      dup2\n      mstore\n      0x20\n      add\n      swap1\n      dup2\n      mstore\n      0x20\n      add\n      0x00\n      keccak256\n        /* \"04-Camps/08-UpChain_Camp_3_OpenSpace/0116_NFTMarketWithTokenReceived/contracts/NFTMarket.sol\":4093:4119  onSale[_nftAddr][_tokenId] */\n      0x00\n        /* \"04-Camps/08-UpChain_Camp_3_OpenSpace/0116_NFTMarketWithTokenReceived/contracts/NFTMarket.sol\":4110:4118  _tokenId */\n      dup6\n        /* \"04-Camps/08-UpChain_Camp_3_OpenSpace/0116_NFTMarketWithTokenReceived/contracts/NFTMarket.sol\":4093:4119  onSale[_nftAddr][_tokenId] */\n      dup2\n      mstore\n      0x20\n      add\n      swap1\n      dup2\n      mstore\n      0x20\n      add\n      0x00\n      keccak256\n      0x00\n        /* \"04-Camps/08-UpChain_Camp_3_OpenSpace/0116_NFTMarketWithTokenReceived/contracts/NFTMarket.sol\":4093:4127  onSale[_nftAddr][_tokenId] = false */\n      0x0100\n      exp\n      dup2\n      sload\n      dup2\n      0xff\n      mul\n      not\n      and\n      swap1\n      dup4\n      iszero\n      iszero\n      mul\n      or\n      swap1\n      sstore\n      pop\n        /* \"04-Camps/08-UpChain_Camp_3_OpenSpace/0116_NFTMarketWithTokenReceived/contracts/NFTMarket.sol\":3381:4134  {... */\n      pop\n        /* \"04-Camps/08-UpChain_Camp_3_OpenSpace/0116_NFTMarketWithTokenReceived/contracts/NFTMarket.sol\":3311:4134  function _buyNFT(address _nftAddr, uint _tokenId, uint _bid) internal {... */\n      pop\n      pop\n      pop\n      jump\t// out\n        /* \"#utility.yul\":88:205   */\n    tag_152:\n        /* \"#utility.yul\":197:198   */\n      0x00\n        /* \"#utility.yul\":194:195   */\n      dup1\n        /* \"#utility.yul\":187:199   */\n      revert\n        /* \"#utility.yul\":211:328   */\n    tag_153:\n        /* \"#utility.yul\":320:321   */\n      0x00\n        /* \"#utility.yul\":317:318   */\n      dup1\n        /* \"#utility.yul\":310:322   */\n      revert\n        /* \"#utility.yul\":334:460   */\n    tag_154:\n        /* \"#utility.yul\":371:378   */\n      0x00\n        /* \"#utility.yul\":411:453   */\n      0xffffffffffffffffffffffffffffffffffffffff\n        /* \"#utility.yul\":404:409   */\n      dup3\n        /* \"#utility.yul\":400:454   */\n      and\n        /* \"#utility.yul\":389:454   */\n      swap1\n      pop\n        /* \"#utility.yul\":334:460   */\n      swap2\n      swap1\n      pop\n      jump\t// out\n        /* \"#utility.yul\":466:562   */\n    tag_155:\n        /* \"#utility.yul\":503:510   */\n      0x00\n        /* \"#utility.yul\":532:556   */\n      tag_197\n        /* \"#utility.yul\":550:555   */\n      dup3\n        /* \"#utility.yul\":532:556   */\n      tag_154\n      jump\t// in\n    tag_197:\n        /* \"#utility.yul\":521:556   */\n      swap1\n      pop\n        /* \"#utility.yul\":466:562   */\n      swap2\n      swap1\n      pop\n      jump\t// out\n        /* \"#utility.yul\":568:690   */\n    tag_156:\n        /* \"#utility.yul\":641:665   */\n      tag_199\n        /* \"#utility.yul\":659:664   */\n      dup2\n        /* \"#utility.yul\":641:665   */\n      tag_155\n      jump\t// in\n    tag_199:\n        /* \"#utility.yul\":634:639   */\n      dup2\n        /* \"#utility.yul\":631:666   */\n      eq\n        /* \"#utility.yul\":621:684   */\n      tag_200\n      jumpi\n        /* \"#utility.yul\":680:681   */\n      0x00\n        /* \"#utility.yul\":677:678   */\n      dup1\n        /* \"#utility.yul\":670:682   */\n      revert\n        /* \"#utility.yul\":621:684   */\n    tag_200:\n        /* \"#utility.yul\":568:690   */\n      pop\n      jump\t// out\n        /* \"#utility.yul\":696:835   */\n    tag_157:\n        /* \"#utility.yul\":742:747   */\n      0x00\n        /* \"#utility.yul\":780:786   */\n      dup2\n        /* \"#utility.yul\":767:787   */\n      calldataload\n        /* \"#utility.yul\":758:787   */\n      swap1\n      pop\n        /* \"#utility.yul\":796:829   */\n      tag_202\n        /* \"#utility.yul\":823:828   */\n      dup2\n        /* \"#utility.yul\":796:829   */\n      tag_156\n      jump\t// in\n    tag_202:\n        /* \"#utility.yul\":696:835   */\n      swap3\n      swap2\n      pop\n      pop\n      jump\t// out\n        /* \"#utility.yul\":841:918   */\n    tag_158:\n        /* \"#utility.yul\":878:885   */\n      0x00\n        /* \"#utility.yul\":907:912   */\n      dup2\n        /* \"#utility.yul\":896:912   */\n      swap1\n      pop\n        /* \"#utility.yul\":841:918   */\n      swap2\n      swap1\n      pop\n      jump\t// out\n        /* \"#utility.yul\":924:1046   */\n    tag_159:\n        /* \"#utility.yul\":997:1021   */\n      tag_205\n        /* \"#utility.yul\":1015:1020   */\n      dup2\n        /* \"#utility.yul\":997:1021   */\n      tag_158\n      jump\t// in\n    tag_205:\n        /* \"#utility.yul\":990:995   */\n      dup2\n        /* \"#utility.yul\":987:1022   */\n      eq\n        /* \"#utility.yul\":977:1040   */\n      tag_206\n      jumpi\n        /* \"#utility.yul\":1036:1037   */\n      0x00\n        /* \"#utility.yul\":1033:1034   */\n      dup1\n        /* \"#utility.yul\":1026:1038   */\n      revert\n        /* \"#utility.yul\":977:1040   */\n    tag_206:\n        /* \"#utility.yul\":924:1046   */\n      pop\n      jump\t// out\n        /* \"#utility.yul\":1052:1191   */\n    tag_160:\n        /* \"#utility.yul\":1098:1103   */\n      0x00\n        /* \"#utility.yul\":1136:1142   */\n      dup2\n        /* \"#utility.yul\":1123:1143   */\n      calldataload\n        /* \"#utility.yul\":1114:1143   */\n      swap1\n      pop\n        /* \"#utility.yul\":1152:1185   */\n      tag_208\n        /* \"#utility.yul\":1179:1184   */\n      dup2\n        /* \"#utility.yul\":1152:1185   */\n      tag_159\n      jump\t// in\n    tag_208:\n        /* \"#utility.yul\":1052:1191   */\n      swap3\n      swap2\n      pop\n      pop\n      jump\t// out\n        /* \"#utility.yul\":1197:1671   */\n    tag_17:\n        /* \"#utility.yul\":1265:1271   */\n      0x00\n        /* \"#utility.yul\":1273:1279   */\n      dup1\n        /* \"#utility.yul\":1322:1324   */\n      0x40\n        /* \"#utility.yul\":1310:1319   */\n      dup4\n        /* \"#utility.yul\":1301:1308   */\n      dup6\n        /* \"#utility.yul\":1297:1320   */\n      sub\n        /* \"#utility.yul\":1293:1325   */\n      slt\n        /* \"#utility.yul\":1290:1409   */\n      iszero\n      tag_210\n      jumpi\n        /* \"#utility.yul\":1328:1407   */\n      tag_211\n      tag_152\n      jump\t// in\n    tag_211:\n        /* \"#utility.yul\":1290:1409   */\n    tag_210:\n        /* \"#utility.yul\":1448:1449   */\n      0x00\n        /* \"#utility.yul\":1473:1526   */\n      tag_212\n        /* \"#utility.yul\":1518:1525   */\n      dup6\n        /* \"#utility.yul\":1509:1515   */\n      dup3\n        /* \"#utility.yul\":1498:1507   */\n      dup7\n        /* \"#utility.yul\":1494:1516   */\n      add\n        /* \"#utility.yul\":1473:1526   */\n      tag_157\n      jump\t// in\n    tag_212:\n        /* \"#utility.yul\":1463:1526   */\n      swap3\n      pop\n        /* \"#utility.yul\":1419:1536   */\n      pop\n        /* \"#utility.yul\":1575:1577   */\n      0x20\n        /* \"#utility.yul\":1601:1654   */\n      tag_213\n        /* \"#utility.yul\":1646:1653   */\n      dup6\n        /* \"#utility.yul\":1637:1643   */\n      dup3\n        /* \"#utility.yul\":1626:1635   */\n      dup7\n        /* \"#utility.yul\":1622:1644   */\n      add\n        /* \"#utility.yul\":1601:1654   */\n      tag_160\n      jump\t// in\n    tag_213:\n        /* \"#utility.yul\":1591:1654   */\n      swap2\n      pop\n        /* \"#utility.yul\":1546:1664   */\n      pop\n        /* \"#utility.yul\":1197:1671   */\n      swap3\n      pop\n      swap3\n      swap1\n      pop\n      jump\t// out\n        /* \"#utility.yul\":1677:1767   */\n    tag_161:\n        /* \"#utility.yul\":1711:1718   */\n      0x00\n        /* \"#utility.yul\":1754:1759   */\n      dup2\n        /* \"#utility.yul\":1747:1760   */\n      iszero\n        /* \"#utility.yul\":1740:1761   */\n      iszero\n        /* \"#utility.yul\":1729:1761   */\n      swap1\n      pop\n        /* \"#utility.yul\":1677:1767   */\n      swap2\n      swap1\n      pop\n      jump\t// out\n        /* \"#utility.yul\":1773:1882   */\n    tag_162:\n        /* \"#utility.yul\":1854:1875   */\n      tag_216\n        /* \"#utility.yul\":1869:1874   */\n      dup2\n        /* \"#utility.yul\":1854:1875   */\n      tag_161\n      jump\t// in\n    tag_216:\n        /* \"#utility.yul\":1849:1852   */\n      dup3\n        /* \"#utility.yul\":1842:1876   */\n      mstore\n        /* \"#utility.yul\":1773:1882   */\n      pop\n      pop\n      jump\t// out\n        /* \"#utility.yul\":1888:2098   */\n    tag_20:\n        /* \"#utility.yul\":1975:1979   */\n      0x00\n        /* \"#utility.yul\":2013:2015   */\n      0x20\n        /* \"#utility.yul\":2002:2011   */\n      dup3\n        /* \"#utility.yul\":1998:2016   */\n      add\n        /* \"#utility.yul\":1990:2016   */\n      swap1\n      pop\n        /* \"#utility.yul\":2026:2091   */\n      tag_218\n        /* \"#utility.yul\":2088:2089   */\n      0x00\n        /* \"#utility.yul\":2077:2086   */\n      dup4\n        /* \"#utility.yul\":2073:2090   */\n      add\n        /* \"#utility.yul\":2064:2070   */\n      dup5\n        /* \"#utility.yul\":2026:2091   */\n      tag_162\n      jump\t// in\n    tag_218:\n        /* \"#utility.yul\":1888:2098   */\n      swap3\n      swap2\n      pop\n      pop\n      jump\t// out\n        /* \"#utility.yul\":2104:2222   */\n    tag_163:\n        /* \"#utility.yul\":2191:2215   */\n      tag_220\n        /* \"#utility.yul\":2209:2214   */\n      dup2\n        /* \"#utility.yul\":2191:2215   */\n      tag_158\n      jump\t// in\n    tag_220:\n        /* \"#utility.yul\":2186:2189   */\n      dup3\n        /* \"#utility.yul\":2179:2216   */\n      mstore\n        /* \"#utility.yul\":2104:2222   */\n      pop\n      pop\n      jump\t// out\n        /* \"#utility.yul\":2228:2450   */\n    tag_24:\n        /* \"#utility.yul\":2321:2325   */\n      0x00\n        /* \"#utility.yul\":2359:2361   */\n      0x20\n        /* \"#utility.yul\":2348:2357   */\n      dup3\n        /* \"#utility.yul\":2344:2362   */\n      add\n        /* \"#utility.yul\":2336:2362   */\n      swap1\n      pop\n        /* \"#utility.yul\":2372:2443   */\n      tag_222\n        /* \"#utility.yul\":2440:2441   */\n      0x00\n        /* \"#utility.yul\":2429:2438   */\n      dup4\n        /* \"#utility.yul\":2425:2442   */\n      add\n        /* \"#utility.yul\":2416:2422   */\n      dup5\n        /* \"#utility.yul\":2372:2443   */\n      tag_163\n      jump\t// in\n    tag_222:\n        /* \"#utility.yul\":2228:2450   */\n      swap3\n      swap2\n      pop\n      pop\n      jump\t// out\n        /* \"#utility.yul\":2456:2573   */\n    tag_164:\n        /* \"#utility.yul\":2565:2566   */\n      0x00\n        /* \"#utility.yul\":2562:2563   */\n      dup1\n        /* \"#utility.yul\":2555:2567   */\n      revert\n        /* \"#utility.yul\":2579:2696   */\n    tag_165:\n        /* \"#utility.yul\":2688:2689   */\n      0x00\n        /* \"#utility.yul\":2685:2686   */\n      dup1\n        /* \"#utility.yul\":2678:2690   */\n      revert\n        /* \"#utility.yul\":2702:2819   */\n    tag_166:\n        /* \"#utility.yul\":2811:2812   */\n      0x00\n        /* \"#utility.yul\":2808:2809   */\n      dup1\n        /* \"#utility.yul\":2801:2813   */\n      revert\n        /* \"#utility.yul\":2838:3390   */\n    tag_167:\n        /* \"#utility.yul\":2895:2903   */\n      0x00\n        /* \"#utility.yul\":2905:2911   */\n      dup1\n        /* \"#utility.yul\":2955:2958   */\n      dup4\n        /* \"#utility.yul\":2948:2952   */\n      0x1f\n        /* \"#utility.yul\":2940:2946   */\n      dup5\n        /* \"#utility.yul\":2936:2953   */\n      add\n        /* \"#utility.yul\":2932:2959   */\n      slt\n        /* \"#utility.yul\":2922:3044   */\n      tag_227\n      jumpi\n        /* \"#utility.yul\":2963:3042   */\n      tag_228\n      tag_164\n      jump\t// in\n    tag_228:\n        /* \"#utility.yul\":2922:3044   */\n    tag_227:\n        /* \"#utility.yul\":3076:3082   */\n      dup3\n        /* \"#utility.yul\":3063:3083   */\n      calldataload\n        /* \"#utility.yul\":3053:3083   */\n      swap1\n      pop\n        /* \"#utility.yul\":3106:3124   */\n      0xffffffffffffffff\n        /* \"#utility.yul\":3098:3104   */\n      dup2\n        /* \"#utility.yul\":3095:3125   */\n      gt\n        /* \"#utility.yul\":3092:3209   */\n      iszero\n      tag_229\n      jumpi\n        /* \"#utility.yul\":3128:3207   */\n      tag_230\n      tag_165\n      jump\t// in\n    tag_230:\n        /* \"#utility.yul\":3092:3209   */\n    tag_229:\n        /* \"#utility.yul\":3242:3246   */\n      0x20\n        /* \"#utility.yul\":3234:3240   */\n      dup4\n        /* \"#utility.yul\":3230:3247   */\n      add\n        /* \"#utility.yul\":3218:3247   */\n      swap2\n      pop\n        /* \"#utility.yul\":3296:3299   */\n      dup4\n        /* \"#utility.yul\":3288:3292   */\n      0x01\n        /* \"#utility.yul\":3280:3286   */\n      dup3\n        /* \"#utility.yul\":3276:3293   */\n      mul\n        /* \"#utility.yul\":3266:3274   */\n      dup4\n        /* \"#utility.yul\":3262:3294   */\n      add\n        /* \"#utility.yul\":3259:3300   */\n      gt\n        /* \"#utility.yul\":3256:3384   */\n      iszero\n      tag_231\n      jumpi\n        /* \"#utility.yul\":3303:3382   */\n      tag_232\n      tag_166\n      jump\t// in\n    tag_232:\n        /* \"#utility.yul\":3256:3384   */\n    tag_231:\n        /* \"#utility.yul\":2838:3390   */\n      swap3\n      pop\n      swap3\n      swap1\n      pop\n      jump\t// out\n        /* \"#utility.yul\":3396:4359   */\n    tag_27:\n        /* \"#utility.yul\":3493:3499   */\n      0x00\n        /* \"#utility.yul\":3501:3507   */\n      dup1\n        /* \"#utility.yul\":3509:3515   */\n      0x00\n        /* \"#utility.yul\":3517:3523   */\n      dup1\n        /* \"#utility.yul\":3525:3531   */\n      0x00\n        /* \"#utility.yul\":3574:3577   */\n      0x80\n        /* \"#utility.yul\":3562:3571   */\n      dup7\n        /* \"#utility.yul\":3553:3560   */\n      dup9\n        /* \"#utility.yul\":3549:3572   */\n      sub\n        /* \"#utility.yul\":3545:3578   */\n      slt\n        /* \"#utility.yul\":3542:3662   */\n      iszero\n      tag_234\n      jumpi\n        /* \"#utility.yul\":3581:3660   */\n      tag_235\n      tag_152\n      jump\t// in\n    tag_235:\n        /* \"#utility.yul\":3542:3662   */\n    tag_234:\n        /* \"#utility.yul\":3701:3702   */\n      0x00\n        /* \"#utility.yul\":3726:3779   */\n      tag_236\n        /* \"#utility.yul\":3771:3778   */\n      dup9\n        /* \"#utility.yul\":3762:3768   */\n      dup3\n        /* \"#utility.yul\":3751:3760   */\n      dup10\n        /* \"#utility.yul\":3747:3769   */\n      add\n        /* \"#utility.yul\":3726:3779   */\n      tag_157\n      jump\t// in\n    tag_236:\n        /* \"#utility.yul\":3716:3779   */\n      swap6\n      pop\n        /* \"#utility.yul\":3672:3789   */\n      pop\n        /* \"#utility.yul\":3828:3830   */\n      0x20\n        /* \"#utility.yul\":3854:3907   */\n      tag_237\n        /* \"#utility.yul\":3899:3906   */\n      dup9\n        /* \"#utility.yul\":3890:3896   */\n      dup3\n        /* \"#utility.yul\":3879:3888   */\n      dup10\n        /* \"#utility.yul\":3875:3897   */\n      add\n        /* \"#utility.yul\":3854:3907   */\n      tag_157\n      jump\t// in\n    tag_237:\n        /* \"#utility.yul\":3844:3907   */\n      swap5\n      pop\n        /* \"#utility.yul\":3799:3917   */\n      pop\n        /* \"#utility.yul\":3956:3958   */\n      0x40\n        /* \"#utility.yul\":3982:4035   */\n      tag_238\n        /* \"#utility.yul\":4027:4034   */\n      dup9\n        /* \"#utility.yul\":4018:4024   */\n      dup3\n        /* \"#utility.yul\":4007:4016   */\n      dup10\n        /* \"#utility.yul\":4003:4025   */\n      add\n        /* \"#utility.yul\":3982:4035   */\n      tag_160\n      jump\t// in\n    tag_238:\n        /* \"#utility.yul\":3972:4035   */\n      swap4\n      pop\n        /* \"#utility.yul\":3927:4045   */\n      pop\n        /* \"#utility.yul\":4112:4114   */\n      0x60\n        /* \"#utility.yul\":4101:4110   */\n      dup7\n        /* \"#utility.yul\":4097:4115   */\n      add\n        /* \"#utility.yul\":4084:4116   */\n      calldataload\n        /* \"#utility.yul\":4143:4161   */\n      0xffffffffffffffff\n        /* \"#utility.yul\":4135:4141   */\n      dup2\n        /* \"#utility.yul\":4132:4162   */\n      gt\n        /* \"#utility.yul\":4129:4246   */\n      iszero\n      tag_239\n      jumpi\n        /* \"#utility.yul\":4165:4244   */\n      tag_240\n      tag_153\n      jump\t// in\n    tag_240:\n        /* \"#utility.yul\":4129:4246   */\n    tag_239:\n        /* \"#utility.yul\":4278:4342   */\n      tag_241\n        /* \"#utility.yul\":4334:4341   */\n      dup9\n        /* \"#utility.yul\":4325:4331   */\n      dup3\n        /* \"#utility.yul\":4314:4323   */\n      dup10\n        /* \"#utility.yul\":4310:4332   */\n      add\n        /* \"#utility.yul\":4278:4342   */\n      tag_167\n      jump\t// in\n    tag_241:\n        /* \"#utility.yul\":4260:4342   */\n      swap3\n      pop\n      swap3\n      pop\n        /* \"#utility.yul\":4055:4352   */\n      pop\n        /* \"#utility.yul\":3396:4359   */\n      swap3\n      swap6\n      pop\n      swap3\n      swap6\n      swap1\n      swap4\n      pop\n      jump\t// out\n        /* \"#utility.yul\":4365:4514   */\n    tag_168:\n        /* \"#utility.yul\":4401:4408   */\n      0x00\n        /* \"#utility.yul\":4441:4507   */\n      0xffffffff00000000000000000000000000000000000000000000000000000000\n        /* \"#utility.yul\":4434:4439   */\n      dup3\n        /* \"#utility.yul\":4430:4508   */\n      and\n        /* \"#utility.yul\":4419:4508   */\n      swap1\n      pop\n        /* \"#utility.yul\":4365:4514   */\n      swap2\n      swap1\n      pop\n      jump\t// out\n        /* \"#utility.yul\":4520:4635   */\n    tag_169:\n        /* \"#utility.yul\":4605:4628   */\n      tag_244\n        /* \"#utility.yul\":4622:4627   */\n      dup2\n        /* \"#utility.yul\":4605:4628   */\n      tag_168\n      jump\t// in\n    tag_244:\n        /* \"#utility.yul\":4600:4603   */\n      dup3\n        /* \"#utility.yul\":4593:4629   */\n      mstore\n        /* \"#utility.yul\":4520:4635   */\n      pop\n      pop\n      jump\t// out\n        /* \"#utility.yul\":4641:4859   */\n    tag_30:\n        /* \"#utility.yul\":4732:4736   */\n      0x00\n        /* \"#utility.yul\":4770:4772   */\n      0x20\n        /* \"#utility.yul\":4759:4768   */\n      dup3\n        /* \"#utility.yul\":4755:4773   */\n      add\n        /* \"#utility.yul\":4747:4773   */\n      swap1\n      pop\n        /* \"#utility.yul\":4783:4852   */\n      tag_246\n        /* \"#utility.yul\":4849:4850   */\n      0x00\n        /* \"#utility.yul\":4838:4847   */\n      dup4\n        /* \"#utility.yul\":4834:4851   */\n      add\n        /* \"#utility.yul\":4825:4831   */\n      dup5\n        /* \"#utility.yul\":4783:4852   */\n      tag_169\n      jump\t// in\n    tag_246:\n        /* \"#utility.yul\":4641:4859   */\n      swap3\n      swap2\n      pop\n      pop\n      jump\t// out\n        /* \"#utility.yul\":4865:4983   */\n    tag_170:\n        /* \"#utility.yul\":4952:4976   */\n      tag_248\n        /* \"#utility.yul\":4970:4975   */\n      dup2\n        /* \"#utility.yul\":4952:4976   */\n      tag_155\n      jump\t// in\n    tag_248:\n        /* \"#utility.yul\":4947:4950   */\n      dup3\n        /* \"#utility.yul\":4940:4977   */\n      mstore\n        /* \"#utility.yul\":4865:4983   */\n      pop\n      pop\n      jump\t// out\n        /* \"#utility.yul\":4989:5211   */\n    tag_35:\n        /* \"#utility.yul\":5082:5086   */\n      0x00\n        /* \"#utility.yul\":5120:5122   */\n      0x20\n        /* \"#utility.yul\":5109:5118   */\n      dup3\n        /* \"#utility.yul\":5105:5123   */\n      add\n        /* \"#utility.yul\":5097:5123   */\n      swap1\n      pop\n        /* \"#utility.yul\":5133:5204   */\n      tag_250\n        /* \"#utility.yul\":5201:5202   */\n      0x00\n        /* \"#utility.yul\":5190:5199   */\n      dup4\n        /* \"#utility.yul\":5186:5203   */\n      add\n        /* \"#utility.yul\":5177:5183   */\n      dup5\n        /* \"#utility.yul\":5133:5204   */\n      tag_170\n      jump\t// in\n    tag_250:\n        /* \"#utility.yul\":4989:5211   */\n      swap3\n      swap2\n      pop\n      pop\n      jump\t// out\n        /* \"#utility.yul\":5217:5836   */\n    tag_45:\n        /* \"#utility.yul\":5294:5300   */\n      0x00\n        /* \"#utility.yul\":5302:5308   */\n      dup1\n        /* \"#utility.yul\":5310:5316   */\n      0x00\n        /* \"#utility.yul\":5359:5361   */\n      0x60\n        /* \"#utility.yul\":5347:5356   */\n      dup5\n        /* \"#utility.yul\":5338:5345   */\n      dup7\n        /* \"#utility.yul\":5334:5357   */\n      sub\n        /* \"#utility.yul\":5330:5362   */\n      slt\n        /* \"#utility.yul\":5327:5446   */\n      iszero\n      tag_252\n      jumpi\n        /* \"#utility.yul\":5365:5444   */\n      tag_253\n      tag_152\n      jump\t// in\n    tag_253:\n        /* \"#utility.yul\":5327:5446   */\n    tag_252:\n        /* \"#utility.yul\":5485:5486   */\n      0x00\n        /* \"#utility.yul\":5510:5563   */\n      tag_254\n        /* \"#utility.yul\":5555:5562   */\n      dup7\n        /* \"#utility.yul\":5546:5552   */\n      dup3\n        /* \"#utility.yul\":5535:5544   */\n      dup8\n        /* \"#utility.yul\":5531:5553   */\n      add\n        /* \"#utility.yul\":5510:5563   */\n      tag_157\n      jump\t// in\n    tag_254:\n        /* \"#utility.yul\":5500:5563   */\n      swap4\n      pop\n        /* \"#utility.yul\":5456:5573   */\n      pop\n        /* \"#utility.yul\":5612:5614   */\n      0x20\n        /* \"#utility.yul\":5638:5691   */\n      tag_255\n        /* \"#utility.yul\":5683:5690   */\n      dup7\n        /* \"#utility.yul\":5674:5680   */\n      dup3\n        /* \"#utility.yul\":5663:5672   */\n      dup8\n        /* \"#utility.yul\":5659:5681   */\n      add\n        /* \"#utility.yul\":5638:5691   */\n      tag_160\n      jump\t// in\n    tag_255:\n        /* \"#utility.yul\":5628:5691   */\n      swap3\n      pop\n        /* \"#utility.yul\":5583:5701   */\n      pop\n        /* \"#utility.yul\":5740:5742   */\n      0x40\n        /* \"#utility.yul\":5766:5819   */\n      tag_256\n        /* \"#utility.yul\":5811:5818   */\n      dup7\n        /* \"#utility.yul\":5802:5808   */\n      dup3\n        /* \"#utility.yul\":5791:5800   */\n      dup8\n        /* \"#utility.yul\":5787:5809   */\n      add\n        /* \"#utility.yul\":5766:5819   */\n      tag_160\n      jump\t// in\n    tag_256:\n        /* \"#utility.yul\":5756:5819   */\n      swap2\n      pop\n        /* \"#utility.yul\":5711:5829   */\n      pop\n        /* \"#utility.yul\":5217:5836   */\n      swap3\n      pop\n      swap3\n      pop\n      swap3\n      jump\t// out\n        /* \"#utility.yul\":5842:6171   */\n    tag_52:\n        /* \"#utility.yul\":5901:5907   */\n      0x00\n        /* \"#utility.yul\":5950:5952   */\n      0x20\n        /* \"#utility.yul\":5938:5947   */\n      dup3\n        /* \"#utility.yul\":5929:5936   */\n      dup5\n        /* \"#utility.yul\":5925:5948   */\n      sub\n        /* \"#utility.yul\":5921:5953   */\n      slt\n        /* \"#utility.yul\":5918:6037   */\n      iszero\n      tag_258\n      jumpi\n        /* \"#utility.yul\":5956:6035   */\n      tag_259\n      tag_152\n      jump\t// in\n    tag_259:\n        /* \"#utility.yul\":5918:6037   */\n    tag_258:\n        /* \"#utility.yul\":6076:6077   */\n      0x00\n        /* \"#utility.yul\":6101:6154   */\n      tag_260\n        /* \"#utility.yul\":6146:6153   */\n      dup5\n        /* \"#utility.yul\":6137:6143   */\n      dup3\n        /* \"#utility.yul\":6126:6135   */\n      dup6\n        /* \"#utility.yul\":6122:6144   */\n      add\n        /* \"#utility.yul\":6101:6154   */\n      tag_160\n      jump\t// in\n    tag_260:\n        /* \"#utility.yul\":6091:6154   */\n      swap2\n      pop\n        /* \"#utility.yul\":6047:6164   */\n      pop\n        /* \"#utility.yul\":5842:6171   */\n      swap3\n      swap2\n      pop\n      pop\n      jump\t// out\n        /* \"#utility.yul\":6177:6320   */\n    tag_171:\n        /* \"#utility.yul\":6234:6239   */\n      0x00\n        /* \"#utility.yul\":6265:6271   */\n      dup2\n        /* \"#utility.yul\":6259:6272   */\n      mload\n        /* \"#utility.yul\":6250:6272   */\n      swap1\n      pop\n        /* \"#utility.yul\":6281:6314   */\n      tag_262\n        /* \"#utility.yul\":6308:6313   */\n      dup2\n        /* \"#utility.yul\":6281:6314   */\n      tag_156\n      jump\t// in\n    tag_262:\n        /* \"#utility.yul\":6177:6320   */\n      swap3\n      swap2\n      pop\n      pop\n      jump\t// out\n        /* \"#utility.yul\":6326:6677   */\n    tag_67:\n        /* \"#utility.yul\":6396:6402   */\n      0x00\n        /* \"#utility.yul\":6445:6447   */\n      0x20\n        /* \"#utility.yul\":6433:6442   */\n      dup3\n        /* \"#utility.yul\":6424:6431   */\n      dup5\n        /* \"#utility.yul\":6420:6443   */\n      sub\n        /* \"#utility.yul\":6416:6448   */\n      slt\n        /* \"#utility.yul\":6413:6532   */\n      iszero\n      tag_264\n      jumpi\n        /* \"#utility.yul\":6451:6530   */\n      tag_265\n      tag_152\n      jump\t// in\n    tag_265:\n        /* \"#utility.yul\":6413:6532   */\n    tag_264:\n        /* \"#utility.yul\":6571:6572   */\n      0x00\n        /* \"#utility.yul\":6596:6660   */\n      tag_266\n        /* \"#utility.yul\":6652:6659   */\n      dup5\n        /* \"#utility.yul\":6643:6649   */\n      dup3\n        /* \"#utility.yul\":6632:6641   */\n      dup6\n        /* \"#utility.yul\":6628:6650   */\n      add\n        /* \"#utility.yul\":6596:6660   */\n      tag_171\n      jump\t// in\n    tag_266:\n        /* \"#utility.yul\":6586:6660   */\n      swap2\n      pop\n        /* \"#utility.yul\":6542:6670   */\n      pop\n        /* \"#utility.yul\":6326:6677   */\n      swap3\n      swap2\n      pop\n      pop\n      jump\t// out\n        /* \"#utility.yul\":6683:7015   */\n    tag_77:\n        /* \"#utility.yul\":6804:6808   */\n      0x00\n        /* \"#utility.yul\":6842:6844   */\n      0x40\n        /* \"#utility.yul\":6831:6840   */\n      dup3\n        /* \"#utility.yul\":6827:6845   */\n      add\n        /* \"#utility.yul\":6819:6845   */\n      swap1\n      pop\n        /* \"#utility.yul\":6855:6926   */\n      tag_268\n        /* \"#utility.yul\":6923:6924   */\n      0x00\n        /* \"#utility.yul\":6912:6921   */\n      dup4\n        /* \"#utility.yul\":6908:6925   */\n      add\n        /* \"#utility.yul\":6899:6905   */\n      dup6\n        /* \"#utility.yul\":6855:6926   */\n      tag_163\n      jump\t// in\n    tag_268:\n        /* \"#utility.yul\":6936:7008   */\n      tag_269\n        /* \"#utility.yul\":7004:7006   */\n      0x20\n        /* \"#utility.yul\":6993:7002   */\n      dup4\n        /* \"#utility.yul\":6989:7007   */\n      add\n        /* \"#utility.yul\":6980:6986   */\n      dup5\n        /* \"#utility.yul\":6936:7008   */\n      tag_163\n      jump\t// in\n    tag_269:\n        /* \"#utility.yul\":6683:7015   */\n      swap4\n      swap3\n      pop\n      pop\n      pop\n      jump\t// out\n        /* \"#utility.yul\":7021:7353   */\n    tag_79:\n        /* \"#utility.yul\":7142:7146   */\n      0x00\n        /* \"#utility.yul\":7180:7182   */\n      0x40\n        /* \"#utility.yul\":7169:7178   */\n      dup3\n        /* \"#utility.yul\":7165:7183   */\n      add\n        /* \"#utility.yul\":7157:7183   */\n      swap1\n      pop\n        /* \"#utility.yul\":7193:7264   */\n      tag_271\n        /* \"#utility.yul\":7261:7262   */\n      0x00\n        /* \"#utility.yul\":7250:7259   */\n      dup4\n        /* \"#utility.yul\":7246:7263   */\n      add\n        /* \"#utility.yul\":7237:7243   */\n      dup6\n        /* \"#utility.yul\":7193:7264   */\n      tag_170\n      jump\t// in\n    tag_271:\n        /* \"#utility.yul\":7274:7346   */\n      tag_272\n        /* \"#utility.yul\":7342:7344   */\n      0x20\n        /* \"#utility.yul\":7331:7340   */\n      dup4\n        /* \"#utility.yul\":7327:7345   */\n      add\n        /* \"#utility.yul\":7318:7324   */\n      dup5\n        /* \"#utility.yul\":7274:7346   */\n      tag_163\n      jump\t// in\n    tag_272:\n        /* \"#utility.yul\":7021:7353   */\n      swap4\n      swap3\n      pop\n      pop\n      pop\n      jump\t// out\n        /* \"#utility.yul\":7359:7475   */\n    tag_172:\n        /* \"#utility.yul\":7429:7450   */\n      tag_274\n        /* \"#utility.yul\":7444:7449   */\n      dup2\n        /* \"#utility.yul\":7429:7450   */\n      tag_161\n      jump\t// in\n    tag_274:\n        /* \"#utility.yul\":7422:7427   */\n      dup2\n        /* \"#utility.yul\":7419:7451   */\n      eq\n        /* \"#utility.yul\":7409:7469   */\n      tag_275\n      jumpi\n        /* \"#utility.yul\":7465:7466   */\n      0x00\n        /* \"#utility.yul\":7462:7463   */\n      dup1\n        /* \"#utility.yul\":7455:7467   */\n      revert\n        /* \"#utility.yul\":7409:7469   */\n    tag_275:\n        /* \"#utility.yul\":7359:7475   */\n      pop\n      jump\t// out\n        /* \"#utility.yul\":7481:7618   */\n    tag_173:\n        /* \"#utility.yul\":7535:7540   */\n      0x00\n        /* \"#utility.yul\":7566:7572   */\n      dup2\n        /* \"#utility.yul\":7560:7573   */\n      mload\n        /* \"#utility.yul\":7551:7573   */\n      swap1\n      pop\n        /* \"#utility.yul\":7582:7612   */\n      tag_277\n        /* \"#utility.yul\":7606:7611   */\n      dup2\n        /* \"#utility.yul\":7582:7612   */\n      tag_172\n      jump\t// in\n    tag_277:\n        /* \"#utility.yul\":7481:7618   */\n      swap3\n      swap2\n      pop\n      pop\n      jump\t// out\n        /* \"#utility.yul\":7624:7969   */\n    tag_83:\n        /* \"#utility.yul\":7691:7697   */\n      0x00\n        /* \"#utility.yul\":7740:7742   */\n      0x20\n        /* \"#utility.yul\":7728:7737   */\n      dup3\n        /* \"#utility.yul\":7719:7726   */\n      dup5\n        /* \"#utility.yul\":7715:7738   */\n      sub\n        /* \"#utility.yul\":7711:7743   */\n      slt\n        /* \"#utility.yul\":7708:7827   */\n      iszero\n      tag_279\n      jumpi\n        /* \"#utility.yul\":7746:7825   */\n      tag_280\n      tag_152\n      jump\t// in\n    tag_280:\n        /* \"#utility.yul\":7708:7827   */\n    tag_279:\n        /* \"#utility.yul\":7866:7867   */\n      0x00\n        /* \"#utility.yul\":7891:7952   */\n      tag_281\n        /* \"#utility.yul\":7944:7951   */\n      dup5\n        /* \"#utility.yul\":7935:7941   */\n      dup3\n        /* \"#utility.yul\":7924:7933   */\n      dup6\n        /* \"#utility.yul\":7920:7942   */\n      add\n        /* \"#utility.yul\":7891:7952   */\n      tag_173\n      jump\t// in\n    tag_281:\n        /* \"#utility.yul\":7881:7952   */\n      swap2\n      pop\n        /* \"#utility.yul\":7837:7962   */\n      pop\n        /* \"#utility.yul\":7624:7969   */\n      swap3\n      swap2\n      pop\n      pop\n      jump\t// out\n        /* \"#utility.yul\":7975:8144   */\n    tag_174:\n        /* \"#utility.yul\":8059:8070   */\n      0x00\n        /* \"#utility.yul\":8093:8099   */\n      dup3\n        /* \"#utility.yul\":8088:8091   */\n      dup3\n        /* \"#utility.yul\":8081:8100   */\n      mstore\n        /* \"#utility.yul\":8133:8137   */\n      0x20\n        /* \"#utility.yul\":8128:8131   */\n      dup3\n        /* \"#utility.yul\":8124:8138   */\n      add\n        /* \"#utility.yul\":8109:8138   */\n      swap1\n      pop\n        /* \"#utility.yul\":7975:8144   */\n      swap3\n      swap2\n      pop\n      pop\n      jump\t// out\n        /* \"#utility.yul\":8150:8317   */\n    tag_175:\n        /* \"#utility.yul\":8290:8309   */\n      0x7769746864726177616c206661696c6564000000000000000000000000000000\n        /* \"#utility.yul\":8286:8287   */\n      0x00\n        /* \"#utility.yul\":8278:8284   */\n      dup3\n        /* \"#utility.yul\":8274:8288   */\n      add\n        /* \"#utility.yul\":8267:8310   */\n      mstore\n        /* \"#utility.yul\":8150:8317   */\n      pop\n      jump\t// out\n        /* \"#utility.yul\":8323:8689   */\n    tag_176:\n        /* \"#utility.yul\":8465:8468   */\n      0x00\n        /* \"#utility.yul\":8486:8553   */\n      tag_285\n        /* \"#utility.yul\":8550:8552   */\n      0x11\n        /* \"#utility.yul\":8545:8548   */\n      dup4\n        /* \"#utility.yul\":8486:8553   */\n      tag_174\n      jump\t// in\n    tag_285:\n        /* \"#utility.yul\":8479:8553   */\n      swap2\n      pop\n        /* \"#utility.yul\":8562:8655   */\n      tag_286\n        /* \"#utility.yul\":8651:8654   */\n      dup3\n        /* \"#utility.yul\":8562:8655   */\n      tag_175\n      jump\t// in\n    tag_286:\n        /* \"#utility.yul\":8680:8682   */\n      0x20\n        /* \"#utility.yul\":8675:8678   */\n      dup3\n        /* \"#utility.yul\":8671:8683   */\n      add\n        /* \"#utility.yul\":8664:8683   */\n      swap1\n      pop\n        /* \"#utility.yul\":8323:8689   */\n      swap2\n      swap1\n      pop\n      jump\t// out\n        /* \"#utility.yul\":8695:9114   */\n    tag_86:\n        /* \"#utility.yul\":8861:8865   */\n      0x00\n        /* \"#utility.yul\":8899:8901   */\n      0x20\n        /* \"#utility.yul\":8888:8897   */\n      dup3\n        /* \"#utility.yul\":8884:8902   */\n      add\n        /* \"#utility.yul\":8876:8902   */\n      swap1\n      pop\n        /* \"#utility.yul\":8948:8957   */\n      dup2\n        /* \"#utility.yul\":8942:8946   */\n      dup2\n        /* \"#utility.yul\":8938:8958   */\n      sub\n        /* \"#utility.yul\":8934:8935   */\n      0x00\n        /* \"#utility.yul\":8923:8932   */\n      dup4\n        /* \"#utility.yul\":8919:8936   */\n      add\n        /* \"#utility.yul\":8912:8959   */\n      mstore\n        /* \"#utility.yul\":8976:9107   */\n      tag_288\n        /* \"#utility.yul\":9102:9106   */\n      dup2\n        /* \"#utility.yul\":8976:9107   */\n      tag_176\n      jump\t// in\n    tag_288:\n        /* \"#utility.yul\":8968:9107   */\n      swap1\n      pop\n        /* \"#utility.yul\":8695:9114   */\n      swap2\n      swap1\n      pop\n      jump\t// out\n        /* \"#utility.yul\":9120:9300   */\n    tag_177:\n        /* \"#utility.yul\":9168:9245   */\n      0x4e487b7100000000000000000000000000000000000000000000000000000000\n        /* \"#utility.yul\":9165:9166   */\n      0x00\n        /* \"#utility.yul\":9158:9246   */\n      mstore\n        /* \"#utility.yul\":9265:9269   */\n      0x11\n        /* \"#utility.yul\":9262:9263   */\n      0x04\n        /* \"#utility.yul\":9255:9270   */\n      mstore\n        /* \"#utility.yul\":9289:9293   */\n      0x24\n        /* \"#utility.yul\":9286:9287   */\n      0x00\n        /* \"#utility.yul\":9279:9294   */\n      revert\n        /* \"#utility.yul\":9306:9500   */\n    tag_88:\n        /* \"#utility.yul\":9346:9350   */\n      0x00\n        /* \"#utility.yul\":9366:9386   */\n      tag_291\n        /* \"#utility.yul\":9384:9385   */\n      dup3\n        /* \"#utility.yul\":9366:9386   */\n      tag_158\n      jump\t// in\n    tag_291:\n        /* \"#utility.yul\":9361:9386   */\n      swap2\n      pop\n        /* \"#utility.yul\":9400:9420   */\n      tag_292\n        /* \"#utility.yul\":9418:9419   */\n      dup4\n        /* \"#utility.yul\":9400:9420   */\n      tag_158\n      jump\t// in\n    tag_292:\n        /* \"#utility.yul\":9395:9420   */\n      swap3\n      pop\n        /* \"#utility.yul\":9444:9445   */\n      dup3\n        /* \"#utility.yul\":9441:9442   */\n      dup3\n        /* \"#utility.yul\":9437:9446   */\n      sub\n        /* \"#utility.yul\":9429:9446   */\n      swap1\n      pop\n        /* \"#utility.yul\":9468:9469   */\n      dup2\n        /* \"#utility.yul\":9462:9466   */\n      dup2\n        /* \"#utility.yul\":9459:9470   */\n      gt\n        /* \"#utility.yul\":9456:9493   */\n      iszero\n      tag_293\n      jumpi\n        /* \"#utility.yul\":9473:9491   */\n      tag_294\n      tag_177\n      jump\t// in\n    tag_294:\n        /* \"#utility.yul\":9456:9493   */\n    tag_293:\n        /* \"#utility.yul\":9306:9500   */\n      swap3\n      swap2\n      pop\n      pop\n      jump\t// out\n        /* \"#utility.yul\":9506:9682   */\n    tag_178:\n        /* \"#utility.yul\":9646:9674   */\n      0x54686973204e465420697320616c7265616479206c6973746564000000000000\n        /* \"#utility.yul\":9642:9643   */\n      0x00\n        /* \"#utility.yul\":9634:9640   */\n      dup3\n        /* \"#utility.yul\":9630:9644   */\n      add\n        /* \"#utility.yul\":9623:9675   */\n      mstore\n        /* \"#utility.yul\":9506:9682   */\n      pop\n      jump\t// out\n        /* \"#utility.yul\":9688:10054   */\n    tag_179:\n        /* \"#utility.yul\":9830:9833   */\n      0x00\n        /* \"#utility.yul\":9851:9918   */\n      tag_297\n        /* \"#utility.yul\":9915:9917   */\n      0x1a\n        /* \"#utility.yul\":9910:9913   */\n      dup4\n        /* \"#utility.yul\":9851:9918   */\n      tag_174\n      jump\t// in\n    tag_297:\n        /* \"#utility.yul\":9844:9918   */\n      swap2\n      pop\n        /* \"#utility.yul\":9927:10020   */\n      tag_298\n        /* \"#utility.yul\":10016:10019   */\n      dup3\n        /* \"#utility.yul\":9927:10020   */\n      tag_178\n      jump\t// in\n    tag_298:\n        /* \"#utility.yul\":10045:10047   */\n      0x20\n        /* \"#utility.yul\":10040:10043   */\n      dup3\n        /* \"#utility.yul\":10036:10048   */\n      add\n        /* \"#utility.yul\":10029:10048   */\n      swap1\n      pop\n        /* \"#utility.yul\":9688:10054   */\n      swap2\n      swap1\n      pop\n      jump\t// out\n        /* \"#utility.yul\":10060:10479   */\n    tag_98:\n        /* \"#utility.yul\":10226:10230   */\n      0x00\n        /* \"#utility.yul\":10264:10266   */\n      0x20\n        /* \"#utility.yul\":10253:10262   */\n      dup3\n        /* \"#utility.yul\":10249:10267   */\n      add\n        /* \"#utility.yul\":10241:10267   */\n      swap1\n      pop\n        /* \"#utility.yul\":10313:10322   */\n      dup2\n        /* \"#utility.yul\":10307:10311   */\n      dup2\n        /* \"#utility.yul\":10303:10323   */\n      sub\n        /* \"#utility.yul\":10299:10300   */\n      0x00\n        /* \"#utility.yul\":10288:10297   */\n      dup4\n        /* \"#utility.yul\":10284:10301   */\n      add\n        /* \"#utility.yul\":10277:10324   */\n      mstore\n        /* \"#utility.yul\":10341:10472   */\n      tag_300\n        /* \"#utility.yul\":10467:10471   */\n      dup2\n        /* \"#utility.yul\":10341:10472   */\n      tag_179\n      jump\t// in\n    tag_300:\n        /* \"#utility.yul\":10333:10472   */\n      swap1\n      pop\n        /* \"#utility.yul\":10060:10479   */\n      swap2\n      swap1\n      pop\n      jump\t// out\n        /* \"#utility.yul\":10485:10653   */\n    tag_180:\n        /* \"#utility.yul\":10568:10579   */\n      0x00\n        /* \"#utility.yul\":10602:10608   */\n      dup3\n        /* \"#utility.yul\":10597:10600   */\n      dup3\n        /* \"#utility.yul\":10590:10609   */\n      mstore\n        /* \"#utility.yul\":10642:10646   */\n      0x20\n        /* \"#utility.yul\":10637:10640   */\n      dup3\n        /* \"#utility.yul\":10633:10647   */\n      add\n        /* \"#utility.yul\":10618:10647   */\n      swap1\n      pop\n        /* \"#utility.yul\":10485:10653   */\n      swap3\n      swap2\n      pop\n      pop\n      jump\t// out\n        /* \"#utility.yul\":10659:10826   */\n    tag_181:\n        /* \"#utility.yul\":10799:10818   */\n      0x4c697374207375636365737366756c6c79000000000000000000000000000000\n        /* \"#utility.yul\":10795:10796   */\n      0x00\n        /* \"#utility.yul\":10787:10793   */\n      dup3\n        /* \"#utility.yul\":10783:10797   */\n      add\n        /* \"#utility.yul\":10776:10819   */\n      mstore\n        /* \"#utility.yul\":10659:10826   */\n      pop\n      jump\t// out\n        /* \"#utility.yul\":10832:11196   */\n    tag_182:\n        /* \"#utility.yul\":10973:10976   */\n      0x00\n        /* \"#utility.yul\":10994:11060   */\n      tag_304\n        /* \"#utility.yul\":11057:11059   */\n      0x11\n        /* \"#utility.yul\":11052:11055   */\n      dup4\n        /* \"#utility.yul\":10994:11060   */\n      tag_180\n      jump\t// in\n    tag_304:\n        /* \"#utility.yul\":10987:11060   */\n      swap2\n      pop\n        /* \"#utility.yul\":11069:11162   */\n      tag_305\n        /* \"#utility.yul\":11158:11161   */\n      dup3\n        /* \"#utility.yul\":11069:11162   */\n      tag_181\n      jump\t// in\n    tag_305:\n        /* \"#utility.yul\":11187:11189   */\n      0x20\n        /* \"#utility.yul\":11182:11185   */\n      dup3\n        /* \"#utility.yul\":11178:11190   */\n      add\n        /* \"#utility.yul\":11171:11190   */\n      swap1\n      pop\n        /* \"#utility.yul\":10832:11196   */\n      swap2\n      swap1\n      pop\n      jump\t// out\n        /* \"#utility.yul\":11202:11950   */\n    tag_100:\n        /* \"#utility.yul\":11451:11455   */\n      0x00\n        /* \"#utility.yul\":11489:11492   */\n      0x80\n        /* \"#utility.yul\":11478:11487   */\n      dup3\n        /* \"#utility.yul\":11474:11493   */\n      add\n        /* \"#utility.yul\":11466:11493   */\n      swap1\n      pop\n        /* \"#utility.yul\":11503:11574   */\n      tag_307\n        /* \"#utility.yul\":11571:11572   */\n      0x00\n        /* \"#utility.yul\":11560:11569   */\n      dup4\n        /* \"#utility.yul\":11556:11573   */\n      add\n        /* \"#utility.yul\":11547:11553   */\n      dup7\n        /* \"#utility.yul\":11503:11574   */\n      tag_170\n      jump\t// in\n    tag_307:\n        /* \"#utility.yul\":11584:11656   */\n      tag_308\n        /* \"#utility.yul\":11652:11654   */\n      0x20\n        /* \"#utility.yul\":11641:11650   */\n      dup4\n        /* \"#utility.yul\":11637:11655   */\n      add\n        /* \"#utility.yul\":11628:11634   */\n      dup6\n        /* \"#utility.yul\":11584:11656   */\n      tag_170\n      jump\t// in\n    tag_308:\n        /* \"#utility.yul\":11666:11738   */\n      tag_309\n        /* \"#utility.yul\":11734:11736   */\n      0x40\n        /* \"#utility.yul\":11723:11732   */\n      dup4\n        /* \"#utility.yul\":11719:11737   */\n      add\n        /* \"#utility.yul\":11710:11716   */\n      dup5\n        /* \"#utility.yul\":11666:11738   */\n      tag_163\n      jump\t// in\n    tag_309:\n        /* \"#utility.yul\":11785:11794   */\n      dup2\n        /* \"#utility.yul\":11779:11783   */\n      dup2\n        /* \"#utility.yul\":11775:11795   */\n      sub\n        /* \"#utility.yul\":11770:11772   */\n      0x60\n        /* \"#utility.yul\":11759:11768   */\n      dup4\n        /* \"#utility.yul\":11755:11773   */\n      add\n        /* \"#utility.yul\":11748:11796   */\n      mstore\n        /* \"#utility.yul\":11813:11943   */\n      tag_310\n        /* \"#utility.yul\":11938:11942   */\n      dup2\n        /* \"#utility.yul\":11813:11943   */\n      tag_182\n      jump\t// in\n    tag_310:\n        /* \"#utility.yul\":11805:11943   */\n      swap1\n      pop\n        /* \"#utility.yul\":11202:11950   */\n      swap5\n      swap4\n      pop\n      pop\n      pop\n      pop\n      jump\t// out\n        /* \"#utility.yul\":11956:12176   */\n    tag_183:\n        /* \"#utility.yul\":12096:12130   */\n      0x4e6f74206f726967696e616c206f776e6572206f72204e6f74206f6e2073616c\n        /* \"#utility.yul\":12092:12093   */\n      0x00\n        /* \"#utility.yul\":12084:12090   */\n      dup3\n        /* \"#utility.yul\":12080:12094   */\n      add\n        /* \"#utility.yul\":12073:12131   */\n      mstore\n        /* \"#utility.yul\":12165:12168   */\n      0x6500000000000000000000000000000000000000000000000000000000000000\n        /* \"#utility.yul\":12160:12162   */\n      0x20\n        /* \"#utility.yul\":12152:12158   */\n      dup3\n        /* \"#utility.yul\":12148:12163   */\n      add\n        /* \"#utility.yul\":12141:12169   */\n      mstore\n        /* \"#utility.yul\":11956:12176   */\n      pop\n      jump\t// out\n        /* \"#utility.yul\":12182:12548   */\n    tag_184:\n        /* \"#utility.yul\":12324:12327   */\n      0x00\n        /* \"#utility.yul\":12345:12412   */\n      tag_313\n        /* \"#utility.yul\":12409:12411   */\n      0x21\n        /* \"#utility.yul\":12404:12407   */\n      dup4\n        /* \"#utility.yul\":12345:12412   */\n      tag_174\n      jump\t// in\n    tag_313:\n        /* \"#utility.yul\":12338:12412   */\n      swap2\n      pop\n        /* \"#utility.yul\":12421:12514   */\n      tag_314\n        /* \"#utility.yul\":12510:12513   */\n      dup3\n        /* \"#utility.yul\":12421:12514   */\n      tag_183\n      jump\t// in\n    tag_314:\n        /* \"#utility.yul\":12539:12541   */\n      0x40\n        /* \"#utility.yul\":12534:12537   */\n      dup3\n        /* \"#utility.yul\":12530:12542   */\n      add\n        /* \"#utility.yul\":12523:12542   */\n      swap1\n      pop\n        /* \"#utility.yul\":12182:12548   */\n      swap2\n      swap1\n      pop\n      jump\t// out\n        /* \"#utility.yul\":12554:12973   */\n    tag_115:\n        /* \"#utility.yul\":12720:12724   */\n      0x00\n        /* \"#utility.yul\":12758:12760   */\n      0x20\n        /* \"#utility.yul\":12747:12756   */\n      dup3\n        /* \"#utility.yul\":12743:12761   */\n      add\n        /* \"#utility.yul\":12735:12761   */\n      swap1\n      pop\n        /* \"#utility.yul\":12807:12816   */\n      dup2\n        /* \"#utility.yul\":12801:12805   */\n      dup2\n        /* \"#utility.yul\":12797:12817   */\n      sub\n        /* \"#utility.yul\":12793:12794   */\n      0x00\n        /* \"#utility.yul\":12782:12791   */\n      dup4\n        /* \"#utility.yul\":12778:12795   */\n      add\n        /* \"#utility.yul\":12771:12818   */\n      mstore\n        /* \"#utility.yul\":12835:12966   */\n      tag_316\n        /* \"#utility.yul\":12961:12965   */\n      dup2\n        /* \"#utility.yul\":12835:12966   */\n      tag_184\n      jump\t// in\n    tag_316:\n        /* \"#utility.yul\":12827:12966   */\n      swap1\n      pop\n        /* \"#utility.yul\":12554:12973   */\n      swap2\n      swap1\n      pop\n      jump\t// out\n        /* \"#utility.yul\":12979:13148   */\n    tag_185:\n        /* \"#utility.yul\":13119:13140   */\n      0x44656c697374207375636365737366756c6c7900000000000000000000000000\n        /* \"#utility.yul\":13115:13116   */\n      0x00\n        /* \"#utility.yul\":13107:13113   */\n      dup3\n        /* \"#utility.yul\":13103:13117   */\n      add\n        /* \"#utility.yul\":13096:13141   */\n      mstore\n        /* \"#utility.yul\":12979:13148   */\n      pop\n      jump\t// out\n        /* \"#utility.yul\":13154:13518   */\n    tag_186:\n        /* \"#utility.yul\":13295:13298   */\n      0x00\n        /* \"#utility.yul\":13316:13382   */\n      tag_319\n        /* \"#utility.yul\":13379:13381   */\n      0x13\n        /* \"#utility.yul\":13374:13377   */\n      dup4\n        /* \"#utility.yul\":13316:13382   */\n      tag_180\n      jump\t// in\n    tag_319:\n        /* \"#utility.yul\":13309:13382   */\n      swap2\n      pop\n        /* \"#utility.yul\":13391:13484   */\n      tag_320\n        /* \"#utility.yul\":13480:13483   */\n      dup3\n        /* \"#utility.yul\":13391:13484   */\n      tag_185\n      jump\t// in\n    tag_320:\n        /* \"#utility.yul\":13509:13511   */\n      0x20\n        /* \"#utility.yul\":13504:13507   */\n      dup3\n        /* \"#utility.yul\":13500:13512   */\n      add\n        /* \"#utility.yul\":13493:13512   */\n      swap1\n      pop\n        /* \"#utility.yul\":13154:13518   */\n      swap2\n      swap1\n      pop\n      jump\t// out\n        /* \"#utility.yul\":13524:14272   */\n    tag_118:\n        /* \"#utility.yul\":13773:13777   */\n      0x00\n        /* \"#utility.yul\":13811:13814   */\n      0x80\n        /* \"#utility.yul\":13800:13809   */\n      dup3\n        /* \"#utility.yul\":13796:13815   */\n      add\n        /* \"#utility.yul\":13788:13815   */\n      swap1\n      pop\n        /* \"#utility.yul\":13825:13896   */\n      tag_322\n        /* \"#utility.yul\":13893:13894   */\n      0x00\n        /* \"#utility.yul\":13882:13891   */\n      dup4\n        /* \"#utility.yul\":13878:13895   */\n      add\n        /* \"#utility.yul\":13869:13875   */\n      dup7\n        /* \"#utility.yul\":13825:13896   */\n      tag_170\n      jump\t// in\n    tag_322:\n        /* \"#utility.yul\":13906:13978   */\n      tag_323\n        /* \"#utility.yul\":13974:13976   */\n      0x20\n        /* \"#utility.yul\":13963:13972   */\n      dup4\n        /* \"#utility.yul\":13959:13977   */\n      add\n        /* \"#utility.yul\":13950:13956   */\n      dup6\n        /* \"#utility.yul\":13906:13978   */\n      tag_170\n      jump\t// in\n    tag_323:\n        /* \"#utility.yul\":13988:14060   */\n      tag_324\n        /* \"#utility.yul\":14056:14058   */\n      0x40\n        /* \"#utility.yul\":14045:14054   */\n      dup4\n        /* \"#utility.yul\":14041:14059   */\n      add\n        /* \"#utility.yul\":14032:14038   */\n      dup5\n        /* \"#utility.yul\":13988:14060   */\n      tag_163\n      jump\t// in\n    tag_324:\n        /* \"#utility.yul\":14107:14116   */\n      dup2\n        /* \"#utility.yul\":14101:14105   */\n      dup2\n        /* \"#utility.yul\":14097:14117   */\n      sub\n        /* \"#utility.yul\":14092:14094   */\n      0x60\n        /* \"#utility.yul\":14081:14090   */\n      dup4\n        /* \"#utility.yul\":14077:14095   */\n      add\n        /* \"#utility.yul\":14070:14118   */\n      mstore\n        /* \"#utility.yul\":14135:14265   */\n      tag_325\n        /* \"#utility.yul\":14260:14264   */\n      dup2\n        /* \"#utility.yul\":14135:14265   */\n      tag_186\n      jump\t// in\n    tag_325:\n        /* \"#utility.yul\":14127:14265   */\n      swap1\n      pop\n        /* \"#utility.yul\":13524:14272   */\n      swap5\n      swap4\n      pop\n      pop\n      pop\n      pop\n      jump\t// out\n        /* \"#utility.yul\":14278:14445   */\n    tag_187:\n        /* \"#utility.yul\":14418:14437   */\n      0x4f776e65722063616e6e6f742062757921000000000000000000000000000000\n        /* \"#utility.yul\":14414:14415   */\n      0x00\n        /* \"#utility.yul\":14406:14412   */\n      dup3\n        /* \"#utility.yul\":14402:14416   */\n      add\n        /* \"#utility.yul\":14395:14438   */\n      mstore\n        /* \"#utility.yul\":14278:14445   */\n      pop\n      jump\t// out\n        /* \"#utility.yul\":14451:14817   */\n    tag_188:\n        /* \"#utility.yul\":14593:14596   */\n      0x00\n        /* \"#utility.yul\":14614:14681   */\n      tag_328\n        /* \"#utility.yul\":14678:14680   */\n      0x11\n        /* \"#utility.yul\":14673:14676   */\n      dup4\n        /* \"#utility.yul\":14614:14681   */\n      tag_174\n      jump\t// in\n    tag_328:\n        /* \"#utility.yul\":14607:14681   */\n      swap2\n      pop\n        /* \"#utility.yul\":14690:14783   */\n      tag_329\n        /* \"#utility.yul\":14779:14782   */\n      dup3\n        /* \"#utility.yul\":14690:14783   */\n      tag_187\n      jump\t// in\n    tag_329:\n        /* \"#utility.yul\":14808:14810   */\n      0x20\n        /* \"#utility.yul\":14803:14806   */\n      dup3\n        /* \"#utility.yul\":14799:14811   */\n      add\n        /* \"#utility.yul\":14792:14811   */\n      swap1\n      pop\n        /* \"#utility.yul\":14451:14817   */\n      swap2\n      swap1\n      pop\n      jump\t// out\n        /* \"#utility.yul\":14823:15242   */\n    tag_132:\n        /* \"#utility.yul\":14989:14993   */\n      0x00\n        /* \"#utility.yul\":15027:15029   */\n      0x20\n        /* \"#utility.yul\":15016:15025   */\n      dup3\n        /* \"#utility.yul\":15012:15030   */\n      add\n        /* \"#utility.yul\":15004:15030   */\n      swap1\n      pop\n        /* \"#utility.yul\":15076:15085   */\n      dup2\n        /* \"#utility.yul\":15070:15074   */\n      dup2\n        /* \"#utility.yul\":15066:15086   */\n      sub\n        /* \"#utility.yul\":15062:15063   */\n      0x00\n        /* \"#utility.yul\":15051:15060   */\n      dup4\n        /* \"#utility.yul\":15047:15064   */\n      add\n        /* \"#utility.yul\":15040:15087   */\n      mstore\n        /* \"#utility.yul\":15104:15235   */\n      tag_331\n        /* \"#utility.yul\":15230:15234   */\n      dup2\n        /* \"#utility.yul\":15104:15235   */\n      tag_188\n      jump\t// in\n    tag_331:\n        /* \"#utility.yul\":15096:15235   */\n      swap1\n      pop\n        /* \"#utility.yul\":14823:15242   */\n      swap2\n      swap1\n      pop\n      jump\t// out\n        /* \"#utility.yul\":15248:15690   */\n    tag_134:\n        /* \"#utility.yul\":15397:15401   */\n      0x00\n        /* \"#utility.yul\":15435:15437   */\n      0x60\n        /* \"#utility.yul\":15424:15433   */\n      dup3\n        /* \"#utility.yul\":15420:15438   */\n      add\n        /* \"#utility.yul\":15412:15438   */\n      swap1\n      pop\n        /* \"#utility.yul\":15448:15519   */\n      tag_333\n        /* \"#utility.yul\":15516:15517   */\n      0x00\n        /* \"#utility.yul\":15505:15514   */\n      dup4\n        /* \"#utility.yul\":15501:15518   */\n      add\n        /* \"#utility.yul\":15492:15498   */\n      dup7\n        /* \"#utility.yul\":15448:15519   */\n      tag_170\n      jump\t// in\n    tag_333:\n        /* \"#utility.yul\":15529:15601   */\n      tag_334\n        /* \"#utility.yul\":15597:15599   */\n      0x20\n        /* \"#utility.yul\":15586:15595   */\n      dup4\n        /* \"#utility.yul\":15582:15600   */\n      add\n        /* \"#utility.yul\":15573:15579   */\n      dup6\n        /* \"#utility.yul\":15529:15601   */\n      tag_170\n      jump\t// in\n    tag_334:\n        /* \"#utility.yul\":15611:15683   */\n      tag_335\n        /* \"#utility.yul\":15679:15681   */\n      0x40\n        /* \"#utility.yul\":15668:15677   */\n      dup4\n        /* \"#utility.yul\":15664:15682   */\n      add\n        /* \"#utility.yul\":15655:15661   */\n      dup5\n        /* \"#utility.yul\":15611:15683   */\n      tag_163\n      jump\t// in\n    tag_335:\n        /* \"#utility.yul\":15248:15690   */\n      swap5\n      swap4\n      pop\n      pop\n      pop\n      pop\n      jump\t// out\n        /* \"#utility.yul\":15696:15923   */\n    tag_189:\n        /* \"#utility.yul\":15836:15870   */\n      0x4661696c20746f20627579206f7220416c6c6f77616e636520697320696e7375\n        /* \"#utility.yul\":15832:15833   */\n      0x00\n        /* \"#utility.yul\":15824:15830   */\n      dup3\n        /* \"#utility.yul\":15820:15834   */\n      add\n        /* \"#utility.yul\":15813:15871   */\n      mstore\n        /* \"#utility.yul\":15905:15915   */\n      0x6666696369656e74000000000000000000000000000000000000000000000000\n        /* \"#utility.yul\":15900:15902   */\n      0x20\n        /* \"#utility.yul\":15892:15898   */\n      dup3\n        /* \"#utility.yul\":15888:15903   */\n      add\n        /* \"#utility.yul\":15881:15916   */\n      mstore\n        /* \"#utility.yul\":15696:15923   */\n      pop\n      jump\t// out\n        /* \"#utility.yul\":15929:16295   */\n    tag_190:\n        /* \"#utility.yul\":16071:16074   */\n      0x00\n        /* \"#utility.yul\":16092:16159   */\n      tag_338\n        /* \"#utility.yul\":16156:16158   */\n      0x28\n        /* \"#utility.yul\":16151:16154   */\n      dup4\n        /* \"#utility.yul\":16092:16159   */\n      tag_174\n      jump\t// in\n    tag_338:\n        /* \"#utility.yul\":16085:16159   */\n      swap2\n      pop\n        /* \"#utility.yul\":16168:16261   */\n      tag_339\n        /* \"#utility.yul\":16257:16260   */\n      dup3\n        /* \"#utility.yul\":16168:16261   */\n      tag_189\n      jump\t// in\n    tag_339:\n        /* \"#utility.yul\":16286:16288   */\n      0x40\n        /* \"#utility.yul\":16281:16284   */\n      dup3\n        /* \"#utility.yul\":16277:16289   */\n      add\n        /* \"#utility.yul\":16270:16289   */\n      swap1\n      pop\n        /* \"#utility.yul\":15929:16295   */\n      swap2\n      swap1\n      pop\n      jump\t// out\n        /* \"#utility.yul\":16301:16720   */\n    tag_140:\n        /* \"#utility.yul\":16467:16471   */\n      0x00\n        /* \"#utility.yul\":16505:16507   */\n      0x20\n        /* \"#utility.yul\":16494:16503   */\n      dup3\n        /* \"#utility.yul\":16490:16508   */\n      add\n        /* \"#utility.yul\":16482:16508   */\n      swap1\n      pop\n        /* \"#utility.yul\":16554:16563   */\n      dup2\n        /* \"#utility.yul\":16548:16552   */\n      dup2\n        /* \"#utility.yul\":16544:16564   */\n      sub\n        /* \"#utility.yul\":16540:16541   */\n      0x00\n        /* \"#utility.yul\":16529:16538   */\n      dup4\n        /* \"#utility.yul\":16525:16542   */\n      add\n        /* \"#utility.yul\":16518:16565   */\n      mstore\n        /* \"#utility.yul\":16582:16713   */\n      tag_341\n        /* \"#utility.yul\":16708:16712   */\n      dup2\n        /* \"#utility.yul\":16582:16713   */\n      tag_190\n      jump\t// in\n    tag_341:\n        /* \"#utility.yul\":16574:16713   */\n      swap1\n      pop\n        /* \"#utility.yul\":16301:16720   */\n      swap2\n      swap1\n      pop\n      jump\t// out\n        /* \"#utility.yul\":16726:16917   */\n    tag_146:\n        /* \"#utility.yul\":16766:16769   */\n      0x00\n        /* \"#utility.yul\":16785:16805   */\n      tag_343\n        /* \"#utility.yul\":16803:16804   */\n      dup3\n        /* \"#utility.yul\":16785:16805   */\n      tag_158\n      jump\t// in\n    tag_343:\n        /* \"#utility.yul\":16780:16805   */\n      swap2\n      pop\n        /* \"#utility.yul\":16819:16839   */\n      tag_344\n        /* \"#utility.yul\":16837:16838   */\n      dup4\n        /* \"#utility.yul\":16819:16839   */\n      tag_158\n      jump\t// in\n    tag_344:\n        /* \"#utility.yul\":16814:16839   */\n      swap3\n      pop\n        /* \"#utility.yul\":16862:16863   */\n      dup3\n        /* \"#utility.yul\":16859:16860   */\n      dup3\n        /* \"#utility.yul\":16855:16864   */\n      add\n        /* \"#utility.yul\":16848:16864   */\n      swap1\n      pop\n        /* \"#utility.yul\":16883:16886   */\n      dup1\n        /* \"#utility.yul\":16880:16881   */\n      dup3\n        /* \"#utility.yul\":16877:16887   */\n      gt\n        /* \"#utility.yul\":16874:16910   */\n      iszero\n      tag_345\n      jumpi\n        /* \"#utility.yul\":16890:16908   */\n      tag_346\n      tag_177\n      jump\t// in\n    tag_346:\n        /* \"#utility.yul\":16874:16910   */\n    tag_345:\n        /* \"#utility.yul\":16726:16917   */\n      swap3\n      swap2\n      pop\n      pop\n      jump\t// out\n\n    auxdata: 0xa26469706673582212202dba0b77a24dc552826b5850dbe79532ffb130a3ffe5557b3893e9f5fc839dcb64736f6c63430008150033\n}\n",
				"bytecode": {
					"linkReferences": {},
					"object": "60a060405234801562000010575f80fd5b5060405162001a6e38038062001a6e8339818101604052810190620000369190620000d6565b8073ffffffffffffffffffffffffffffffffffffffff1660808173ffffffffffffffffffffffffffffffffffffffff16815250505062000106565b5f80fd5b5f73ffffffffffffffffffffffffffffffffffffffff82169050919050565b5f620000a08262000075565b9050919050565b620000b28162000094565b8114620000bd575f80fd5b50565b5f81519050620000d081620000a7565b92915050565b5f60208284031215620000ee57620000ed62000071565b5b5f620000fd84828501620000c0565b91505092915050565b6080516119416200012d5f395f818161038d015281816104930152610df801526119415ff3fe608060405234801561000f575f80fd5b50600436106100a7575f3560e01c80635fbe4d1d1161006f5780635fbe4d1d14610189578063a59ac6dd146101a7578063d7dac040146101c3578063da76d5cd146101df578063dda342bb146101fb578063f074258e14610217576100a7565b80630f9cb829146100ab57806312065fe0146100db578063150b7a02146100f95780632f634a9014610129578063449e815d14610159575b5f80fd5b6100c560048036038101906100c09190611155565b610233565b6040516100d291906111ad565b60405180910390f35b6100e361025d565b6040516100f091906111d5565b60405180910390f35b610113600480360381019061010e919061124f565b6102a1565b604051610120919061130d565b60405180910390f35b610143600480360381019061013e9190611155565b6102b5565b6040516101509190611335565b60405180910390f35b610173600480360381019061016e9190611155565b610336565b60405161018091906111d5565b60405180910390f35b61019161038b565b60405161019e9190611335565b60405180910390f35b6101c160048036038101906101bc919061134e565b6103af565b005b6101dd60048036038101906101d8919061134e565b6103bf565b005b6101f960048036038101906101f4919061139e565b6103cf565b005b6102156004803603810190610210919061134e565b6105c5565b005b610231600480360381019061022c9190611155565b610903565b005b6002602052815f5260405f20602052805f5260405f205f915091509054906101000a900460ff1681565b5f60015f3373ffffffffffffffffffffffffffffffffffffffff1673ffffffffffffffffffffffffffffffffffffffff1681526020019081526020015f2054905090565b5f63150b7a0260e01b905095945050505050565b5f8273ffffffffffffffffffffffffffffffffffffffff16636352211e836040518263ffffffff1660e01b81526004016102ef91906111d5565b602060405180830381865afa15801561030a573d5f803e3d5ffd5b505050506040513d601f19601f8201168201806040525081019061032e91906113dd565b905092915050565b5f805f8473ffffffffffffffffffffffffffffffffffffffff1673ffffffffffffffffffffffffffffffffffffffff1681526020019081526020015f205f8381526020019081526020015f2054905092915050565b7f000000000000000000000000000000000000000000000000000000000000000081565b6103ba838383610b9d565b505050565b6103ca838383610b9d565b505050565b60015f3373ffffffffffffffffffffffffffffffffffffffff1673ffffffffffffffffffffffffffffffffffffffff1681526020019081526020015f2054811115610490578060015f3373ffffffffffffffffffffffffffffffffffffffff1673ffffffffffffffffffffffffffffffffffffffff1681526020019081526020015f20546040517f1e6b7c1d000000000000000000000000000000000000000000000000000000008152600401610487929190611408565b60405180910390fd5b5f7f000000000000000000000000000000000000000000000000000000000000000073ffffffffffffffffffffffffffffffffffffffff1663a9059cbb33846040518363ffffffff1660e01b81526004016104ec92919061142f565b6020604051808303815f875af1158015610508573d5f803e3d5ffd5b505050506040513d601f19601f8201168201806040525081019061052c9190611480565b90508061056e576040517f08c379a000000000000000000000000000000000000000000000000000000000815260040161056590611505565b60405180910390fd5b8160015f3373ffffffffffffffffffffffffffffffffffffffff1673ffffffffffffffffffffffffffffffffffffffff1681526020019081526020015f205f8282546105ba9190611550565b925050819055505050565b8273ffffffffffffffffffffffffffffffffffffffff16636352211e836040518263ffffffff1660e01b81526004016105fe91906111d5565b602060405180830381865afa158015610619573d5f803e3d5ffd5b505050506040513d601f19601f8201168201806040525081019061063d91906113dd565b73ffffffffffffffffffffffffffffffffffffffff163373ffffffffffffffffffffffffffffffffffffffff16146106a1576040517f30cd747100000000000000000000000000000000000000000000000000000000815260040160405180910390fd5b5f81036106da576040517f4dfba02300000000000000000000000000000000000000000000000000000000815260040160405180910390fd5b5f151560025f8573ffffffffffffffffffffffffffffffffffffffff1673ffffffffffffffffffffffffffffffffffffffff1681526020019081526020015f205f8481526020019081526020015f205f9054906101000a900460ff16151514610778576040517f08c379a000000000000000000000000000000000000000000000000000000000815260040161076f906115cd565b60405180910390fd5b8273ffffffffffffffffffffffffffffffffffffffff1663b88d4fde3330856040518463ffffffff1660e01b81526004016107b593929190611645565b5f604051808303815f87803b1580156107cc575f80fd5b505af11580156107de573d5f803e3d5ffd5b505050508273ffffffffffffffffffffffffffffffffffffffff1663095ea7b333846040518363ffffffff1660e01b815260040161081d92919061142f565b5f604051808303815f87803b158015610834575f80fd5b505af1158015610846573d5f803e3d5ffd5b50505050805f808573ffffffffffffffffffffffffffffffffffffffff1673ffffffffffffffffffffffffffffffffffffffff1681526020019081526020015f205f8481526020019081526020015f2081905550600160025f8573ffffffffffffffffffffffffffffffffffffffff1673ffffffffffffffffffffffffffffffffffffffff1681526020019081526020015f205f8481526020019081526020015f205f6101000a81548160ff021916908315150217905550505050565b3373ffffffffffffffffffffffffffffffffffffffff168273ffffffffffffffffffffffffffffffffffffffff1663081812fc836040518263ffffffff1660e01b815260040161095391906111d5565b602060405180830381865afa15801561096e573d5f803e3d5ffd5b505050506040513d601f19601f8201168201806040525081019061099291906113dd565b73ffffffffffffffffffffffffffffffffffffffff16146109e8576040517f08c379a00000000000000000000000000000000000000000000000000000000081526004016109df906116fd565b60405180910390fd5b6001151560025f8473ffffffffffffffffffffffffffffffffffffffff1673ffffffffffffffffffffffffffffffffffffffff1681526020019081526020015f205f8381526020019081526020015f205f9054906101000a900460ff16151514610a7e576040517fc6b0e90b00000000000000000000000000000000000000000000000000000000815260040160405180910390fd5b8173ffffffffffffffffffffffffffffffffffffffff1663b88d4fde3033846040518463ffffffff1660e01b8152600401610abb93929190611765565b5f604051808303815f87803b158015610ad2575f80fd5b505af1158015610ae4573d5f803e3d5ffd5b505050505f808373ffffffffffffffffffffffffffffffffffffffff1673ffffffffffffffffffffffffffffffffffffffff1681526020019081526020015f205f8281526020019081526020015f205f90555f60025f8473ffffffffffffffffffffffffffffffffffffffff1673ffffffffffffffffffffffffffffffffffffffff1681526020019081526020015f205f8381526020019081526020015f205f6101000a81548160ff0219169083151502179055505050565b6001151560025f8573ffffffffffffffffffffffffffffffffffffffff1673ffffffffffffffffffffffffffffffffffffffff1681526020019081526020015f205f8481526020019081526020015f205f9054906101000a900460ff16151514610c33576040517fc6b0e90b00000000000000000000000000000000000000000000000000000000815260040160405180910390fd5b5f808473ffffffffffffffffffffffffffffffffffffffff1673ffffffffffffffffffffffffffffffffffffffff1681526020019081526020015f205f8381526020019081526020015f2054811015610d1057805f808573ffffffffffffffffffffffffffffffffffffffff1673ffffffffffffffffffffffffffffffffffffffff1681526020019081526020015f205f8481526020019081526020015f20546040517f090bde13000000000000000000000000000000000000000000000000000000008152600401610d07929190611408565b60405180910390fd5b8273ffffffffffffffffffffffffffffffffffffffff1663081812fc836040518263ffffffff1660e01b8152600401610d4991906111d5565b602060405180830381865afa158015610d64573d5f803e3d5ffd5b505050506040513d601f19601f82011682018060405250810190610d8891906113dd565b73ffffffffffffffffffffffffffffffffffffffff163373ffffffffffffffffffffffffffffffffffffffff1603610df5576040517f08c379a0000000000000000000000000000000000000000000000000000000008152600401610dec906117f7565b60405180910390fd5b5f7f000000000000000000000000000000000000000000000000000000000000000073ffffffffffffffffffffffffffffffffffffffff166323b872dd3330856040518463ffffffff1660e01b8152600401610e5393929190611815565b6020604051808303815f875af1158015610e6f573d5f803e3d5ffd5b505050506040513d601f19601f82011682018060405250810190610e939190611480565b905080610ed5576040517f08c379a0000000000000000000000000000000000000000000000000000000008152600401610ecc906118ba565b60405180910390fd5b8160015f8673ffffffffffffffffffffffffffffffffffffffff1663081812fc876040518263ffffffff1660e01b8152600401610f1291906111d5565b602060405180830381865afa158015610f2d573d5f803e3d5ffd5b505050506040513d601f19601f82011682018060405250810190610f5191906113dd565b73ffffffffffffffffffffffffffffffffffffffff1673ffffffffffffffffffffffffffffffffffffffff1681526020019081526020015f205f828254610f9891906118d8565b925050819055508373ffffffffffffffffffffffffffffffffffffffff166323b872dd3033866040518463ffffffff1660e01b8152600401610fdc93929190611815565b5f604051808303815f87803b158015610ff3575f80fd5b505af1158015611005573d5f803e3d5ffd5b505050505f808573ffffffffffffffffffffffffffffffffffffffff1673ffffffffffffffffffffffffffffffffffffffff1681526020019081526020015f205f8481526020019081526020015f205f90555f60025f8673ffffffffffffffffffffffffffffffffffffffff1673ffffffffffffffffffffffffffffffffffffffff1681526020019081526020015f205f8581526020019081526020015f205f6101000a81548160ff02191690831515021790555050505050565b5f80fd5b5f80fd5b5f73ffffffffffffffffffffffffffffffffffffffff82169050919050565b5f6110f1826110c8565b9050919050565b611101816110e7565b811461110b575f80fd5b50565b5f8135905061111c816110f8565b92915050565b5f819050919050565b61113481611122565b811461113e575f80fd5b50565b5f8135905061114f8161112b565b92915050565b5f806040838503121561116b5761116a6110c0565b5b5f6111788582860161110e565b925050602061118985828601611141565b9150509250929050565b5f8115159050919050565b6111a781611193565b82525050565b5f6020820190506111c05f83018461119e565b92915050565b6111cf81611122565b82525050565b5f6020820190506111e85f8301846111c6565b92915050565b5f80fd5b5f80fd5b5f80fd5b5f8083601f84011261120f5761120e6111ee565b5b8235905067ffffffffffffffff81111561122c5761122b6111f2565b5b602083019150836001820283011115611248576112476111f6565b5b9250929050565b5f805f805f60808688031215611268576112676110c0565b5b5f6112758882890161110e565b95505060206112868882890161110e565b945050604061129788828901611141565b935050606086013567ffffffffffffffff8111156112b8576112b76110c4565b5b6112c4888289016111fa565b92509250509295509295909350565b5f7fffffffff0000000000000000000000000000000000000000000000000000000082169050919050565b611307816112d3565b82525050565b5f6020820190506113205f8301846112fe565b92915050565b61132f816110e7565b82525050565b5f6020820190506113485f830184611326565b92915050565b5f805f60608486031215611365576113646110c0565b5b5f6113728682870161110e565b935050602061138386828701611141565b925050604061139486828701611141565b9150509250925092565b5f602082840312156113b3576113b26110c0565b5b5f6113c084828501611141565b91505092915050565b5f815190506113d7816110f8565b92915050565b5f602082840312156113f2576113f16110c0565b5b5f6113ff848285016113c9565b91505092915050565b5f60408201905061141b5f8301856111c6565b61142860208301846111c6565b9392505050565b5f6040820190506114425f830185611326565b61144f60208301846111c6565b9392505050565b61145f81611193565b8114611469575f80fd5b50565b5f8151905061147a81611456565b92915050565b5f60208284031215611495576114946110c0565b5b5f6114a28482850161146c565b91505092915050565b5f82825260208201905092915050565b7f7769746864726177616c206661696c65640000000000000000000000000000005f82015250565b5f6114ef6011836114ab565b91506114fa826114bb565b602082019050919050565b5f6020820190508181035f83015261151c816114e3565b9050919050565b7f4e487b71000000000000000000000000000000000000000000000000000000005f52601160045260245ffd5b5f61155a82611122565b915061156583611122565b925082820390508181111561157d5761157c611523565b5b92915050565b7f54686973204e465420697320616c7265616479206c69737465640000000000005f82015250565b5f6115b7601a836114ab565b91506115c282611583565b602082019050919050565b5f6020820190508181035f8301526115e4816115ab565b9050919050565b5f82825260208201905092915050565b7f4c697374207375636365737366756c6c790000000000000000000000000000005f82015250565b5f61162f6011836115eb565b915061163a826115fb565b602082019050919050565b5f6080820190506116585f830186611326565b6116656020830185611326565b61167260408301846111c6565b818103606083015261168381611623565b9050949350505050565b7f4e6f74206f726967696e616c206f776e6572206f72204e6f74206f6e2073616c5f8201527f6500000000000000000000000000000000000000000000000000000000000000602082015250565b5f6116e76021836114ab565b91506116f28261168d565b604082019050919050565b5f6020820190508181035f830152611714816116db565b9050919050565b7f44656c697374207375636365737366756c6c79000000000000000000000000005f82015250565b5f61174f6013836115eb565b915061175a8261171b565b602082019050919050565b5f6080820190506117785f830186611326565b6117856020830185611326565b61179260408301846111c6565b81810360608301526117a381611743565b9050949350505050565b7f4f776e65722063616e6e6f7420627579210000000000000000000000000000005f82015250565b5f6117e16011836114ab565b91506117ec826117ad565b602082019050919050565b5f6020820190508181035f83015261180e816117d5565b9050919050565b5f6060820190506118285f830186611326565b6118356020830185611326565b61184260408301846111c6565b949350505050565b7f4661696c20746f20627579206f7220416c6c6f77616e636520697320696e73755f8201527f6666696369656e74000000000000000000000000000000000000000000000000602082015250565b5f6118a46028836114ab565b91506118af8261184a565b604082019050919050565b5f6020820190508181035f8301526118d181611898565b9050919050565b5f6118e282611122565b91506118ed83611122565b925082820190508082111561190557611904611523565b5b9291505056fea26469706673582212202dba0b77a24dc552826b5850dbe79532ffb130a3ffe5557b3893e9f5fc839dcb64736f6c63430008150033",
					"opcodes": "PUSH1 0xA0 PUSH1 0x40 MSTORE CALLVALUE DUP1 ISZERO PUSH3 0x10 JUMPI PUSH0 DUP1 REVERT JUMPDEST POP PUSH1 0x40 MLOAD PUSH3 0x1A6E CODESIZE SUB DUP1 PUSH3 0x1A6E DUP4 CODECOPY DUP2 DUP2 ADD PUSH1 0x40 MSTORE DUP2 ADD SWAP1 PUSH3 0x36 SWAP2 SWAP1 PUSH3 0xD6 JUMP JUMPDEST DUP1 PUSH20 0xFFFFFFFFFFFFFFFFFFFFFFFFFFFFFFFFFFFFFFFF AND PUSH1 0x80 DUP2 PUSH20 0xFFFFFFFFFFFFFFFFFFFFFFFFFFFFFFFFFFFFFFFF AND DUP2 MSTORE POP POP POP PUSH3 0x106 JUMP JUMPDEST PUSH0 DUP1 REVERT JUMPDEST PUSH0 PUSH20 0xFFFFFFFFFFFFFFFFFFFFFFFFFFFFFFFFFFFFFFFF DUP3 AND SWAP1 POP SWAP2 SWAP1 POP JUMP JUMPDEST PUSH0 PUSH3 0xA0 DUP3 PUSH3 0x75 JUMP JUMPDEST SWAP1 POP SWAP2 SWAP1 POP JUMP JUMPDEST PUSH3 0xB2 DUP2 PUSH3 0x94 JUMP JUMPDEST DUP2 EQ PUSH3 0xBD JUMPI PUSH0 DUP1 REVERT JUMPDEST POP JUMP JUMPDEST PUSH0 DUP2 MLOAD SWAP1 POP PUSH3 0xD0 DUP2 PUSH3 0xA7 JUMP JUMPDEST SWAP3 SWAP2 POP POP JUMP JUMPDEST PUSH0 PUSH1 0x20 DUP3 DUP5 SUB SLT ISZERO PUSH3 0xEE JUMPI PUSH3 0xED PUSH3 0x71 JUMP JUMPDEST JUMPDEST PUSH0 PUSH3 0xFD DUP5 DUP3 DUP6 ADD PUSH3 0xC0 JUMP JUMPDEST SWAP2 POP POP SWAP3 SWAP2 POP POP JUMP JUMPDEST PUSH1 0x80 MLOAD PUSH2 0x1941 PUSH3 0x12D PUSH0 CODECOPY PUSH0 DUP2 DUP2 PUSH2 0x38D ADD MSTORE DUP2 DUP2 PUSH2 0x493 ADD MSTORE PUSH2 0xDF8 ADD MSTORE PUSH2 0x1941 PUSH0 RETURN INVALID PUSH1 0x80 PUSH1 0x40 MSTORE CALLVALUE DUP1 ISZERO PUSH2 0xF JUMPI PUSH0 DUP1 REVERT JUMPDEST POP PUSH1 0x4 CALLDATASIZE LT PUSH2 0xA7 JUMPI PUSH0 CALLDATALOAD PUSH1 0xE0 SHR DUP1 PUSH4 0x5FBE4D1D GT PUSH2 0x6F JUMPI DUP1 PUSH4 0x5FBE4D1D EQ PUSH2 0x189 JUMPI DUP1 PUSH4 0xA59AC6DD EQ PUSH2 0x1A7 JUMPI DUP1 PUSH4 0xD7DAC040 EQ PUSH2 0x1C3 JUMPI DUP1 PUSH4 0xDA76D5CD EQ PUSH2 0x1DF JUMPI DUP1 PUSH4 0xDDA342BB EQ PUSH2 0x1FB JUMPI DUP1 PUSH4 0xF074258E EQ PUSH2 0x217 JUMPI PUSH2 0xA7 JUMP JUMPDEST DUP1 PUSH4 0xF9CB829 EQ PUSH2 0xAB JUMPI DUP1 PUSH4 0x12065FE0 EQ PUSH2 0xDB JUMPI DUP1 PUSH4 0x150B7A02 EQ PUSH2 0xF9 JUMPI DUP1 PUSH4 0x2F634A90 EQ PUSH2 0x129 JUMPI DUP1 PUSH4 0x449E815D EQ PUSH2 0x159 JUMPI JUMPDEST PUSH0 DUP1 REVERT JUMPDEST PUSH2 0xC5 PUSH1 0x4 DUP1 CALLDATASIZE SUB DUP2 ADD SWAP1 PUSH2 0xC0 SWAP2 SWAP1 PUSH2 0x1155 JUMP JUMPDEST PUSH2 0x233 JUMP JUMPDEST PUSH1 0x40 MLOAD PUSH2 0xD2 SWAP2 SWAP1 PUSH2 0x11AD JUMP JUMPDEST PUSH1 0x40 MLOAD DUP1 SWAP2 SUB SWAP1 RETURN JUMPDEST PUSH2 0xE3 PUSH2 0x25D JUMP JUMPDEST PUSH1 0x40 MLOAD PUSH2 0xF0 SWAP2 SWAP1 PUSH2 0x11D5 JUMP JUMPDEST PUSH1 0x40 MLOAD DUP1 SWAP2 SUB SWAP1 RETURN JUMPDEST PUSH2 0x113 PUSH1 0x4 DUP1 CALLDATASIZE SUB DUP2 ADD SWAP1 PUSH2 0x10E SWAP2 SWAP1 PUSH2 0x124F JUMP JUMPDEST PUSH2 0x2A1 JUMP JUMPDEST PUSH1 0x40 MLOAD PUSH2 0x120 SWAP2 SWAP1 PUSH2 0x130D JUMP JUMPDEST PUSH1 0x40 MLOAD DUP1 SWAP2 SUB SWAP1 RETURN JUMPDEST PUSH2 0x143 PUSH1 0x4 DUP1 CALLDATASIZE SUB DUP2 ADD SWAP1 PUSH2 0x13E SWAP2 SWAP1 PUSH2 0x1155 JUMP JUMPDEST PUSH2 0x2B5 JUMP JUMPDEST PUSH1 0x40 MLOAD PUSH2 0x150 SWAP2 SWAP1 PUSH2 0x1335 JUMP JUMPDEST PUSH1 0x40 MLOAD DUP1 SWAP2 SUB SWAP1 RETURN JUMPDEST PUSH2 0x173 PUSH1 0x4 DUP1 CALLDATASIZE SUB DUP2 ADD SWAP1 PUSH2 0x16E SWAP2 SWAP1 PUSH2 0x1155 JUMP JUMPDEST PUSH2 0x336 JUMP JUMPDEST PUSH1 0x40 MLOAD PUSH2 0x180 SWAP2 SWAP1 PUSH2 0x11D5 JUMP JUMPDEST PUSH1 0x40 MLOAD DUP1 SWAP2 SUB SWAP1 RETURN JUMPDEST PUSH2 0x191 PUSH2 0x38B JUMP JUMPDEST PUSH1 0x40 MLOAD PUSH2 0x19E SWAP2 SWAP1 PUSH2 0x1335 JUMP JUMPDEST PUSH1 0x40 MLOAD DUP1 SWAP2 SUB SWAP1 RETURN JUMPDEST PUSH2 0x1C1 PUSH1 0x4 DUP1 CALLDATASIZE SUB DUP2 ADD SWAP1 PUSH2 0x1BC SWAP2 SWAP1 PUSH2 0x134E JUMP JUMPDEST PUSH2 0x3AF JUMP JUMPDEST STOP JUMPDEST PUSH2 0x1DD PUSH1 0x4 DUP1 CALLDATASIZE SUB DUP2 ADD SWAP1 PUSH2 0x1D8 SWAP2 SWAP1 PUSH2 0x134E JUMP JUMPDEST PUSH2 0x3BF JUMP JUMPDEST STOP JUMPDEST PUSH2 0x1F9 PUSH1 0x4 DUP1 CALLDATASIZE SUB DUP2 ADD SWAP1 PUSH2 0x1F4 SWAP2 SWAP1 PUSH2 0x139E JUMP JUMPDEST PUSH2 0x3CF JUMP JUMPDEST STOP JUMPDEST PUSH2 0x215 PUSH1 0x4 DUP1 CALLDATASIZE SUB DUP2 ADD SWAP1 PUSH2 0x210 SWAP2 SWAP1 PUSH2 0x134E JUMP JUMPDEST PUSH2 0x5C5 JUMP JUMPDEST STOP JUMPDEST PUSH2 0x231 PUSH1 0x4 DUP1 CALLDATASIZE SUB DUP2 ADD SWAP1 PUSH2 0x22C SWAP2 SWAP1 PUSH2 0x1155 JUMP JUMPDEST PUSH2 0x903 JUMP JUMPDEST STOP JUMPDEST PUSH1 0x2 PUSH1 0x20 MSTORE DUP2 PUSH0 MSTORE PUSH1 0x40 PUSH0 KECCAK256 PUSH1 0x20 MSTORE DUP1 PUSH0 MSTORE PUSH1 0x40 PUSH0 KECCAK256 PUSH0 SWAP2 POP SWAP2 POP SWAP1 SLOAD SWAP1 PUSH2 0x100 EXP SWAP1 DIV PUSH1 0xFF AND DUP2 JUMP JUMPDEST PUSH0 PUSH1 0x1 PUSH0 CALLER PUSH20 0xFFFFFFFFFFFFFFFFFFFFFFFFFFFFFFFFFFFFFFFF AND PUSH20 0xFFFFFFFFFFFFFFFFFFFFFFFFFFFFFFFFFFFFFFFF AND DUP2 MSTORE PUSH1 0x20 ADD SWAP1 DUP2 MSTORE PUSH1 0x20 ADD PUSH0 KECCAK256 SLOAD SWAP1 POP SWAP1 JUMP JUMPDEST PUSH0 PUSH4 0x150B7A02 PUSH1 0xE0 SHL SWAP1 POP SWAP6 SWAP5 POP POP POP POP POP JUMP JUMPDEST PUSH0 DUP3 PUSH20 0xFFFFFFFFFFFFFFFFFFFFFFFFFFFFFFFFFFFFFFFF AND PUSH4 0x6352211E DUP4 PUSH1 0x40 MLOAD DUP3 PUSH4 0xFFFFFFFF AND PUSH1 0xE0 SHL DUP2 MSTORE PUSH1 0x4 ADD PUSH2 0x2EF SWAP2 SWAP1 PUSH2 0x11D5 JUMP JUMPDEST PUSH1 0x20 PUSH1 0x40 MLOAD DUP1 DUP4 SUB DUP2 DUP7 GAS STATICCALL ISZERO DUP1 ISZERO PUSH2 0x30A JUMPI RETURNDATASIZE PUSH0 DUP1 RETURNDATACOPY RETURNDATASIZE PUSH0 REVERT JUMPDEST POP POP POP POP PUSH1 0x40 MLOAD RETURNDATASIZE PUSH1 0x1F NOT PUSH1 0x1F DUP3 ADD AND DUP3 ADD DUP1 PUSH1 0x40 MSTORE POP DUP2 ADD SWAP1 PUSH2 0x32E SWAP2 SWAP1 PUSH2 0x13DD JUMP JUMPDEST SWAP1 POP SWAP3 SWAP2 POP POP JUMP JUMPDEST PUSH0 DUP1 PUSH0 DUP5 PUSH20 0xFFFFFFFFFFFFFFFFFFFFFFFFFFFFFFFFFFFFFFFF AND PUSH20 0xFFFFFFFFFFFFFFFFFFFFFFFFFFFFFFFFFFFFFFFF AND DUP2 MSTORE PUSH1 0x20 ADD SWAP1 DUP2 MSTORE PUSH1 0x20 ADD PUSH0 KECCAK256 PUSH0 DUP4 DUP2 MSTORE PUSH1 0x20 ADD SWAP1 DUP2 MSTORE PUSH1 0x20 ADD PUSH0 KECCAK256 SLOAD SWAP1 POP SWAP3 SWAP2 POP POP JUMP JUMPDEST PUSH32 0x0 DUP2 JUMP JUMPDEST PUSH2 0x3BA DUP4 DUP4 DUP4 PUSH2 0xB9D JUMP JUMPDEST POP POP POP JUMP JUMPDEST PUSH2 0x3CA DUP4 DUP4 DUP4 PUSH2 0xB9D JUMP JUMPDEST POP POP POP JUMP JUMPDEST PUSH1 0x1 PUSH0 CALLER PUSH20 0xFFFFFFFFFFFFFFFFFFFFFFFFFFFFFFFFFFFFFFFF AND PUSH20 0xFFFFFFFFFFFFFFFFFFFFFFFFFFFFFFFFFFFFFFFF AND DUP2 MSTORE PUSH1 0x20 ADD SWAP1 DUP2 MSTORE PUSH1 0x20 ADD PUSH0 KECCAK256 SLOAD DUP2 GT ISZERO PUSH2 0x490 JUMPI DUP1 PUSH1 0x1 PUSH0 CALLER PUSH20 0xFFFFFFFFFFFFFFFFFFFFFFFFFFFFFFFFFFFFFFFF AND PUSH20 0xFFFFFFFFFFFFFFFFFFFFFFFFFFFFFFFFFFFFFFFF AND DUP2 MSTORE PUSH1 0x20 ADD SWAP1 DUP2 MSTORE PUSH1 0x20 ADD PUSH0 KECCAK256 SLOAD PUSH1 0x40 MLOAD PUSH32 0x1E6B7C1D00000000000000000000000000000000000000000000000000000000 DUP2 MSTORE PUSH1 0x4 ADD PUSH2 0x487 SWAP3 SWAP2 SWAP1 PUSH2 0x1408 JUMP JUMPDEST PUSH1 0x40 MLOAD DUP1 SWAP2 SUB SWAP1 REVERT JUMPDEST PUSH0 PUSH32 0x0 PUSH20 0xFFFFFFFFFFFFFFFFFFFFFFFFFFFFFFFFFFFFFFFF AND PUSH4 0xA9059CBB CALLER DUP5 PUSH1 0x40 MLOAD DUP4 PUSH4 0xFFFFFFFF AND PUSH1 0xE0 SHL DUP2 MSTORE PUSH1 0x4 ADD PUSH2 0x4EC SWAP3 SWAP2 SWAP1 PUSH2 0x142F JUMP JUMPDEST PUSH1 0x20 PUSH1 0x40 MLOAD DUP1 DUP4 SUB DUP2 PUSH0 DUP8 GAS CALL ISZERO DUP1 ISZERO PUSH2 0x508 JUMPI RETURNDATASIZE PUSH0 DUP1 RETURNDATACOPY RETURNDATASIZE PUSH0 REVERT JUMPDEST POP POP POP POP PUSH1 0x40 MLOAD RETURNDATASIZE PUSH1 0x1F NOT PUSH1 0x1F DUP3 ADD AND DUP3 ADD DUP1 PUSH1 0x40 MSTORE POP DUP2 ADD SWAP1 PUSH2 0x52C SWAP2 SWAP1 PUSH2 0x1480 JUMP JUMPDEST SWAP1 POP DUP1 PUSH2 0x56E JUMPI PUSH1 0x40 MLOAD PUSH32 0x8C379A000000000000000000000000000000000000000000000000000000000 DUP2 MSTORE PUSH1 0x4 ADD PUSH2 0x565 SWAP1 PUSH2 0x1505 JUMP JUMPDEST PUSH1 0x40 MLOAD DUP1 SWAP2 SUB SWAP1 REVERT JUMPDEST DUP2 PUSH1 0x1 PUSH0 CALLER PUSH20 0xFFFFFFFFFFFFFFFFFFFFFFFFFFFFFFFFFFFFFFFF AND PUSH20 0xFFFFFFFFFFFFFFFFFFFFFFFFFFFFFFFFFFFFFFFF AND DUP2 MSTORE PUSH1 0x20 ADD SWAP1 DUP2 MSTORE PUSH1 0x20 ADD PUSH0 KECCAK256 PUSH0 DUP3 DUP3 SLOAD PUSH2 0x5BA SWAP2 SWAP1 PUSH2 0x1550 JUMP JUMPDEST SWAP3 POP POP DUP2 SWAP1 SSTORE POP POP POP JUMP JUMPDEST DUP3 PUSH20 0xFFFFFFFFFFFFFFFFFFFFFFFFFFFFFFFFFFFFFFFF AND PUSH4 0x6352211E DUP4 PUSH1 0x40 MLOAD DUP3 PUSH4 0xFFFFFFFF AND PUSH1 0xE0 SHL DUP2 MSTORE PUSH1 0x4 ADD PUSH2 0x5FE SWAP2 SWAP1 PUSH2 0x11D5 JUMP JUMPDEST PUSH1 0x20 PUSH1 0x40 MLOAD DUP1 DUP4 SUB DUP2 DUP7 GAS STATICCALL ISZERO DUP1 ISZERO PUSH2 0x619 JUMPI RETURNDATASIZE PUSH0 DUP1 RETURNDATACOPY RETURNDATASIZE PUSH0 REVERT JUMPDEST POP POP POP POP PUSH1 0x40 MLOAD RETURNDATASIZE PUSH1 0x1F NOT PUSH1 0x1F DUP3 ADD AND DUP3 ADD DUP1 PUSH1 0x40 MSTORE POP DUP2 ADD SWAP1 PUSH2 0x63D SWAP2 SWAP1 PUSH2 0x13DD JUMP JUMPDEST PUSH20 0xFFFFFFFFFFFFFFFFFFFFFFFFFFFFFFFFFFFFFFFF AND CALLER PUSH20 0xFFFFFFFFFFFFFFFFFFFFFFFFFFFFFFFFFFFFFFFF AND EQ PUSH2 0x6A1 JUMPI PUSH1 0x40 MLOAD PUSH32 0x30CD747100000000000000000000000000000000000000000000000000000000 DUP2 MSTORE PUSH1 0x4 ADD PUSH1 0x40 MLOAD DUP1 SWAP2 SUB SWAP1 REVERT JUMPDEST PUSH0 DUP2 SUB PUSH2 0x6DA JUMPI PUSH1 0x40 MLOAD PUSH32 0x4DFBA02300000000000000000000000000000000000000000000000000000000 DUP2 MSTORE PUSH1 0x4 ADD PUSH1 0x40 MLOAD DUP1 SWAP2 SUB SWAP1 REVERT JUMPDEST PUSH0 ISZERO ISZERO PUSH1 0x2 PUSH0 DUP6 PUSH20 0xFFFFFFFFFFFFFFFFFFFFFFFFFFFFFFFFFFFFFFFF AND PUSH20 0xFFFFFFFFFFFFFFFFFFFFFFFFFFFFFFFFFFFFFFFF AND DUP2 MSTORE PUSH1 0x20 ADD SWAP1 DUP2 MSTORE PUSH1 0x20 ADD PUSH0 KECCAK256 PUSH0 DUP5 DUP2 MSTORE PUSH1 0x20 ADD SWAP1 DUP2 MSTORE PUSH1 0x20 ADD PUSH0 KECCAK256 PUSH0 SWAP1 SLOAD SWAP1 PUSH2 0x100 EXP SWAP1 DIV PUSH1 0xFF AND ISZERO ISZERO EQ PUSH2 0x778 JUMPI PUSH1 0x40 MLOAD PUSH32 0x8C379A000000000000000000000000000000000000000000000000000000000 DUP2 MSTORE PUSH1 0x4 ADD PUSH2 0x76F SWAP1 PUSH2 0x15CD JUMP JUMPDEST PUSH1 0x40 MLOAD DUP1 SWAP2 SUB SWAP1 REVERT JUMPDEST DUP3 PUSH20 0xFFFFFFFFFFFFFFFFFFFFFFFFFFFFFFFFFFFFFFFF AND PUSH4 0xB88D4FDE CALLER ADDRESS DUP6 PUSH1 0x40 MLOAD DUP5 PUSH4 0xFFFFFFFF AND PUSH1 0xE0 SHL DUP2 MSTORE PUSH1 0x4 ADD PUSH2 0x7B5 SWAP4 SWAP3 SWAP2 SWAP1 PUSH2 0x1645 JUMP JUMPDEST PUSH0 PUSH1 0x40 MLOAD DUP1 DUP4 SUB DUP2 PUSH0 DUP8 DUP1 EXTCODESIZE ISZERO DUP1 ISZERO PUSH2 0x7CC JUMPI PUSH0 DUP1 REVERT JUMPDEST POP GAS CALL ISZERO DUP1 ISZERO PUSH2 0x7DE JUMPI RETURNDATASIZE PUSH0 DUP1 RETURNDATACOPY RETURNDATASIZE PUSH0 REVERT JUMPDEST POP POP POP POP DUP3 PUSH20 0xFFFFFFFFFFFFFFFFFFFFFFFFFFFFFFFFFFFFFFFF AND PUSH4 0x95EA7B3 CALLER DUP5 PUSH1 0x40 MLOAD DUP4 PUSH4 0xFFFFFFFF AND PUSH1 0xE0 SHL DUP2 MSTORE PUSH1 0x4 ADD PUSH2 0x81D SWAP3 SWAP2 SWAP1 PUSH2 0x142F JUMP JUMPDEST PUSH0 PUSH1 0x40 MLOAD DUP1 DUP4 SUB DUP2 PUSH0 DUP8 DUP1 EXTCODESIZE ISZERO DUP1 ISZERO PUSH2 0x834 JUMPI PUSH0 DUP1 REVERT JUMPDEST POP GAS CALL ISZERO DUP1 ISZERO PUSH2 0x846 JUMPI RETURNDATASIZE PUSH0 DUP1 RETURNDATACOPY RETURNDATASIZE PUSH0 REVERT JUMPDEST POP POP POP POP DUP1 PUSH0 DUP1 DUP6 PUSH20 0xFFFFFFFFFFFFFFFFFFFFFFFFFFFFFFFFFFFFFFFF AND PUSH20 0xFFFFFFFFFFFFFFFFFFFFFFFFFFFFFFFFFFFFFFFF AND DUP2 MSTORE PUSH1 0x20 ADD SWAP1 DUP2 MSTORE PUSH1 0x20 ADD PUSH0 KECCAK256 PUSH0 DUP5 DUP2 MSTORE PUSH1 0x20 ADD SWAP1 DUP2 MSTORE PUSH1 0x20 ADD PUSH0 KECCAK256 DUP2 SWAP1 SSTORE POP PUSH1 0x1 PUSH1 0x2 PUSH0 DUP6 PUSH20 0xFFFFFFFFFFFFFFFFFFFFFFFFFFFFFFFFFFFFFFFF AND PUSH20 0xFFFFFFFFFFFFFFFFFFFFFFFFFFFFFFFFFFFFFFFF AND DUP2 MSTORE PUSH1 0x20 ADD SWAP1 DUP2 MSTORE PUSH1 0x20 ADD PUSH0 KECCAK256 PUSH0 DUP5 DUP2 MSTORE PUSH1 0x20 ADD SWAP1 DUP2 MSTORE PUSH1 0x20 ADD PUSH0 KECCAK256 PUSH0 PUSH2 0x100 EXP DUP2 SLOAD DUP2 PUSH1 0xFF MUL NOT AND SWAP1 DUP4 ISZERO ISZERO MUL OR SWAP1 SSTORE POP POP POP POP JUMP JUMPDEST CALLER PUSH20 0xFFFFFFFFFFFFFFFFFFFFFFFFFFFFFFFFFFFFFFFF AND DUP3 PUSH20 0xFFFFFFFFFFFFFFFFFFFFFFFFFFFFFFFFFFFFFFFF AND PUSH4 0x81812FC DUP4 PUSH1 0x40 MLOAD DUP3 PUSH4 0xFFFFFFFF AND PUSH1 0xE0 SHL DUP2 MSTORE PUSH1 0x4 ADD PUSH2 0x953 SWAP2 SWAP1 PUSH2 0x11D5 JUMP JUMPDEST PUSH1 0x20 PUSH1 0x40 MLOAD DUP1 DUP4 SUB DUP2 DUP7 GAS STATICCALL ISZERO DUP1 ISZERO PUSH2 0x96E JUMPI RETURNDATASIZE PUSH0 DUP1 RETURNDATACOPY RETURNDATASIZE PUSH0 REVERT JUMPDEST POP POP POP POP PUSH1 0x40 MLOAD RETURNDATASIZE PUSH1 0x1F NOT PUSH1 0x1F DUP3 ADD AND DUP3 ADD DUP1 PUSH1 0x40 MSTORE POP DUP2 ADD SWAP1 PUSH2 0x992 SWAP2 SWAP1 PUSH2 0x13DD JUMP JUMPDEST PUSH20 0xFFFFFFFFFFFFFFFFFFFFFFFFFFFFFFFFFFFFFFFF AND EQ PUSH2 0x9E8 JUMPI PUSH1 0x40 MLOAD PUSH32 0x8C379A000000000000000000000000000000000000000000000000000000000 DUP2 MSTORE PUSH1 0x4 ADD PUSH2 0x9DF SWAP1 PUSH2 0x16FD JUMP JUMPDEST PUSH1 0x40 MLOAD DUP1 SWAP2 SUB SWAP1 REVERT JUMPDEST PUSH1 0x1 ISZERO ISZERO PUSH1 0x2 PUSH0 DUP5 PUSH20 0xFFFFFFFFFFFFFFFFFFFFFFFFFFFFFFFFFFFFFFFF AND PUSH20 0xFFFFFFFFFFFFFFFFFFFFFFFFFFFFFFFFFFFFFFFF AND DUP2 MSTORE PUSH1 0x20 ADD SWAP1 DUP2 MSTORE PUSH1 0x20 ADD PUSH0 KECCAK256 PUSH0 DUP4 DUP2 MSTORE PUSH1 0x20 ADD SWAP1 DUP2 MSTORE PUSH1 0x20 ADD PUSH0 KECCAK256 PUSH0 SWAP1 SLOAD SWAP1 PUSH2 0x100 EXP SWAP1 DIV PUSH1 0xFF AND ISZERO ISZERO EQ PUSH2 0xA7E JUMPI PUSH1 0x40 MLOAD PUSH32 0xC6B0E90B00000000000000000000000000000000000000000000000000000000 DUP2 MSTORE PUSH1 0x4 ADD PUSH1 0x40 MLOAD DUP1 SWAP2 SUB SWAP1 REVERT JUMPDEST DUP2 PUSH20 0xFFFFFFFFFFFFFFFFFFFFFFFFFFFFFFFFFFFFFFFF AND PUSH4 0xB88D4FDE ADDRESS CALLER DUP5 PUSH1 0x40 MLOAD DUP5 PUSH4 0xFFFFFFFF AND PUSH1 0xE0 SHL DUP2 MSTORE PUSH1 0x4 ADD PUSH2 0xABB SWAP4 SWAP3 SWAP2 SWAP1 PUSH2 0x1765 JUMP JUMPDEST PUSH0 PUSH1 0x40 MLOAD DUP1 DUP4 SUB DUP2 PUSH0 DUP8 DUP1 EXTCODESIZE ISZERO DUP1 ISZERO PUSH2 0xAD2 JUMPI PUSH0 DUP1 REVERT JUMPDEST POP GAS CALL ISZERO DUP1 ISZERO PUSH2 0xAE4 JUMPI RETURNDATASIZE PUSH0 DUP1 RETURNDATACOPY RETURNDATASIZE PUSH0 REVERT JUMPDEST POP POP POP POP PUSH0 DUP1 DUP4 PUSH20 0xFFFFFFFFFFFFFFFFFFFFFFFFFFFFFFFFFFFFFFFF AND PUSH20 0xFFFFFFFFFFFFFFFFFFFFFFFFFFFFFFFFFFFFFFFF AND DUP2 MSTORE PUSH1 0x20 ADD SWAP1 DUP2 MSTORE PUSH1 0x20 ADD PUSH0 KECCAK256 PUSH0 DUP3 DUP2 MSTORE PUSH1 0x20 ADD SWAP1 DUP2 MSTORE PUSH1 0x20 ADD PUSH0 KECCAK256 PUSH0 SWAP1 SSTORE PUSH0 PUSH1 0x2 PUSH0 DUP5 PUSH20 0xFFFFFFFFFFFFFFFFFFFFFFFFFFFFFFFFFFFFFFFF AND PUSH20 0xFFFFFFFFFFFFFFFFFFFFFFFFFFFFFFFFFFFFFFFF AND DUP2 MSTORE PUSH1 0x20 ADD SWAP1 DUP2 MSTORE PUSH1 0x20 ADD PUSH0 KECCAK256 PUSH0 DUP4 DUP2 MSTORE PUSH1 0x20 ADD SWAP1 DUP2 MSTORE PUSH1 0x20 ADD PUSH0 KECCAK256 PUSH0 PUSH2 0x100 EXP DUP2 SLOAD DUP2 PUSH1 0xFF MUL NOT AND SWAP1 DUP4 ISZERO ISZERO MUL OR SWAP1 SSTORE POP POP POP JUMP JUMPDEST PUSH1 0x1 ISZERO ISZERO PUSH1 0x2 PUSH0 DUP6 PUSH20 0xFFFFFFFFFFFFFFFFFFFFFFFFFFFFFFFFFFFFFFFF AND PUSH20 0xFFFFFFFFFFFFFFFFFFFFFFFFFFFFFFFFFFFFFFFF AND DUP2 MSTORE PUSH1 0x20 ADD SWAP1 DUP2 MSTORE PUSH1 0x20 ADD PUSH0 KECCAK256 PUSH0 DUP5 DUP2 MSTORE PUSH1 0x20 ADD SWAP1 DUP2 MSTORE PUSH1 0x20 ADD PUSH0 KECCAK256 PUSH0 SWAP1 SLOAD SWAP1 PUSH2 0x100 EXP SWAP1 DIV PUSH1 0xFF AND ISZERO ISZERO EQ PUSH2 0xC33 JUMPI PUSH1 0x40 MLOAD PUSH32 0xC6B0E90B00000000000000000000000000000000000000000000000000000000 DUP2 MSTORE PUSH1 0x4 ADD PUSH1 0x40 MLOAD DUP1 SWAP2 SUB SWAP1 REVERT JUMPDEST PUSH0 DUP1 DUP5 PUSH20 0xFFFFFFFFFFFFFFFFFFFFFFFFFFFFFFFFFFFFFFFF AND PUSH20 0xFFFFFFFFFFFFFFFFFFFFFFFFFFFFFFFFFFFFFFFF AND DUP2 MSTORE PUSH1 0x20 ADD SWAP1 DUP2 MSTORE PUSH1 0x20 ADD PUSH0 KECCAK256 PUSH0 DUP4 DUP2 MSTORE PUSH1 0x20 ADD SWAP1 DUP2 MSTORE PUSH1 0x20 ADD PUSH0 KECCAK256 SLOAD DUP2 LT ISZERO PUSH2 0xD10 JUMPI DUP1 PUSH0 DUP1 DUP6 PUSH20 0xFFFFFFFFFFFFFFFFFFFFFFFFFFFFFFFFFFFFFFFF AND PUSH20 0xFFFFFFFFFFFFFFFFFFFFFFFFFFFFFFFFFFFFFFFF AND DUP2 MSTORE PUSH1 0x20 ADD SWAP1 DUP2 MSTORE PUSH1 0x20 ADD PUSH0 KECCAK256 PUSH0 DUP5 DUP2 MSTORE PUSH1 0x20 ADD SWAP1 DUP2 MSTORE PUSH1 0x20 ADD PUSH0 KECCAK256 SLOAD PUSH1 0x40 MLOAD PUSH32 0x90BDE1300000000000000000000000000000000000000000000000000000000 DUP2 MSTORE PUSH1 0x4 ADD PUSH2 0xD07 SWAP3 SWAP2 SWAP1 PUSH2 0x1408 JUMP JUMPDEST PUSH1 0x40 MLOAD DUP1 SWAP2 SUB SWAP1 REVERT JUMPDEST DUP3 PUSH20 0xFFFFFFFFFFFFFFFFFFFFFFFFFFFFFFFFFFFFFFFF AND PUSH4 0x81812FC DUP4 PUSH1 0x40 MLOAD DUP3 PUSH4 0xFFFFFFFF AND PUSH1 0xE0 SHL DUP2 MSTORE PUSH1 0x4 ADD PUSH2 0xD49 SWAP2 SWAP1 PUSH2 0x11D5 JUMP JUMPDEST PUSH1 0x20 PUSH1 0x40 MLOAD DUP1 DUP4 SUB DUP2 DUP7 GAS STATICCALL ISZERO DUP1 ISZERO PUSH2 0xD64 JUMPI RETURNDATASIZE PUSH0 DUP1 RETURNDATACOPY RETURNDATASIZE PUSH0 REVERT JUMPDEST POP POP POP POP PUSH1 0x40 MLOAD RETURNDATASIZE PUSH1 0x1F NOT PUSH1 0x1F DUP3 ADD AND DUP3 ADD DUP1 PUSH1 0x40 MSTORE POP DUP2 ADD SWAP1 PUSH2 0xD88 SWAP2 SWAP1 PUSH2 0x13DD JUMP JUMPDEST PUSH20 0xFFFFFFFFFFFFFFFFFFFFFFFFFFFFFFFFFFFFFFFF AND CALLER PUSH20 0xFFFFFFFFFFFFFFFFFFFFFFFFFFFFFFFFFFFFFFFF AND SUB PUSH2 0xDF5 JUMPI PUSH1 0x40 MLOAD PUSH32 0x8C379A000000000000000000000000000000000000000000000000000000000 DUP2 MSTORE PUSH1 0x4 ADD PUSH2 0xDEC SWAP1 PUSH2 0x17F7 JUMP JUMPDEST PUSH1 0x40 MLOAD DUP1 SWAP2 SUB SWAP1 REVERT JUMPDEST PUSH0 PUSH32 0x0 PUSH20 0xFFFFFFFFFFFFFFFFFFFFFFFFFFFFFFFFFFFFFFFF AND PUSH4 0x23B872DD CALLER ADDRESS DUP6 PUSH1 0x40 MLOAD DUP5 PUSH4 0xFFFFFFFF AND PUSH1 0xE0 SHL DUP2 MSTORE PUSH1 0x4 ADD PUSH2 0xE53 SWAP4 SWAP3 SWAP2 SWAP1 PUSH2 0x1815 JUMP JUMPDEST PUSH1 0x20 PUSH1 0x40 MLOAD DUP1 DUP4 SUB DUP2 PUSH0 DUP8 GAS CALL ISZERO DUP1 ISZERO PUSH2 0xE6F JUMPI RETURNDATASIZE PUSH0 DUP1 RETURNDATACOPY RETURNDATASIZE PUSH0 REVERT JUMPDEST POP POP POP POP PUSH1 0x40 MLOAD RETURNDATASIZE PUSH1 0x1F NOT PUSH1 0x1F DUP3 ADD AND DUP3 ADD DUP1 PUSH1 0x40 MSTORE POP DUP2 ADD SWAP1 PUSH2 0xE93 SWAP2 SWAP1 PUSH2 0x1480 JUMP JUMPDEST SWAP1 POP DUP1 PUSH2 0xED5 JUMPI PUSH1 0x40 MLOAD PUSH32 0x8C379A000000000000000000000000000000000000000000000000000000000 DUP2 MSTORE PUSH1 0x4 ADD PUSH2 0xECC SWAP1 PUSH2 0x18BA JUMP JUMPDEST PUSH1 0x40 MLOAD DUP1 SWAP2 SUB SWAP1 REVERT JUMPDEST DUP2 PUSH1 0x1 PUSH0 DUP7 PUSH20 0xFFFFFFFFFFFFFFFFFFFFFFFFFFFFFFFFFFFFFFFF AND PUSH4 0x81812FC DUP8 PUSH1 0x40 MLOAD DUP3 PUSH4 0xFFFFFFFF AND PUSH1 0xE0 SHL DUP2 MSTORE PUSH1 0x4 ADD PUSH2 0xF12 SWAP2 SWAP1 PUSH2 0x11D5 JUMP JUMPDEST PUSH1 0x20 PUSH1 0x40 MLOAD DUP1 DUP4 SUB DUP2 DUP7 GAS STATICCALL ISZERO DUP1 ISZERO PUSH2 0xF2D JUMPI RETURNDATASIZE PUSH0 DUP1 RETURNDATACOPY RETURNDATASIZE PUSH0 REVERT JUMPDEST POP POP POP POP PUSH1 0x40 MLOAD RETURNDATASIZE PUSH1 0x1F NOT PUSH1 0x1F DUP3 ADD AND DUP3 ADD DUP1 PUSH1 0x40 MSTORE POP DUP2 ADD SWAP1 PUSH2 0xF51 SWAP2 SWAP1 PUSH2 0x13DD JUMP JUMPDEST PUSH20 0xFFFFFFFFFFFFFFFFFFFFFFFFFFFFFFFFFFFFFFFF AND PUSH20 0xFFFFFFFFFFFFFFFFFFFFFFFFFFFFFFFFFFFFFFFF AND DUP2 MSTORE PUSH1 0x20 ADD SWAP1 DUP2 MSTORE PUSH1 0x20 ADD PUSH0 KECCAK256 PUSH0 DUP3 DUP3 SLOAD PUSH2 0xF98 SWAP2 SWAP1 PUSH2 0x18D8 JUMP JUMPDEST SWAP3 POP POP DUP2 SWAP1 SSTORE POP DUP4 PUSH20 0xFFFFFFFFFFFFFFFFFFFFFFFFFFFFFFFFFFFFFFFF AND PUSH4 0x23B872DD ADDRESS CALLER DUP7 PUSH1 0x40 MLOAD DUP5 PUSH4 0xFFFFFFFF AND PUSH1 0xE0 SHL DUP2 MSTORE PUSH1 0x4 ADD PUSH2 0xFDC SWAP4 SWAP3 SWAP2 SWAP1 PUSH2 0x1815 JUMP JUMPDEST PUSH0 PUSH1 0x40 MLOAD DUP1 DUP4 SUB DUP2 PUSH0 DUP8 DUP1 EXTCODESIZE ISZERO DUP1 ISZERO PUSH2 0xFF3 JUMPI PUSH0 DUP1 REVERT JUMPDEST POP GAS CALL ISZERO DUP1 ISZERO PUSH2 0x1005 JUMPI RETURNDATASIZE PUSH0 DUP1 RETURNDATACOPY RETURNDATASIZE PUSH0 REVERT JUMPDEST POP POP POP POP PUSH0 DUP1 DUP6 PUSH20 0xFFFFFFFFFFFFFFFFFFFFFFFFFFFFFFFFFFFFFFFF AND PUSH20 0xFFFFFFFFFFFFFFFFFFFFFFFFFFFFFFFFFFFFFFFF AND DUP2 MSTORE PUSH1 0x20 ADD SWAP1 DUP2 MSTORE PUSH1 0x20 ADD PUSH0 KECCAK256 PUSH0 DUP5 DUP2 MSTORE PUSH1 0x20 ADD SWAP1 DUP2 MSTORE PUSH1 0x20 ADD PUSH0 KECCAK256 PUSH0 SWAP1 SSTORE PUSH0 PUSH1 0x2 PUSH0 DUP7 PUSH20 0xFFFFFFFFFFFFFFFFFFFFFFFFFFFFFFFFFFFFFFFF AND PUSH20 0xFFFFFFFFFFFFFFFFFFFFFFFFFFFFFFFFFFFFFFFF AND DUP2 MSTORE PUSH1 0x20 ADD SWAP1 DUP2 MSTORE PUSH1 0x20 ADD PUSH0 KECCAK256 PUSH0 DUP6 DUP2 MSTORE PUSH1 0x20 ADD SWAP1 DUP2 MSTORE PUSH1 0x20 ADD PUSH0 KECCAK256 PUSH0 PUSH2 0x100 EXP DUP2 SLOAD DUP2 PUSH1 0xFF MUL NOT AND SWAP1 DUP4 ISZERO ISZERO MUL OR SWAP1 SSTORE POP POP POP POP POP JUMP JUMPDEST PUSH0 DUP1 REVERT JUMPDEST PUSH0 DUP1 REVERT JUMPDEST PUSH0 PUSH20 0xFFFFFFFFFFFFFFFFFFFFFFFFFFFFFFFFFFFFFFFF DUP3 AND SWAP1 POP SWAP2 SWAP1 POP JUMP JUMPDEST PUSH0 PUSH2 0x10F1 DUP3 PUSH2 0x10C8 JUMP JUMPDEST SWAP1 POP SWAP2 SWAP1 POP JUMP JUMPDEST PUSH2 0x1101 DUP2 PUSH2 0x10E7 JUMP JUMPDEST DUP2 EQ PUSH2 0x110B JUMPI PUSH0 DUP1 REVERT JUMPDEST POP JUMP JUMPDEST PUSH0 DUP2 CALLDATALOAD SWAP1 POP PUSH2 0x111C DUP2 PUSH2 0x10F8 JUMP JUMPDEST SWAP3 SWAP2 POP POP JUMP JUMPDEST PUSH0 DUP2 SWAP1 POP SWAP2 SWAP1 POP JUMP JUMPDEST PUSH2 0x1134 DUP2 PUSH2 0x1122 JUMP JUMPDEST DUP2 EQ PUSH2 0x113E JUMPI PUSH0 DUP1 REVERT JUMPDEST POP JUMP JUMPDEST PUSH0 DUP2 CALLDATALOAD SWAP1 POP PUSH2 0x114F DUP2 PUSH2 0x112B JUMP JUMPDEST SWAP3 SWAP2 POP POP JUMP JUMPDEST PUSH0 DUP1 PUSH1 0x40 DUP4 DUP6 SUB SLT ISZERO PUSH2 0x116B JUMPI PUSH2 0x116A PUSH2 0x10C0 JUMP JUMPDEST JUMPDEST PUSH0 PUSH2 0x1178 DUP6 DUP3 DUP7 ADD PUSH2 0x110E JUMP JUMPDEST SWAP3 POP POP PUSH1 0x20 PUSH2 0x1189 DUP6 DUP3 DUP7 ADD PUSH2 0x1141 JUMP JUMPDEST SWAP2 POP POP SWAP3 POP SWAP3 SWAP1 POP JUMP JUMPDEST PUSH0 DUP2 ISZERO ISZERO SWAP1 POP SWAP2 SWAP1 POP JUMP JUMPDEST PUSH2 0x11A7 DUP2 PUSH2 0x1193 JUMP JUMPDEST DUP3 MSTORE POP POP JUMP JUMPDEST PUSH0 PUSH1 0x20 DUP3 ADD SWAP1 POP PUSH2 0x11C0 PUSH0 DUP4 ADD DUP5 PUSH2 0x119E JUMP JUMPDEST SWAP3 SWAP2 POP POP JUMP JUMPDEST PUSH2 0x11CF DUP2 PUSH2 0x1122 JUMP JUMPDEST DUP3 MSTORE POP POP JUMP JUMPDEST PUSH0 PUSH1 0x20 DUP3 ADD SWAP1 POP PUSH2 0x11E8 PUSH0 DUP4 ADD DUP5 PUSH2 0x11C6 JUMP JUMPDEST SWAP3 SWAP2 POP POP JUMP JUMPDEST PUSH0 DUP1 REVERT JUMPDEST PUSH0 DUP1 REVERT JUMPDEST PUSH0 DUP1 REVERT JUMPDEST PUSH0 DUP1 DUP4 PUSH1 0x1F DUP5 ADD SLT PUSH2 0x120F JUMPI PUSH2 0x120E PUSH2 0x11EE JUMP JUMPDEST JUMPDEST DUP3 CALLDATALOAD SWAP1 POP PUSH8 0xFFFFFFFFFFFFFFFF DUP2 GT ISZERO PUSH2 0x122C JUMPI PUSH2 0x122B PUSH2 0x11F2 JUMP JUMPDEST JUMPDEST PUSH1 0x20 DUP4 ADD SWAP2 POP DUP4 PUSH1 0x1 DUP3 MUL DUP4 ADD GT ISZERO PUSH2 0x1248 JUMPI PUSH2 0x1247 PUSH2 0x11F6 JUMP JUMPDEST JUMPDEST SWAP3 POP SWAP3 SWAP1 POP JUMP JUMPDEST PUSH0 DUP1 PUSH0 DUP1 PUSH0 PUSH1 0x80 DUP7 DUP9 SUB SLT ISZERO PUSH2 0x1268 JUMPI PUSH2 0x1267 PUSH2 0x10C0 JUMP JUMPDEST JUMPDEST PUSH0 PUSH2 0x1275 DUP9 DUP3 DUP10 ADD PUSH2 0x110E JUMP JUMPDEST SWAP6 POP POP PUSH1 0x20 PUSH2 0x1286 DUP9 DUP3 DUP10 ADD PUSH2 0x110E JUMP JUMPDEST SWAP5 POP POP PUSH1 0x40 PUSH2 0x1297 DUP9 DUP3 DUP10 ADD PUSH2 0x1141 JUMP JUMPDEST SWAP4 POP POP PUSH1 0x60 DUP7 ADD CALLDATALOAD PUSH8 0xFFFFFFFFFFFFFFFF DUP2 GT ISZERO PUSH2 0x12B8 JUMPI PUSH2 0x12B7 PUSH2 0x10C4 JUMP JUMPDEST JUMPDEST PUSH2 0x12C4 DUP9 DUP3 DUP10 ADD PUSH2 0x11FA JUMP JUMPDEST SWAP3 POP SWAP3 POP POP SWAP3 SWAP6 POP SWAP3 SWAP6 SWAP1 SWAP4 POP JUMP JUMPDEST PUSH0 PUSH32 0xFFFFFFFF00000000000000000000000000000000000000000000000000000000 DUP3 AND SWAP1 POP SWAP2 SWAP1 POP JUMP JUMPDEST PUSH2 0x1307 DUP2 PUSH2 0x12D3 JUMP JUMPDEST DUP3 MSTORE POP POP JUMP JUMPDEST PUSH0 PUSH1 0x20 DUP3 ADD SWAP1 POP PUSH2 0x1320 PUSH0 DUP4 ADD DUP5 PUSH2 0x12FE JUMP JUMPDEST SWAP3 SWAP2 POP POP JUMP JUMPDEST PUSH2 0x132F DUP2 PUSH2 0x10E7 JUMP JUMPDEST DUP3 MSTORE POP POP JUMP JUMPDEST PUSH0 PUSH1 0x20 DUP3 ADD SWAP1 POP PUSH2 0x1348 PUSH0 DUP4 ADD DUP5 PUSH2 0x1326 JUMP JUMPDEST SWAP3 SWAP2 POP POP JUMP JUMPDEST PUSH0 DUP1 PUSH0 PUSH1 0x60 DUP5 DUP7 SUB SLT ISZERO PUSH2 0x1365 JUMPI PUSH2 0x1364 PUSH2 0x10C0 JUMP JUMPDEST JUMPDEST PUSH0 PUSH2 0x1372 DUP7 DUP3 DUP8 ADD PUSH2 0x110E JUMP JUMPDEST SWAP4 POP POP PUSH1 0x20 PUSH2 0x1383 DUP7 DUP3 DUP8 ADD PUSH2 0x1141 JUMP JUMPDEST SWAP3 POP POP PUSH1 0x40 PUSH2 0x1394 DUP7 DUP3 DUP8 ADD PUSH2 0x1141 JUMP JUMPDEST SWAP2 POP POP SWAP3 POP SWAP3 POP SWAP3 JUMP JUMPDEST PUSH0 PUSH1 0x20 DUP3 DUP5 SUB SLT ISZERO PUSH2 0x13B3 JUMPI PUSH2 0x13B2 PUSH2 0x10C0 JUMP JUMPDEST JUMPDEST PUSH0 PUSH2 0x13C0 DUP5 DUP3 DUP6 ADD PUSH2 0x1141 JUMP JUMPDEST SWAP2 POP POP SWAP3 SWAP2 POP POP JUMP JUMPDEST PUSH0 DUP2 MLOAD SWAP1 POP PUSH2 0x13D7 DUP2 PUSH2 0x10F8 JUMP JUMPDEST SWAP3 SWAP2 POP POP JUMP JUMPDEST PUSH0 PUSH1 0x20 DUP3 DUP5 SUB SLT ISZERO PUSH2 0x13F2 JUMPI PUSH2 0x13F1 PUSH2 0x10C0 JUMP JUMPDEST JUMPDEST PUSH0 PUSH2 0x13FF DUP5 DUP3 DUP6 ADD PUSH2 0x13C9 JUMP JUMPDEST SWAP2 POP POP SWAP3 SWAP2 POP POP JUMP JUMPDEST PUSH0 PUSH1 0x40 DUP3 ADD SWAP1 POP PUSH2 0x141B PUSH0 DUP4 ADD DUP6 PUSH2 0x11C6 JUMP JUMPDEST PUSH2 0x1428 PUSH1 0x20 DUP4 ADD DUP5 PUSH2 0x11C6 JUMP JUMPDEST SWAP4 SWAP3 POP POP POP JUMP JUMPDEST PUSH0 PUSH1 0x40 DUP3 ADD SWAP1 POP PUSH2 0x1442 PUSH0 DUP4 ADD DUP6 PUSH2 0x1326 JUMP JUMPDEST PUSH2 0x144F PUSH1 0x20 DUP4 ADD DUP5 PUSH2 0x11C6 JUMP JUMPDEST SWAP4 SWAP3 POP POP POP JUMP JUMPDEST PUSH2 0x145F DUP2 PUSH2 0x1193 JUMP JUMPDEST DUP2 EQ PUSH2 0x1469 JUMPI PUSH0 DUP1 REVERT JUMPDEST POP JUMP JUMPDEST PUSH0 DUP2 MLOAD SWAP1 POP PUSH2 0x147A DUP2 PUSH2 0x1456 JUMP JUMPDEST SWAP3 SWAP2 POP POP JUMP JUMPDEST PUSH0 PUSH1 0x20 DUP3 DUP5 SUB SLT ISZERO PUSH2 0x1495 JUMPI PUSH2 0x1494 PUSH2 0x10C0 JUMP JUMPDEST JUMPDEST PUSH0 PUSH2 0x14A2 DUP5 DUP3 DUP6 ADD PUSH2 0x146C JUMP JUMPDEST SWAP2 POP POP SWAP3 SWAP2 POP POP JUMP JUMPDEST PUSH0 DUP3 DUP3 MSTORE PUSH1 0x20 DUP3 ADD SWAP1 POP SWAP3 SWAP2 POP POP JUMP JUMPDEST PUSH32 0x7769746864726177616C206661696C6564000000000000000000000000000000 PUSH0 DUP3 ADD MSTORE POP JUMP JUMPDEST PUSH0 PUSH2 0x14EF PUSH1 0x11 DUP4 PUSH2 0x14AB JUMP JUMPDEST SWAP2 POP PUSH2 0x14FA DUP3 PUSH2 0x14BB JUMP JUMPDEST PUSH1 0x20 DUP3 ADD SWAP1 POP SWAP2 SWAP1 POP JUMP JUMPDEST PUSH0 PUSH1 0x20 DUP3 ADD SWAP1 POP DUP2 DUP2 SUB PUSH0 DUP4 ADD MSTORE PUSH2 0x151C DUP2 PUSH2 0x14E3 JUMP JUMPDEST SWAP1 POP SWAP2 SWAP1 POP JUMP JUMPDEST PUSH32 0x4E487B7100000000000000000000000000000000000000000000000000000000 PUSH0 MSTORE PUSH1 0x11 PUSH1 0x4 MSTORE PUSH1 0x24 PUSH0 REVERT JUMPDEST PUSH0 PUSH2 0x155A DUP3 PUSH2 0x1122 JUMP JUMPDEST SWAP2 POP PUSH2 0x1565 DUP4 PUSH2 0x1122 JUMP JUMPDEST SWAP3 POP DUP3 DUP3 SUB SWAP1 POP DUP2 DUP2 GT ISZERO PUSH2 0x157D JUMPI PUSH2 0x157C PUSH2 0x1523 JUMP JUMPDEST JUMPDEST SWAP3 SWAP2 POP POP JUMP JUMPDEST PUSH32 0x54686973204E465420697320616C7265616479206C6973746564000000000000 PUSH0 DUP3 ADD MSTORE POP JUMP JUMPDEST PUSH0 PUSH2 0x15B7 PUSH1 0x1A DUP4 PUSH2 0x14AB JUMP JUMPDEST SWAP2 POP PUSH2 0x15C2 DUP3 PUSH2 0x1583 JUMP JUMPDEST PUSH1 0x20 DUP3 ADD SWAP1 POP SWAP2 SWAP1 POP JUMP JUMPDEST PUSH0 PUSH1 0x20 DUP3 ADD SWAP1 POP DUP2 DUP2 SUB PUSH0 DUP4 ADD MSTORE PUSH2 0x15E4 DUP2 PUSH2 0x15AB JUMP JUMPDEST SWAP1 POP SWAP2 SWAP1 POP JUMP JUMPDEST PUSH0 DUP3 DUP3 MSTORE PUSH1 0x20 DUP3 ADD SWAP1 POP SWAP3 SWAP2 POP POP JUMP JUMPDEST PUSH32 0x4C697374207375636365737366756C6C79000000000000000000000000000000 PUSH0 DUP3 ADD MSTORE POP JUMP JUMPDEST PUSH0 PUSH2 0x162F PUSH1 0x11 DUP4 PUSH2 0x15EB JUMP JUMPDEST SWAP2 POP PUSH2 0x163A DUP3 PUSH2 0x15FB JUMP JUMPDEST PUSH1 0x20 DUP3 ADD SWAP1 POP SWAP2 SWAP1 POP JUMP JUMPDEST PUSH0 PUSH1 0x80 DUP3 ADD SWAP1 POP PUSH2 0x1658 PUSH0 DUP4 ADD DUP7 PUSH2 0x1326 JUMP JUMPDEST PUSH2 0x1665 PUSH1 0x20 DUP4 ADD DUP6 PUSH2 0x1326 JUMP JUMPDEST PUSH2 0x1672 PUSH1 0x40 DUP4 ADD DUP5 PUSH2 0x11C6 JUMP JUMPDEST DUP2 DUP2 SUB PUSH1 0x60 DUP4 ADD MSTORE PUSH2 0x1683 DUP2 PUSH2 0x1623 JUMP JUMPDEST SWAP1 POP SWAP5 SWAP4 POP POP POP POP JUMP JUMPDEST PUSH32 0x4E6F74206F726967696E616C206F776E6572206F72204E6F74206F6E2073616C PUSH0 DUP3 ADD MSTORE PUSH32 0x6500000000000000000000000000000000000000000000000000000000000000 PUSH1 0x20 DUP3 ADD MSTORE POP JUMP JUMPDEST PUSH0 PUSH2 0x16E7 PUSH1 0x21 DUP4 PUSH2 0x14AB JUMP JUMPDEST SWAP2 POP PUSH2 0x16F2 DUP3 PUSH2 0x168D JUMP JUMPDEST PUSH1 0x40 DUP3 ADD SWAP1 POP SWAP2 SWAP1 POP JUMP JUMPDEST PUSH0 PUSH1 0x20 DUP3 ADD SWAP1 POP DUP2 DUP2 SUB PUSH0 DUP4 ADD MSTORE PUSH2 0x1714 DUP2 PUSH2 0x16DB JUMP JUMPDEST SWAP1 POP SWAP2 SWAP1 POP JUMP JUMPDEST PUSH32 0x44656C697374207375636365737366756C6C7900000000000000000000000000 PUSH0 DUP3 ADD MSTORE POP JUMP JUMPDEST PUSH0 PUSH2 0x174F PUSH1 0x13 DUP4 PUSH2 0x15EB JUMP JUMPDEST SWAP2 POP PUSH2 0x175A DUP3 PUSH2 0x171B JUMP JUMPDEST PUSH1 0x20 DUP3 ADD SWAP1 POP SWAP2 SWAP1 POP JUMP JUMPDEST PUSH0 PUSH1 0x80 DUP3 ADD SWAP1 POP PUSH2 0x1778 PUSH0 DUP4 ADD DUP7 PUSH2 0x1326 JUMP JUMPDEST PUSH2 0x1785 PUSH1 0x20 DUP4 ADD DUP6 PUSH2 0x1326 JUMP JUMPDEST PUSH2 0x1792 PUSH1 0x40 DUP4 ADD DUP5 PUSH2 0x11C6 JUMP JUMPDEST DUP2 DUP2 SUB PUSH1 0x60 DUP4 ADD MSTORE PUSH2 0x17A3 DUP2 PUSH2 0x1743 JUMP JUMPDEST SWAP1 POP SWAP5 SWAP4 POP POP POP POP JUMP JUMPDEST PUSH32 0x4F776E65722063616E6E6F742062757921000000000000000000000000000000 PUSH0 DUP3 ADD MSTORE POP JUMP JUMPDEST PUSH0 PUSH2 0x17E1 PUSH1 0x11 DUP4 PUSH2 0x14AB JUMP JUMPDEST SWAP2 POP PUSH2 0x17EC DUP3 PUSH2 0x17AD JUMP JUMPDEST PUSH1 0x20 DUP3 ADD SWAP1 POP SWAP2 SWAP1 POP JUMP JUMPDEST PUSH0 PUSH1 0x20 DUP3 ADD SWAP1 POP DUP2 DUP2 SUB PUSH0 DUP4 ADD MSTORE PUSH2 0x180E DUP2 PUSH2 0x17D5 JUMP JUMPDEST SWAP1 POP SWAP2 SWAP1 POP JUMP JUMPDEST PUSH0 PUSH1 0x60 DUP3 ADD SWAP1 POP PUSH2 0x1828 PUSH0 DUP4 ADD DUP7 PUSH2 0x1326 JUMP JUMPDEST PUSH2 0x1835 PUSH1 0x20 DUP4 ADD DUP6 PUSH2 0x1326 JUMP JUMPDEST PUSH2 0x1842 PUSH1 0x40 DUP4 ADD DUP5 PUSH2 0x11C6 JUMP JUMPDEST SWAP5 SWAP4 POP POP POP POP JUMP JUMPDEST PUSH32 0x4661696C20746F20627579206F7220416C6C6F77616E636520697320696E7375 PUSH0 DUP3 ADD MSTORE PUSH32 0x6666696369656E74000000000000000000000000000000000000000000000000 PUSH1 0x20 DUP3 ADD MSTORE POP JUMP JUMPDEST PUSH0 PUSH2 0x18A4 PUSH1 0x28 DUP4 PUSH2 0x14AB JUMP JUMPDEST SWAP2 POP PUSH2 0x18AF DUP3 PUSH2 0x184A JUMP JUMPDEST PUSH1 0x40 DUP3 ADD SWAP1 POP SWAP2 SWAP1 POP JUMP JUMPDEST PUSH0 PUSH1 0x20 DUP3 ADD SWAP1 POP DUP2 DUP2 SUB PUSH0 DUP4 ADD MSTORE PUSH2 0x18D1 DUP2 PUSH2 0x1898 JUMP JUMPDEST SWAP1 POP SWAP2 SWAP1 POP JUMP JUMPDEST PUSH0 PUSH2 0x18E2 DUP3 PUSH2 0x1122 JUMP JUMPDEST SWAP2 POP PUSH2 0x18ED DUP4 PUSH2 0x1122 JUMP JUMPDEST SWAP3 POP DUP3 DUP3 ADD SWAP1 POP DUP1 DUP3 GT ISZERO PUSH2 0x1905 JUMPI PUSH2 0x1904 PUSH2 0x1523 JUMP JUMPDEST JUMPDEST SWAP3 SWAP2 POP POP JUMP INVALID LOG2 PUSH5 0x6970667358 0x22 SLT KECCAK256 0x2D 0xBA SIGNEXTEND PUSH24 0xA24DC552826B5850DBE79532FFB130A3FFE5557B3893E9F5 0xFC DUP4 SWAP14 0xCB PUSH5 0x736F6C6343 STOP ADDMOD ISZERO STOP CALLER "
				},
				"gasEstimates": {
					"creation": {
						"codeDepositCost": "1293000",
						"executionCost": "infinite",
						"totalCost": "infinite"
					},
					"external": {
						"buy(address,uint256,uint256)": "infinite",
						"delist(address,uint256)": "infinite",
						"getBalance()": "2542",
						"getOwner(address,uint256)": "infinite",
						"getPrice(address,uint256)": "infinite",
						"list(address,uint256,uint256)": "infinite",
						"onERC721Received(address,address,uint256,bytes)": "infinite",
						"onSale(address,uint256)": "3072",
						"tokenAddr()": "infinite",
						"tokensReceived(address,uint256,uint256)": "infinite",
						"withdrawBalance(uint256)": "infinite"
					},
					"internal": {
						"_buyNFT(address,uint256,uint256)": "infinite"
					}
				},
				"methodIdentifiers": {
					"buy(address,uint256,uint256)": "a59ac6dd",
					"delist(address,uint256)": "f074258e",
					"getBalance()": "12065fe0",
					"getOwner(address,uint256)": "2f634a90",
					"getPrice(address,uint256)": "449e815d",
					"list(address,uint256,uint256)": "dda342bb",
					"onERC721Received(address,address,uint256,bytes)": "150b7a02",
					"onSale(address,uint256)": "0f9cb829",
					"tokenAddr()": "5fbe4d1d",
					"tokensReceived(address,uint256,uint256)": "d7dac040",
					"withdrawBalance(uint256)": "da76d5cd"
				}
			},
			"storageLayout": {
				"storage": [
					{
						"astId": 13,
						"contract": "04-Camps/08-UpChain_Camp_3_OpenSpace/0116_NFTMarketWithTokenReceived/contracts/NFTMarket.sol:NFTMarket",
						"label": "price",
						"offset": 0,
						"slot": "0",
						"type": "t_mapping(t_address,t_mapping(t_uint256,t_uint256))"
					},
					{
						"astId": 17,
						"contract": "04-Camps/08-UpChain_Camp_3_OpenSpace/0116_NFTMarketWithTokenReceived/contracts/NFTMarket.sol:NFTMarket",
						"label": "balance",
						"offset": 0,
						"slot": "1",
						"type": "t_mapping(t_address,t_uint256)"
					},
					{
						"astId": 25,
						"contract": "04-Camps/08-UpChain_Camp_3_OpenSpace/0116_NFTMarketWithTokenReceived/contracts/NFTMarket.sol:NFTMarket",
						"label": "onSale",
						"offset": 0,
						"slot": "2",
						"type": "t_mapping(t_address,t_mapping(t_uint256,t_bool))"
					}
				],
				"types": {
					"t_address": {
						"encoding": "inplace",
						"label": "address",
						"numberOfBytes": "20"
					},
					"t_bool": {
						"encoding": "inplace",
						"label": "bool",
						"numberOfBytes": "1"
					},
					"t_mapping(t_address,t_mapping(t_uint256,t_bool))": {
						"encoding": "mapping",
						"key": "t_address",
						"label": "mapping(address => mapping(uint256 => bool))",
						"numberOfBytes": "32",
						"value": "t_mapping(t_uint256,t_bool)"
					},
					"t_mapping(t_address,t_mapping(t_uint256,t_uint256))": {
						"encoding": "mapping",
						"key": "t_address",
						"label": "mapping(address => mapping(uint256 => uint256))",
						"numberOfBytes": "32",
						"value": "t_mapping(t_uint256,t_uint256)"
					},
					"t_mapping(t_address,t_uint256)": {
						"encoding": "mapping",
						"key": "t_address",
						"label": "mapping(address => uint256)",
						"numberOfBytes": "32",
						"value": "t_uint256"
					},
					"t_mapping(t_uint256,t_bool)": {
						"encoding": "mapping",
						"key": "t_uint256",
						"label": "mapping(uint256 => bool)",
						"numberOfBytes": "32",
						"value": "t_bool"
					},
					"t_mapping(t_uint256,t_uint256)": {
						"encoding": "mapping",
						"key": "t_uint256",
						"label": "mapping(uint256 => uint256)",
						"numberOfBytes": "32",
						"value": "t_uint256"
					},
					"t_uint256": {
						"encoding": "inplace",
						"label": "uint256",
						"numberOfBytes": "32"
					}
				}
			},
			"userdoc": {
				"kind": "user",
				"methods": {},
				"version": 1
			}
		}
	}
}